{
  "contractName": "MasterZai",
  "abi": [
    {
      "inputs": [
        {
          "internalType": "contract ZaifToken",
          "name": "_zaif",
          "type": "address"
        },
        {
          "internalType": "address",
          "name": "_devaddr",
          "type": "address"
        },
        {
          "internalType": "address",
          "name": "_feeAddress",
          "type": "address"
        },
        {
          "internalType": "address",
          "name": "_marktAddress",
          "type": "address"
        },
        {
          "internalType": "address",
          "name": "_salaryAddress",
          "type": "address"
        },
        {
          "internalType": "uint256",
          "name": "_zaifPerBlock",
          "type": "uint256"
        },
        {
          "internalType": "uint256",
          "name": "_startBlock",
          "type": "uint256"
        },
        {
          "internalType": "uint256",
          "name": "_multiplier",
          "type": "uint256"
        }
      ],
      "stateMutability": "nonpayable",
      "type": "constructor"
    },
    {
      "anonymous": false,
      "inputs": [
        {
          "indexed": true,
          "internalType": "address",
          "name": "user",
          "type": "address"
        },
        {
          "indexed": true,
          "internalType": "uint256",
          "name": "pid",
          "type": "uint256"
        },
        {
          "indexed": false,
          "internalType": "uint256",
          "name": "amount",
          "type": "uint256"
        }
      ],
      "name": "Deposit",
      "type": "event"
    },
    {
      "anonymous": false,
      "inputs": [
        {
          "indexed": true,
          "internalType": "address",
          "name": "user",
          "type": "address"
        },
        {
          "indexed": true,
          "internalType": "uint256",
          "name": "pid",
          "type": "uint256"
        },
        {
          "indexed": false,
          "internalType": "uint256",
          "name": "amount",
          "type": "uint256"
        }
      ],
      "name": "EmergencyWithdraw",
      "type": "event"
    },
    {
      "anonymous": false,
      "inputs": [
        {
          "indexed": true,
          "internalType": "address",
          "name": "caller",
          "type": "address"
        },
        {
          "indexed": false,
          "internalType": "uint256",
          "name": "previousAmount",
          "type": "uint256"
        },
        {
          "indexed": false,
          "internalType": "uint256",
          "name": "newAmount",
          "type": "uint256"
        }
      ],
      "name": "EmissionRateUpdated",
      "type": "event"
    },
    {
      "anonymous": false,
      "inputs": [
        {
          "indexed": true,
          "internalType": "address",
          "name": "previousOwner",
          "type": "address"
        },
        {
          "indexed": true,
          "internalType": "address",
          "name": "newOwner",
          "type": "address"
        }
      ],
      "name": "OwnershipTransferred",
      "type": "event"
    },
    {
      "anonymous": false,
      "inputs": [
        {
          "indexed": true,
          "internalType": "address",
          "name": "user",
          "type": "address"
        },
        {
          "indexed": true,
          "internalType": "uint256",
          "name": "pid",
          "type": "uint256"
        },
        {
          "indexed": false,
          "internalType": "uint256",
          "name": "amount",
          "type": "uint256"
        }
      ],
      "name": "Withdraw",
      "type": "event"
    },
    {
      "stateMutability": "payable",
      "type": "fallback",
      "payable": true
    },
    {
      "inputs": [],
      "name": "BONUS_MULTIPLIER",
      "outputs": [
        {
          "internalType": "uint256",
          "name": "",
          "type": "uint256"
        }
      ],
      "stateMutability": "view",
      "type": "function",
      "constant": true
    },
    {
      "inputs": [],
      "name": "blockDevFee",
      "outputs": [
        {
          "internalType": "uint16",
          "name": "",
          "type": "uint16"
        }
      ],
      "stateMutability": "view",
      "type": "function",
      "constant": true
    },
    {
      "inputs": [],
      "name": "blockMktFee",
      "outputs": [
        {
          "internalType": "uint16",
          "name": "",
          "type": "uint16"
        }
      ],
      "stateMutability": "view",
      "type": "function",
      "constant": true
    },
    {
      "inputs": [],
      "name": "blockSalaryFee",
      "outputs": [
        {
          "internalType": "uint16",
          "name": "",
          "type": "uint16"
        }
      ],
      "stateMutability": "view",
      "type": "function",
      "constant": true
    },
    {
      "inputs": [],
      "name": "devaddr",
      "outputs": [
        {
          "internalType": "address",
          "name": "",
          "type": "address"
        }
      ],
      "stateMutability": "view",
      "type": "function",
      "constant": true
    },
    {
      "inputs": [],
      "name": "feeAddress",
      "outputs": [
        {
          "internalType": "address",
          "name": "",
          "type": "address"
        }
      ],
      "stateMutability": "view",
      "type": "function",
      "constant": true
    },
    {
      "inputs": [],
      "name": "marktAddress",
      "outputs": [
        {
          "internalType": "address",
          "name": "",
          "type": "address"
        }
      ],
      "stateMutability": "view",
      "type": "function",
      "constant": true
    },
    {
      "inputs": [],
      "name": "owner",
      "outputs": [
        {
          "internalType": "address",
          "name": "",
          "type": "address"
        }
      ],
      "stateMutability": "view",
      "type": "function",
      "constant": true
    },
    {
      "inputs": [
        {
          "internalType": "uint256",
          "name": "",
          "type": "uint256"
        }
      ],
      "name": "poolInfo",
      "outputs": [
        {
          "internalType": "contract IBEP20",
          "name": "lpToken",
          "type": "address"
        },
        {
          "internalType": "uint256",
          "name": "allocPoint",
          "type": "uint256"
        },
        {
          "internalType": "uint256",
          "name": "lastRewardBlock",
          "type": "uint256"
        },
        {
          "internalType": "uint256",
          "name": "accZaifPerShare",
          "type": "uint256"
        },
        {
          "internalType": "uint16",
          "name": "depositFeeBP",
          "type": "uint16"
        },
        {
          "internalType": "uint256",
          "name": "totalLp",
          "type": "uint256"
        }
      ],
      "stateMutability": "view",
      "type": "function",
      "constant": true
    },
    {
      "inputs": [],
      "name": "renounceOwnership",
      "outputs": [],
      "stateMutability": "nonpayable",
      "type": "function"
    },
    {
      "inputs": [],
      "name": "salaryAddress",
      "outputs": [
        {
          "internalType": "address",
          "name": "",
          "type": "address"
        }
      ],
      "stateMutability": "view",
      "type": "function",
      "constant": true
    },
    {
      "inputs": [],
      "name": "startBlock",
      "outputs": [
        {
          "internalType": "uint256",
          "name": "",
          "type": "uint256"
        }
      ],
      "stateMutability": "view",
      "type": "function",
      "constant": true
    },
    {
      "inputs": [],
      "name": "totalAllocPoint",
      "outputs": [
        {
          "internalType": "uint256",
          "name": "",
          "type": "uint256"
        }
      ],
      "stateMutability": "view",
      "type": "function",
      "constant": true
    },
    {
      "inputs": [],
      "name": "totalZaifInPools",
      "outputs": [
        {
          "internalType": "uint256",
          "name": "",
          "type": "uint256"
        }
      ],
      "stateMutability": "view",
      "type": "function",
      "constant": true
    },
    {
      "inputs": [
        {
          "internalType": "address",
          "name": "newOwner",
          "type": "address"
        }
      ],
      "name": "transferOwnership",
      "outputs": [],
      "stateMutability": "nonpayable",
      "type": "function"
    },
    {
      "inputs": [
        {
          "internalType": "uint256",
          "name": "",
          "type": "uint256"
        },
        {
          "internalType": "address",
          "name": "",
          "type": "address"
        }
      ],
      "name": "userInfo",
      "outputs": [
        {
          "internalType": "uint256",
          "name": "amount",
          "type": "uint256"
        },
        {
          "internalType": "uint256",
          "name": "rewardDebt",
          "type": "uint256"
        }
      ],
      "stateMutability": "view",
      "type": "function",
      "constant": true
    },
    {
      "inputs": [],
      "name": "zaif",
      "outputs": [
        {
          "internalType": "contract ZaifToken",
          "name": "",
          "type": "address"
        }
      ],
      "stateMutability": "view",
      "type": "function",
      "constant": true
    },
    {
      "inputs": [],
      "name": "zaifPerBlock",
      "outputs": [
        {
          "internalType": "uint256",
          "name": "",
          "type": "uint256"
        }
      ],
      "stateMutability": "view",
      "type": "function",
      "constant": true
    },
    {
      "inputs": [
        {
          "internalType": "uint256",
          "name": "multiplierNumber",
          "type": "uint256"
        }
      ],
      "name": "updateMultiplier",
      "outputs": [],
      "stateMutability": "nonpayable",
      "type": "function"
    },
    {
      "inputs": [],
      "name": "poolLength",
      "outputs": [
        {
          "internalType": "uint256",
          "name": "",
          "type": "uint256"
        }
      ],
      "stateMutability": "view",
      "type": "function",
      "constant": true
    },
    {
      "inputs": [
        {
          "internalType": "contract IBEP20",
          "name": "_lpToken",
          "type": "address"
        }
      ],
      "name": "checkPoolDuplicate",
      "outputs": [],
      "stateMutability": "view",
      "type": "function",
      "constant": true
    },
    {
      "inputs": [],
      "name": "remainRewards",
      "outputs": [
        {
          "internalType": "uint256",
          "name": "",
          "type": "uint256"
        }
      ],
      "stateMutability": "view",
      "type": "function",
      "constant": true
    },
    {
      "inputs": [],
      "name": "getCirculatingSupply",
      "outputs": [
        {
          "internalType": "uint256",
          "name": "",
          "type": "uint256"
        }
      ],
      "stateMutability": "view",
      "type": "function",
      "constant": true
    },
    {
      "inputs": [
        {
          "internalType": "uint256",
          "name": "_allocPoint",
          "type": "uint256"
        },
        {
          "internalType": "contract IBEP20",
          "name": "_lpToken",
          "type": "address"
        },
        {
          "internalType": "uint16",
          "name": "_depositFeeBP",
          "type": "uint16"
        },
        {
          "internalType": "bool",
          "name": "_withUpdate",
          "type": "bool"
        }
      ],
      "name": "add",
      "outputs": [],
      "stateMutability": "nonpayable",
      "type": "function"
    },
    {
      "inputs": [
        {
          "internalType": "uint256",
          "name": "_pid",
          "type": "uint256"
        },
        {
          "internalType": "uint256",
          "name": "_allocPoint",
          "type": "uint256"
        },
        {
          "internalType": "uint16",
          "name": "_depositFeeBP",
          "type": "uint16"
        },
        {
          "internalType": "bool",
          "name": "_withUpdate",
          "type": "bool"
        }
      ],
      "name": "set",
      "outputs": [],
      "stateMutability": "nonpayable",
      "type": "function"
    },
    {
      "inputs": [
        {
          "internalType": "uint256",
          "name": "_from",
          "type": "uint256"
        },
        {
          "internalType": "uint256",
          "name": "_to",
          "type": "uint256"
        }
      ],
      "name": "getMultiplier",
      "outputs": [
        {
          "internalType": "uint256",
          "name": "",
          "type": "uint256"
        }
      ],
      "stateMutability": "view",
      "type": "function",
      "constant": true
    },
    {
      "inputs": [
        {
          "internalType": "uint256",
          "name": "_pid",
          "type": "uint256"
        },
        {
          "internalType": "address",
          "name": "_user",
          "type": "address"
        }
      ],
      "name": "pendingZaif",
      "outputs": [
        {
          "internalType": "uint256",
          "name": "",
          "type": "uint256"
        }
      ],
      "stateMutability": "view",
      "type": "function",
      "constant": true
    },
    {
      "inputs": [],
      "name": "lockedZaif",
      "outputs": [
        {
          "internalType": "uint256",
          "name": "",
          "type": "uint256"
        }
      ],
      "stateMutability": "view",
      "type": "function",
      "constant": true
    },
    {
      "inputs": [],
      "name": "massUpdatePools",
      "outputs": [],
      "stateMutability": "nonpayable",
      "type": "function"
    },
    {
      "inputs": [
        {
          "internalType": "uint256",
          "name": "_pid",
          "type": "uint256"
        }
      ],
      "name": "updatePool",
      "outputs": [],
      "stateMutability": "nonpayable",
      "type": "function"
    },
    {
      "inputs": [
        {
          "internalType": "uint256",
          "name": "_pid",
          "type": "uint256"
        },
        {
          "internalType": "uint256",
          "name": "_amount",
          "type": "uint256"
        }
      ],
      "name": "deposit",
      "outputs": [],
      "stateMutability": "nonpayable",
      "type": "function"
    },
    {
      "inputs": [
        {
          "internalType": "uint256",
          "name": "_pid",
          "type": "uint256"
        },
        {
          "internalType": "uint256",
          "name": "_amount",
          "type": "uint256"
        }
      ],
      "name": "withdraw",
      "outputs": [],
      "stateMutability": "nonpayable",
      "type": "function"
    },
    {
      "inputs": [
        {
          "internalType": "uint256",
          "name": "_pid",
          "type": "uint256"
        }
      ],
      "name": "emergencyWithdraw",
      "outputs": [],
      "stateMutability": "nonpayable",
      "type": "function"
    },
    {
      "inputs": [
        {
          "internalType": "uint256",
          "name": "_pid",
          "type": "uint256"
        }
      ],
      "name": "getPoolInfo",
      "outputs": [
        {
          "internalType": "address",
          "name": "lpToken",
          "type": "address"
        },
        {
          "internalType": "uint256",
          "name": "allocPoint",
          "type": "uint256"
        },
        {
          "internalType": "uint256",
          "name": "lastRewardBlock",
          "type": "uint256"
        },
        {
          "internalType": "uint256",
          "name": "accZaifPerShare",
          "type": "uint256"
        },
        {
          "internalType": "uint16",
          "name": "depositFeeBP",
          "type": "uint16"
        },
        {
          "internalType": "uint256",
          "name": "totalLp",
          "type": "uint256"
        }
      ],
      "stateMutability": "view",
      "type": "function",
      "constant": true
    },
    {
      "inputs": [
        {
          "internalType": "address",
          "name": "_devaddr",
          "type": "address"
        }
      ],
      "name": "dev",
      "outputs": [],
      "stateMutability": "nonpayable",
      "type": "function"
    },
    {
      "inputs": [
        {
          "internalType": "address",
          "name": "_feeAddress",
          "type": "address"
        }
      ],
      "name": "setFeeAddress",
      "outputs": [],
      "stateMutability": "nonpayable",
      "type": "function"
    },
    {
      "inputs": [
        {
          "internalType": "uint256",
          "name": "_zaifPerBlock",
          "type": "uint256"
        }
      ],
      "name": "updateEmissionRate",
      "outputs": [],
      "stateMutability": "nonpayable",
      "type": "function"
    }
  ],
  "bytecode": "0x6080604052600160085560006009556000600a556000600b556000600e5560006010553480156200002f57600080fd5b5060405162002f2038038062002f2083398181016040526101008110156200005657600080fd5b508051602082015160408301516060840151608085015160a086015160c087015160e09097015195969495939492939192909160006200009562000158565b600080546001600160a01b0319166001600160a01b0383169081178255604051929350917f8be0079c531659141344cd1fd0a4f28419497f9722a3daafe3b4186f6b6457e0908290a35060018055600280546001600160a01b03199081166001600160a01b039a8b1617909155600380548216988a16989098179097556004805488169689169690961790955560058054871694881694909417909355600680549095169190951617909255600792909255600f556008556000600e556200015c565b3390565b612db4806200016c6000396000f3fe60806040526004361061021a5760003560e01c806369d15108116101235780638dbb1e3a116100ab578063d49e77cd1161006f578063d49e77cd146106e7578063d9638422146106fc578063db8968241461073e578063e2bbb15814610753578063f2fde38b146107835761021a565b80638dbb1e3a1461062657806393f1a40b14610656578063a748fa9e146106a8578063a7555c23146106bd578063cdecefdf146106d25761021a565b80638705fcd4116100f25780638705fcd414610581578063871815ce146105b45780638aa28550146105c95780638d88a90e146105de5780638da5cb5b146106115761021a565b806369d15108146104f7578063715018a61461050c5780637f2e0ec21461052157806384e82a33146105365761021a565b8063376c1096116101a657806348cd4cb11161017557806348cd4cb11461044f57806351eb05a6146104645780635312ea8e1461048e5780635ffe6146146104b8578063630b5ba1146104e25761021a565b8063376c1096146103a057806341275358146103d157806341cc5f66146103e6578063441a3e701461041f5761021a565b8063270f441e116101ed578063270f441e146102ed5780632b112e49146103025780632f380b3514610317578063322d0d4a14610341578063326bb941146103745761021a565b8063081e3eda1461021c5780630ba84cd2146102435780631526fe271461026d57806317caf6f1146102d8575b005b34801561022857600080fd5b506102316107b6565b60408051918252519081900360200190f35b34801561024f57600080fd5b5061021a6004803603602081101561026657600080fd5b50356107bc565b34801561027957600080fd5b506102976004803603602081101561029057600080fd5b503561085f565b604080516001600160a01b039097168752602087019590955285850193909352606085019190915261ffff16608084015260a0830152519081900360c00190f35b3480156102e457600080fd5b506102316108b3565b3480156102f957600080fd5b506102316108b9565b34801561030e57600080fd5b506102316108bf565b34801561032357600080fd5b506102976004803603602081101561033a57600080fd5b50356109cc565b34801561034d57600080fd5b5061021a6004803603602081101561036457600080fd5b50356001600160a01b0316610abe565b34801561038057600080fd5b50610389610b52565b6040805161ffff9092168252519081900360200190f35b3480156103ac57600080fd5b506103b5610b58565b604080516001600160a01b039092168252519081900360200190f35b3480156103dd57600080fd5b506103b5610b67565b3480156103f257600080fd5b506102316004803603604081101561040957600080fd5b50803590602001356001600160a01b0316610b76565b34801561042b57600080fd5b5061021a6004803603604081101561044257600080fd5b5080359060200135610d3b565b34801561045b57600080fd5b506102316111aa565b34801561047057600080fd5b5061021a6004803603602081101561048757600080fd5b50356111b0565b34801561049a57600080fd5b5061021a600480360360208110156104b157600080fd5b5035611574565b3480156104c457600080fd5b5061021a600480360360208110156104db57600080fd5b50356118a4565b3480156104ee57600080fd5b5061021a611901565b34801561050357600080fd5b506103b5611920565b34801561051857600080fd5b5061021a61192f565b34801561052d57600080fd5b506102316119d1565b34801561054257600080fd5b5061021a6004803603608081101561055957600080fd5b508035906001600160a01b036020820135169061ffff60408201351690606001351515611a5f565b34801561058d57600080fd5b5061021a600480360360208110156105a457600080fd5b50356001600160a01b0316611c8e565b3480156105c057600080fd5b50610389611d0f565b3480156105d557600080fd5b50610231611d14565b3480156105ea57600080fd5b5061021a6004803603602081101561060157600080fd5b50356001600160a01b0316611d1a565b34801561061d57600080fd5b506103b5611d87565b34801561063257600080fd5b506102316004803603604081101561064957600080fd5b5080359060200135611d96565b34801561066257600080fd5b5061068f6004803603604081101561067957600080fd5b50803590602001356001600160a01b0316611db1565b6040805192835260208301919091528051918290030190f35b3480156106b457600080fd5b50610231611dd5565b3480156106c957600080fd5b50610389611ddb565b3480156106de57600080fd5b506103b5611de1565b3480156106f357600080fd5b506103b5611df0565b34801561070857600080fd5b5061021a6004803603608081101561071f57600080fd5b5080359060208101359061ffff60408201351690606001351515611dff565b34801561074a57600080fd5b50610231611f4f565b34801561075f57600080fd5b5061021a6004803603604081101561077657600080fd5b5080359060200135611f55565b34801561078f57600080fd5b5061021a600480360360208110156107a657600080fd5b50356001600160a01b03166123d8565b600c5490565b6107c461243c565b6000546001600160a01b03908116911614610814576040805162461bcd60e51b81526020600482018190526024820152600080516020612d34833981519152604482015290519081900360640190fd5b61081c611901565b6007546040805191825260208201839052805133927feedc6338c9c1ad8f3cd6c90dd09dbe98dbd57e610d3e59a17996d07acb0d951192908290030190a2600755565b600c818154811061086c57fe5b60009182526020909120600690910201805460018201546002830154600384015460048501546005909501546001600160a01b0390941695509193909261ffff9091169086565b600e5481565b60105490565b600080600260009054906101000a90046001600160a01b03166001600160a01b03166318160ddd6040518163ffffffff1660e01b815260040160206040518083038186803b15801561091057600080fd5b505afa158015610924573d6000803e3d6000fd5b505050506040513d602081101561093a57600080fd5b5051600254604080516370a0823160e01b815230600482015290519293506000926001600160a01b03909216916370a0823191602480820192602092909190829003018186803b15801561098d57600080fd5b505afa1580156109a1573d6000803e3d6000fd5b505050506040513d60208110156109b757600080fd5b505190506109c58282612440565b9250505090565b600080600080600080600c87815481106109e257fe5b6000918252602090912060069091020154600c80546001600160a01b039092169189908110610a0d57fe5b906000526020600020906006020160010154600c8981548110610a2c57fe5b906000526020600020906006020160020154600c8a81548110610a4b57fe5b906000526020600020906006020160030154600c8b81548110610a6a57fe5b906000526020600020906006020160040160009054906101000a900461ffff16600c8c81548110610a9757fe5b90600052602060002090600602016005015495509550955095509550955091939550919395565b600c5460005b81811015610b4d57826001600160a01b0316600c8281548110610ae357fe5b60009182526020909120600690910201546001600160a01b03161415610b45576040805162461bcd60e51b81526020600482015260126024820152711859190e88195e1a5cdd1a5b99c81c1bdbdb60721b604482015290519081900360640190fd5b600101610ac4565b505050565b6103e881565b6006546001600160a01b031681565b6004546001600160a01b031681565b600080600c8481548110610b8657fe5b60009182526020808320878452600d825260408085206001600160a01b03891686529092529220600360069092029092019081015460058201546002830154929450909143118015610bd757508015155b15610d00576000610bec856002015443611d96565b90506000610c1f600e54610c198860010154610c136007548761248290919063ffffffff16565b90612482565b906124db565b90506000610c35612710610c19846105dc612482565b90506000610c438383612440565b90506000600260009054906101000a90046001600160a01b03166001600160a01b031663a2309ff86040518163ffffffff1660e01b815260040160206040518083038186803b158015610c9557600080fd5b505afa158015610ca9573d6000803e3d6000fd5b505050506040513d6020811015610cbf57600080fd5b505190506a8c9ee6775415ccea0000008110610cda57610cfa565b610cf7610cf087610c198564e8d4a51000612482565b889061251d565b96505b50505050505b610d2e8360010154610d2864e8d4a51000610c1986886000015461248290919063ffffffff16565b90612440565b9450505050505b92915050565b600c5482908110610d93576040805162461bcd60e51b815260206004820152601a60248201527f76616c6964617465506f6f6c3a20706f6f6c206578697374733f000000000000604482015290519081900360640190fd5b60026001541415610deb576040805162461bcd60e51b815260206004820152601f60248201527f5265656e7472616e637947756172643a207265656e7472616e742063616c6c00604482015290519081900360640190fd5b60026001819055506000600c8481548110610e0257fe5b60009182526020808320878452600d825260408085203386529092529220805460069092029092019250841115610e75576040805162461bcd60e51b81526020600482015260126024820152711dda5d1a191c985dce881b9bdd0819dbdbd960721b604482015290519081900360640190fd5b8382600501541015610eb85760405162461bcd60e51b8152600401808060200182810382526022815260200180612c9e6022913960400191505060405180910390fd5b610ec1856111b0565b6000610eef8260010154610d2864e8d4a51000610c198760030154876000015461248290919063ffffffff16565b90508015610f2c576000610f016119d1565b90508015610f2a5780821115610f2057610f1b3382612577565b610f2a565b610f2a3383612577565b505b84156111255760025483546001600160a01b039081169116141561110f57600254604080516370a0823160e01b815230600482015290516000926001600160a01b0316916370a08231916024808301926020929190829003018186803b158015610f9557600080fd5b505afa158015610fa9573d6000803e3d6000fd5b505050506040513d6020811015610fbf57600080fd5b505190508086111561100d576040805162461bcd60e51b81526020600482015260126024820152711dda5d1a191c985dce881b9bdd0819dbdbd960721b604482015290519081900360640190fd5b6010548610611020576000601055611088565b856010541015611077576040805162461bcd60e51b815260206004820152601c60248201527f616d6f756e7420626967676572207468616e20706f6f6c207775743f00000000604482015290519081900360640190fd5b6010546110849087612440565b6010555b6002546040805163a9059cbb60e01b81523360048201526024810189905290516001600160a01b039092169163a9059cbb916044808201926020929091908290030181600087803b1580156110dc57600080fd5b505af11580156110f0573d6000803e3d6000fd5b505050506040513d602081101561110657600080fd5b50611125915050565b8254611125906001600160a01b0316338761276c565b81546111319086612440565b825560058301546111429086612440565b6005840155600383015482546111629164e8d4a5100091610c1991612482565b6001830155604080518681529051879133917ff279e6a1f5e320cca91135676d9cb6e44ca8a08c0b88342bcdb1144f6511b5689181900360200190a350506001805550505050565b600f5481565b600c5481908110611208576040805162461bcd60e51b815260206004820152601a60248201527f76616c6964617465506f6f6c3a20706f6f6c206578697374733f000000000000604482015290519081900360640190fd5b6000600c838154811061121757fe5b90600052602060002090600602019050806002015443116112385750611570565b6005810154158061124b57506001810154155b1561125c5743600290910155611570565b600061126c826002015443611d96565b90506000611293600e54610c198560010154610c136007548761248290919063ffffffff16565b905060006112a9612710610c19846105dc612482565b905060006112b78383612440565b90506000600260009054906101000a90046001600160a01b03166001600160a01b031663a2309ff86040518163ffffffff1660e01b815260040160206040518083038186803b15801561130957600080fd5b505afa15801561131d573d6000803e3d6000fd5b505050506040513d602081101561133357600080fd5b505190506a8c9ee6775415ccea00000081106113cd576000600954118061135c57506000600a54115b8061136957506000600b54115b156113b957600354600954611387916001600160a01b031690612577565b600654600a546113a0916001600160a01b031690612577565b600554600b546113b9916001600160a01b031690612577565b60006009819055600b819055600a556114d6565b600254604080516340c10f1960e01b81523060048201526024810187905290516001600160a01b03909216916340c10f199160448082019260009290919082900301818387803b15801561142057600080fd5b505af1158015611434573d6000803e3d6000fd5b50505050683ba1910bf341b00000600954111561146e57600354600954611464916001600160a01b031690612577565b60006009556114d6565b683ba1910bf341b00000600a5411156114a457600654600a5461149a916001600160a01b031690612577565b6000600a556114d6565b686c6b935b8bbd400000600b5411156114d657600554600b546114d0916001600160a01b031690612577565b6000600b555b6114f36114ea612710610c19876064612482565b6009549061251d565b60095561151461150b612710610c1987610190612482565b600a549061251d565b600a908155611531906115289086906124db565b600b549061251d565b600b55600586015461155b9061155090610c198564e8d4a51000612482565b60038801549061251d565b60038701555050436002909401939093555050505b5050565b600260015414156115cc576040805162461bcd60e51b815260206004820152601f60248201527f5265656e7472616e637947756172643a207265656e7472616e742063616c6c00604482015290519081900360640190fd5b60026001819055506000600c82815481106115e357fe5b60009182526020808320858452600d825260408085203386529092529220805460069290920290920160058101549093508111156116525760405162461bcd60e51b815260040180806020018281038252602b815260200180612d54602b913960400191505060405180910390fd5b60025483546001600160a01b039081169116141561182f57600254604080516370a0823160e01b815230600482015290516000926001600160a01b0316916370a08231916024808301926020929190829003018186803b1580156116b557600080fd5b505afa1580156116c9573d6000803e3d6000fd5b505050506040513d60208110156116df57600080fd5b505190508082111561172d576040805162461bcd60e51b81526020600482015260126024820152711dda5d1a191c985dce881b9bdd0819dbdbd960721b604482015290519081900360640190fd5b60105482106117405760006010556117a8565b816010541015611797576040805162461bcd60e51b815260206004820152601c60248201527f616d6f756e7420626967676572207468616e20706f6f6c207775743f00000000604482015290519081900360640190fd5b6010546117a49083612440565b6010555b6002546040805163a9059cbb60e01b81523360048201526024810185905290516001600160a01b039092169163a9059cbb916044808201926020929091908290030181600087803b1580156117fc57600080fd5b505af1158015611810573d6000803e3d6000fd5b505050506040513d602081101561182657600080fd5b50611845915050565b8254611845906001600160a01b0316338361276c565b60008083556001830155600583015461185e9082612440565b6005840155604080518281529051859133917fbb757047c2b5f3974fe26b7c10f732e7bce710b0952a71082702781e62ae05959181900360200190a35050600180555050565b6118ac61243c565b6000546001600160a01b039081169116146118fc576040805162461bcd60e51b81526020600482018190526024820152600080516020612d34833981519152604482015290519081900360640190fd5b600855565b600c5460005b8181101561157057611918816111b0565b600101611907565b6002546001600160a01b031681565b61193761243c565b6000546001600160a01b03908116911614611987576040805162461bcd60e51b81526020600482018190526024820152600080516020612d34833981519152604482015290519081900360640190fd5b600080546040516001600160a01b03909116907f8be0079c531659141344cd1fd0a4f28419497f9722a3daafe3b4186f6b6457e0908390a3600080546001600160a01b0319169055565b601054600254604080516370a0823160e01b81523060048201529051600093611a5a9390926001600160a01b03909116916370a0823191602480820192602092909190829003018186803b158015611a2857600080fd5b505afa158015611a3c573d6000803e3d6000fd5b505050506040513d6020811015611a5257600080fd5b505190612440565b905090565b611a6761243c565b6000546001600160a01b03908116911614611ab7576040805162461bcd60e51b81526020600482018190526024820152600080516020612d34833981519152604482015290519081900360640190fd5b6127108261ffff161115611afc5760405162461bcd60e51b8152600401808060200182810382526025815260200180612c296025913960400191505060405180910390fd5b8015611b0a57611b0a611901565b6000600f544311611b1d57600f54611b1f565b435b600e54909150611b2f908661251d565b600e556040805160c0810182526001600160a01b0395861681526020810196875290810191825260006060820181815261ffff9586166080840190815260a08401838152600c8054600181018255945293517fdf6966c971051c3d54ec59162606531493a51404a002842f56009d7e5cf4a8c7600690940293840180546001600160a01b031916919099161790975596517fdf6966c971051c3d54ec59162606531493a51404a002842f56009d7e5cf4a8c882015591517fdf6966c971051c3d54ec59162606531493a51404a002842f56009d7e5cf4a8c983015594517fdf6966c971051c3d54ec59162606531493a51404a002842f56009d7e5cf4a8ca82015592517fdf6966c971051c3d54ec59162606531493a51404a002842f56009d7e5cf4a8cb8401805461ffff191691909316179091555090517fdf6966c971051c3d54ec59162606531493a51404a002842f56009d7e5cf4a8cc90910155565b6004546001600160a01b03163314611ced576040805162461bcd60e51b815260206004820152601860248201527f736574466565416464726573733a20464f5242494444454e0000000000000000604482015290519081900360640190fd5b600480546001600160a01b0319166001600160a01b0392909216919091179055565b606481565b60085481565b6003546001600160a01b03163314611d65576040805162461bcd60e51b81526020600482015260096024820152686465763a207775743f60b81b604482015290519081900360640190fd5b600380546001600160a01b0319166001600160a01b0392909216919091179055565b6000546001600160a01b031690565b600854600090611daa90610c138486612440565b9392505050565b600d6020908152600092835260408084209091529082529020805460019091015482565b60105481565b61019081565b6005546001600160a01b031681565b6003546001600160a01b031681565b611e0761243c565b6000546001600160a01b03908116911614611e57576040805162461bcd60e51b81526020600482018190526024820152600080516020612d34833981519152604482015290519081900360640190fd5b6127108261ffff161115611e9c5760405162461bcd60e51b8152600401808060200182810382526025815260200180612d0f6025913960400191505060405180910390fd5b8015611eaa57611eaa611901565b611ee783611ee1600c8781548110611ebe57fe5b906000526020600020906006020160010154600e5461244090919063ffffffff16565b9061251d565b600e8190555082600c8581548110611efb57fe5b90600052602060002090600602016001018190555081600c8581548110611f1e57fe5b906000526020600020906006020160040160006101000a81548161ffff021916908361ffff16021790555050505050565b60075481565b60026001541415611fad576040805162461bcd60e51b815260206004820152601f60248201527f5265656e7472616e637947756172643a207265656e7472616e742063616c6c00604482015290519081900360640190fd5b6002600155600f54431015611ff35760405162461bcd60e51b815260040180806020018281038252602e815260200180612cc0602e913960400191505060405180910390fd5b6000600c838154811061200257fe5b60009182526020808320868452600d82526040808520338652909252922060069091029091019150612033846111b0565b8054156120a75760006120688260010154610d2864e8d4a51000610c198760030154876000015461248290919063ffffffff16565b905080156120a557600061207a6119d1565b905080156120a35780821115612099576120943382612577565b6120a3565b6120a33383612577565b505b505b821561237757600482015461ffff161561228a5760048201546000906120da9061271090610c1990879061ffff16612482565b60025484549192506001600160a01b03918216911614156122235761210e81610d288660105461251d90919063ffffffff16565b601055600254604080516323b872dd60e01b81523360048201523060248201526044810187905290516001600160a01b03909216916323b872dd916064808201926020929091908290030181600087803b15801561216b57600080fd5b505af115801561217f573d6000803e3d6000fd5b505050506040513d602081101561219557600080fd5b5050600254600480546040805163a9059cbb60e01b81526001600160a01b0392831693810193909352602483018590525192169163a9059cbb916044808201926020929091908290030181600087803b1580156121f157600080fd5b505af1158015612205573d6000803e3d6000fd5b505050506040513d602081101561221b57600080fd5b506122569050565b825461223a906001600160a01b03163330876127be565b6004548354612256916001600160a01b0391821691168361276c565b8154612268908290610d28908761251d565b8255600583015461227f908290610d28908761251d565b600584015550612377565b8054612296908461251d565b815560058201546122a7908461251d565b600583015560025482546001600160a01b0390811691161415612360576010546122d1908461251d565b601055600254604080516323b872dd60e01b81523360048201523060248201526044810186905290516001600160a01b03909216916323b872dd916064808201926020929091908290030181600087803b15801561232e57600080fd5b505af1158015612342573d6000803e3d6000fd5b505050506040513d602081101561235857600080fd5b506123779050565b8154612377906001600160a01b03163330866127be565b600382015481546123929164e8d4a5100091610c1991612482565b6001820155604080518481529051859133917f90890809c654f11d6e72a28fa60149770a0d11ec6c92319d6ceb2bb0a4ea1a159181900360200190a35050600180555050565b6123e061243c565b6000546001600160a01b03908116911614612430576040805162461bcd60e51b81526020600482018190526024820152600080516020612d34833981519152604482015290519081900360640190fd5b6124398161281e565b50565b3390565b6000611daa83836040518060400160405280601e81526020017f536166654d6174683a207375627472616374696f6e206f766572666c6f7700008152506128be565b60008261249157506000610d35565b8282028284828161249e57fe5b0414611daa5760405162461bcd60e51b8152600401808060200182810382526021815260200180612cee6021913960400191505060405180910390fd5b6000611daa83836040518060400160405280601a81526020017f536166654d6174683a206469766973696f6e206279207a65726f000000000000815250612955565b600082820183811015611daa576040805162461bcd60e51b815260206004820152601b60248201527f536166654d6174683a206164646974696f6e206f766572666c6f770000000000604482015290519081900360640190fd5b601054600254604080516370a0823160e01b815230600482015290516001600160a01b03909216916370a0823191602480820192602092909190829003018186803b1580156125c557600080fd5b505afa1580156125d9573d6000803e3d6000fd5b505050506040513d60208110156125ef57600080fd5b5051111561157057601054600254604080516370a0823160e01b8152306004820152905160009361264e9390926001600160a01b03909116916370a0823191602480820192602092909190829003018186803b158015611a2857600080fd5b90508082106126df576002546040805163a9059cbb60e01b81526001600160a01b038681166004830152602482018590529151919092169163a9059cbb9160448083019260209291908290030181600087803b1580156126ad57600080fd5b505af11580156126c1573d6000803e3d6000fd5b505050506040513d60208110156126d757600080fd5b50610b4d9050565b8115610b4d576002546040805163a9059cbb60e01b81526001600160a01b038681166004830152602482018690529151919092169163a9059cbb9160448083019260209291908290030181600087803b15801561273b57600080fd5b505af115801561274f573d6000803e3d6000fd5b505050506040513d602081101561276557600080fd5b5050505050565b604080516001600160a01b038416602482015260448082018490528251808303909101815260649091019091526020810180516001600160e01b031663a9059cbb60e01b179052610b4d9084906129ba565b604080516001600160a01b0380861660248301528416604482015260648082018490528251808303909101815260849091019091526020810180516001600160e01b03166323b872dd60e01b1790526128189085906129ba565b50505050565b6001600160a01b0381166128635760405162461bcd60e51b8152600401808060200182810382526026815260200180612c786026913960400191505060405180910390fd5b600080546040516001600160a01b03808516939216917f8be0079c531659141344cd1fd0a4f28419497f9722a3daafe3b4186f6b6457e091a3600080546001600160a01b0319166001600160a01b0392909216919091179055565b6000818484111561294d5760405162461bcd60e51b81526004018080602001828103825283818151815260200191508051906020019080838360005b838110156129125781810151838201526020016128fa565b50505050905090810190601f16801561293f5780820380516001836020036101000a031916815260200191505b509250505060405180910390fd5b505050900390565b600081836129a45760405162461bcd60e51b81526020600482018181528351602484015283519092839260449091019190850190808383600083156129125781810151838201526020016128fa565b5060008385816129b057fe5b0495945050505050565b6060612a0f826040518060400160405280602081526020017f5361666542455032303a206c6f772d6c6576656c2063616c6c206661696c6564815250856001600160a01b0316612a6b9092919063ffffffff16565b805190915015610b4d57808060200190516020811015612a2e57600080fd5b5051610b4d5760405162461bcd60e51b815260040180806020018281038252602a815260200180612c4e602a913960400191505060405180910390fd5b6060612a7a8484600085612a82565b949350505050565b6060612a8d85612bef565b612ade576040805162461bcd60e51b815260206004820152601d60248201527f416464726573733a2063616c6c20746f206e6f6e2d636f6e7472616374000000604482015290519081900360640190fd5b60006060866001600160a01b031685876040518082805190602001908083835b60208310612b1d5780518252601f199092019160209182019101612afe565b6001836020036101000a03801982511681845116808217855250505050505090500191505060006040518083038185875af1925050503d8060008114612b7f576040519150601f19603f3d011682016040523d82523d6000602084013e612b84565b606091505b50915091508115612b98579150612a7a9050565b805115612ba85780518082602001fd5b60405162461bcd60e51b81526020600482018181528651602484015286518793919283926044019190850190808383600083156129125781810151838201526020016128fa565b6000813f7fc5d2460186f7233c927e7db2dcc703c0e500b653ca82273b7bfad8045d85a470818114801590612a7a57505015159291505056fe6164643a20696e76616c6964206465706f7369742066656520626173697320706f696e74735361666542455032303a204245503230206f7065726174696f6e20646964206e6f7420737563636565644f776e61626c653a206e6577206f776e657220697320746865207a65726f206164647265737357697468647261773a20506f6f6c20746f74616c204c50206e6f7420656e6f7567684d6173746572436865663a3a2043616e206e6f74206465706f736974206265666f7265206661726d207374617274536166654d6174683a206d756c7469706c69636174696f6e206f766572666c6f777365743a20696e76616c6964206465706f7369742066656520626173697320706f696e74734f776e61626c653a2063616c6c6572206973206e6f7420746865206f776e6572456d657267656e637957697468647261773a20506f6f6c20746f74616c204c50206e6f7420656e6f756768a264697066735822122068cee1ab05d4936ecce061d7763a6780e78684842ef9d0f977cffa045bcb695864736f6c634300060c0033",
  "immutableReferences": {},
  "source": "// SPDX-License-Identifier: MIT\npragma solidity >=0.6.2;\n\n/*\n * ZaigarFinance \n */\n\nimport '@pancakeswap/pancake-swap-lib/contracts/math/SafeMath.sol';\nimport '@pancakeswap/pancake-swap-lib/contracts/token/BEP20/IBEP20.sol';\nimport '@pancakeswap/pancake-swap-lib/contracts/token/BEP20/SafeBEP20.sol';\nimport '@pancakeswap/pancake-swap-lib/contracts/access/Ownable.sol';\n\n\n// File @openzeppelin/contracts/utils/ReentrancyGuard.sol@v3.4.1\n\n\n/**\n * @dev Contract module that helps prevent reentrant calls to a function.\n *\n * Inheriting from `ReentrancyGuard` will make the {nonReentrant} modifier\n * available, which can be applied to functions to make sure there are no nested\n * (reentrant) calls to them.\n *\n * Note that because there is a single `nonReentrant` guard, functions marked as\n * `nonReentrant` may not call one another. This can be worked around by making\n * those functions `private`, and then adding `external` `nonReentrant` entry\n * points to them.\n *\n * TIP: If you would like to learn more about reentrancy and alternative ways\n * to protect against it, check out our blog post\n * https://blog.openzeppelin.com/reentrancy-after-istanbul/[Reentrancy After Istanbul].\n */\nabstract contract ReentrancyGuard {\n    // Booleans are more expensive than uint256 or any type that takes up a full\n    // word because each write operation emits an extra SLOAD to first read the\n    // slot's contents, replace the bits taken up by the boolean, and then write\n    // back. This is the compiler's defense against contract upgrades and\n    // pointer aliasing, and it cannot be disabled.\n\n    // The values being non-zero value makes deployment a bit more expensive,\n    // but in exchange the refund on every call to nonReentrant will be lower in\n    // amount. Since refunds are capped to a percentage of the total\n    // transaction's gas, it is best to keep them low in cases like this one, to\n    // increase the likelihood of the full refund coming into effect.\n    uint256 private constant _NOT_ENTERED = 1;\n    uint256 private constant _ENTERED = 2;\n\n    uint256 private _status;\n\n    constructor () internal {\n        _status = _NOT_ENTERED;\n    }\n\n    /**\n     * @dev Prevents a contract from calling itself, directly or indirectly.\n     * Calling a `nonReentrant` function from another `nonReentrant`\n     * function is not supported. It is possible to prevent this from happening\n     * by making the `nonReentrant` function external, and make it call a\n     * `private` function that does the actual work.\n     */\n    modifier nonReentrant() {\n        // On the first call to nonReentrant, _notEntered will be true\n        require(_status != _ENTERED, \"ReentrancyGuard: reentrant call\");\n\n        // Any calls to nonReentrant after this point will fail\n        _status = _ENTERED;\n\n        _;\n\n        // By storing the original value once again, a refund is triggered (see\n        // https://eips.ethereum.org/EIPS/eip-2200)\n        _status = _NOT_ENTERED;\n    }\n}\n\nimport \"./ZaifToken.sol\";\n\n\n\n// import \"@nomiclabs/buidler/console.sol\";\n\n// MasterZai is the master of ZAIF \n// He can make Zaif and he is a fair guy.\n//\n// Note that it's ownable and the owner wields tremendous power. The ownership\n// will be transferred to a governance smart contract once ZAIF is sufficiently\n// distributed and the community can show to govern itself.\n//\n// Have fun reading it. Hopefully it's bug-free. God bless.\ncontract MasterZai is Ownable, ReentrancyGuard {\n    using SafeMath for uint256;\n    using SafeBEP20 for IBEP20;\n\n    // Info of each user.\n    struct UserInfo {\n        uint256 amount;     // How many LP tokens the user has provided.\n        uint256 rewardDebt; // Reward debt. See explanation below.\n        //\n        // We do some fancy math here. Basically, any point in time, the amount of ZAIFs\n        // entitled to a user but is pending to be distributed is:\n        //\n        //   pending reward = (user.amount * pool.accZaifPerShare) - user.rewardDebt\n        //\n        // Whenever a user deposits or withdraws LP tokens to a pool. Here's what happens:\n        //   1. The pool's `accZaifPerShare` (and `lastRewardBlock`) gets updated.\n        //   2. User receives the pending reward sent to his/her address.\n        //   3. User's `amount` gets updated.\n        //   4. User's `rewardDebt` gets updated.\n    }\n\n    // Info of each pool.\n    struct PoolInfo {\n        IBEP20 lpToken;           // Address of LP token contract.\n        uint256 allocPoint;       // How many allocation points assigned to this pool. ZAIFs to distribute per block.\n        uint256 lastRewardBlock;  // Last block number that ZAIFs distribution occurs.\n        uint256 accZaifPerShare; // Accumulated ZAIFs per share, times 1e12. See below.\n        uint16 depositFeeBP;      // Deposit fee in basis points\n        uint256 totalLp;            // Total Token in Pool\n    }\n\n    // The ZAIF TOKEN!\n    ZaifToken public zaif;\n\n    //On Distribution Dev address.\n    address public devaddr;\n    // Deposit Fee address\n    address public feeAddress;\n    //On Distribution Marketing Address\n    address public marktAddress;\n    //On Distribution Salary Address\n    address public salaryAddress; \n    // ZAIF tokens created per block.\n    uint256 public zaifPerBlock;\n    // Bonus muliplier for early zaif makers.\n    uint256 public BONUS_MULTIPLIER = 1;\n\n    \n    // 10% for Marketing on distribution\n    uint16 public constant blockMktFee = 1000;\n\n    // 4% for salary on distribution\n    uint16 public constant blockSalaryFee = 400;\n\n    // 1% for development on distribution\n    uint16 public constant blockDevFee = 100;\n\n    uint256 currentDevFee = 0;\n    uint256 currentSalaryFee = 0;\n    uint256 currentMarketingFee = 0;\n\n\n    // Info of each pool.\n    PoolInfo[] public poolInfo;\n    // Info of each user that stakes LP tokens.\n    mapping (uint256 => mapping (address => UserInfo)) public userInfo;\n    // Total allocation points. Must be the sum of all allocation points in all pools.\n    uint256 public totalAllocPoint = 0;\n    // The block number when ZAIF mining starts.\n    uint256 public startBlock;\n    // Total ZAIF in ZAIF Pools (can be multiple pools)\n    uint256 public totalZaifInPools = 0;\n\n    event Deposit(address indexed user, uint256 indexed pid, uint256 amount);\n    event Withdraw(address indexed user, uint256 indexed pid, uint256 amount);\n    event EmergencyWithdraw(address indexed user, uint256 indexed pid, uint256 amount);\n    event EmissionRateUpdated(address indexed caller, uint256 previousAmount, uint256 newAmount);\n\n    constructor(\n        ZaifToken _zaif,\n        address _devaddr,\n        address _feeAddress,\n        address _marktAddress,\n        address _salaryAddress,\n        uint256 _zaifPerBlock,\n        uint256 _startBlock,\n        uint256 _multiplier\n\n    ) public {\n        zaif = _zaif;\n        devaddr = _devaddr;\n        feeAddress = _feeAddress;\n        marktAddress = _marktAddress;\n        salaryAddress = _salaryAddress;\n        zaifPerBlock = _zaifPerBlock;\n        startBlock = _startBlock;\n        BONUS_MULTIPLIER = _multiplier;\n\n        totalAllocPoint = 0;\n\n    }\n\n    modifier validatePool(uint256 _pid) {\n        require(_pid < poolInfo.length, \"validatePool: pool exists?\");\n        _;\n    }\n\n    function updateMultiplier(uint256 multiplierNumber) public onlyOwner {\n        BONUS_MULTIPLIER = multiplierNumber;\n    }\n\n    function poolLength() external view returns (uint256) {\n        return poolInfo.length;\n    }\n\n    // Detects whether the given pool already exists\n    function checkPoolDuplicate(IBEP20 _lpToken) public view {\n        uint256 length = poolInfo.length;\n        for (uint256 _pid = 0; _pid < length; _pid++) {\n            require(poolInfo[_pid].lpToken != _lpToken, \"add: existing pool\");\n        }\n    }\n\n    fallback() external payable {\n\n    }\n\n\n    //actual Zaif left in MasterChef can be used in rewards, must excluding all in zaif pools\n    //this function is for safety check \n    function remainRewards() public view returns (uint256) {\n        return zaif.balanceOf(address(this)).sub(totalZaifInPools);\n    }\n\n    //All Zaifs that are not in pools or masterchef reward stack\n    function getCirculatingSupply() external view returns(uint256) {\n        uint256 tSupply = zaif.totalSupply();\n        uint256 zaifBalance = zaif.balanceOf(address(this));\n\n        return tSupply.sub(zaifBalance);    \n    }\n\n\n     // Add a new lp to the pool. Can only be called by the owner.\n    // Can add multiple pool with same lp token without messing up rewards, because each pool's balance is tracked using its own totalLp\n    function add(uint256 _allocPoint, IBEP20 _lpToken, uint16 _depositFeeBP, bool _withUpdate) public onlyOwner {\n       require(_depositFeeBP <= 10000, \"add: invalid deposit fee basis points\");\n        if (_withUpdate) {\n            massUpdatePools();\n        }\n        uint256 lastRewardBlock = block.number > startBlock ? block.number : startBlock;\n        totalAllocPoint = totalAllocPoint.add(_allocPoint);\n        poolInfo.push(PoolInfo({\n        lpToken: _lpToken,\n        allocPoint: _allocPoint,\n        lastRewardBlock: lastRewardBlock,\n        accZaifPerShare: 0,\n        depositFeeBP: _depositFeeBP,\n        totalLp : 0\n        }));\n    }\n\n    // Update the given pool's ZAIF allocation point. Can only be called by the owner.\n    function set(uint256 _pid, uint256 _allocPoint, uint16 _depositFeeBP, bool _withUpdate) public onlyOwner {\n        require(_depositFeeBP <= 10000, \"set: invalid deposit fee basis points\");\n        if (_withUpdate) {\n            massUpdatePools();\n        }\n        totalAllocPoint = totalAllocPoint.sub(poolInfo[_pid].allocPoint).add(_allocPoint);\n        poolInfo[_pid].allocPoint = _allocPoint;\n        poolInfo[_pid].depositFeeBP = _depositFeeBP;\n    }\n\n\n    // Return reward multiplier over the given _from to _to block.\n    function getMultiplier(uint256 _from, uint256 _to) public view returns (uint256) {\n        return _to.sub(_from).mul(BONUS_MULTIPLIER);\n    }\n\n    // View function to see pending ZAIFs on frontend.\n    function pendingZaif(uint256 _pid, address _user) external view returns (uint256) {\n        PoolInfo storage pool = poolInfo[_pid];\n        UserInfo storage user = userInfo[_pid][_user];\n        uint256 accZaifPerShare = pool.accZaifPerShare;\n        //uint256 lpSupply = pool.lpToken.balanceOf(address(this));\n        uint256 lpSupply = pool.totalLp;\n\n        if (block.number > pool.lastRewardBlock && lpSupply != 0) {\n            uint256 multiplier = getMultiplier(pool.lastRewardBlock, block.number);\n            uint256 zaifReward = multiplier.mul(zaifPerBlock).mul(pool.allocPoint).div(totalAllocPoint);\n            uint256 totalRewardFees = zaifReward.mul(1500).div(10000);\n            uint256 zaifRewardUsers = zaifReward.sub(totalRewardFees);\n\n            uint256 totalminted = zaif.totalMinted();\n             \n        if(totalminted >= 170000000000000000000000000){\n         \n            accZaifPerShare = accZaifPerShare;\n\n            }else{\n                accZaifPerShare = accZaifPerShare.add(zaifRewardUsers.mul(1e12).div(lpSupply));\n            }\n\n        }\n  \n         return user.amount.mul(accZaifPerShare).div(1e12).sub(user.rewardDebt);\n\n    }\n\n        // View function to see all locked ZAIFs on frontend.\n        function lockedZaif() external view returns (uint256) {\n            return totalZaifInPools;\n        }\n\n    // Update reward variables for all pools. Be careful of gas spending! \n\n    function massUpdatePools() public {\n       \n        uint256 length = poolInfo.length;\n\n        for (uint256 pid = 0; pid < length; ++pid) {\n            updatePool(pid);\n        }\n         \n    }\n \n    // Update reward variables of the given pool to be up-to-date.\n    function updatePool(uint256 _pid) public validatePool(_pid) {\n        PoolInfo storage pool = poolInfo[_pid];\n       \n        if (block.number <= pool.lastRewardBlock) {\n            return;\n        }\n\n        if (pool.totalLp == 0 || pool.allocPoint == 0) {\n            pool.lastRewardBlock = block.number;\n            return;\n        }\n\n        uint256 multiplier = getMultiplier(pool.lastRewardBlock, block.number);\n        uint256 zaifReward = multiplier.mul(zaifPerBlock).mul(pool.allocPoint).div(totalAllocPoint);\n    \n        uint256 totalRewardFees = zaifReward.mul(1500).div(10000);\n\n        //Total - 15% fees\n        uint256 zaifRewardUsers = zaifReward.sub(totalRewardFees);\n       \n        uint256 totalminted = zaif.totalMinted();\n       \n        if(totalminted >= 170000000000000000000000000){\n         \n            if(currentDevFee > 0 || currentSalaryFee > 0 || currentMarketingFee > 0){\n\n             safeZaifTransfer(devaddr,currentDevFee);\n             safeZaifTransfer(salaryAddress,currentSalaryFee);\n             safeZaifTransfer(marktAddress,currentMarketingFee);\n\n            }\n  \n            pool.accZaifPerShare = pool.accZaifPerShare;\n\n            currentDevFee = 0;\n            currentMarketingFee = 0;\n            currentSalaryFee = 0;\n\n        }else{\n             \n             zaif.mint(address(this),zaifReward);\n\n                if(currentDevFee > 1100000000000000000000){\n                \n                    safeZaifTransfer(devaddr,currentDevFee);\n                    currentDevFee = 0;\n\n                } else if(currentSalaryFee > 1100000000000000000000){\n                    \n                    safeZaifTransfer(salaryAddress,currentSalaryFee);\n                    currentSalaryFee = 0;\n\n                } else if(currentMarketingFee > 2000000000000000000000){\n                    \n                    safeZaifTransfer(marktAddress,currentMarketingFee);\n                    currentMarketingFee = 0;\n\n                }\n\n             }\n\n            //1% dev fee\n            currentDevFee = currentDevFee.add(zaifReward.mul(blockDevFee).div(10000));\n\n            //4% salary fee\n            currentSalaryFee = currentSalaryFee.add(zaifReward.mul(blockSalaryFee).div(10000));\n            \n            //10% marketing fee\n            currentMarketingFee = currentMarketingFee.add(zaifReward.div(10));\n \n            pool.accZaifPerShare = pool.accZaifPerShare.add(zaifRewardUsers.mul(1e12).div(pool.totalLp));\n            pool.lastRewardBlock = block.number;\n\n   }         \n        \n\n    // Deposit LP tokens to MasterZai for ZAIF allocation.\n    function deposit(uint256 _pid, uint256 _amount) public nonReentrant {\n        require(block.number >= startBlock, \"MasterChef:: Can not deposit before farm start\");\n\n        PoolInfo storage pool = poolInfo[_pid];\n        UserInfo storage user = userInfo[_pid][msg.sender];\n       \n\n        updatePool(_pid);      \n        \n\n        if (user.amount > 0) {\n            uint256 pending = user.amount.mul(pool.accZaifPerShare).div(1e12).sub(user.rewardDebt);\n            if(pending > 0) {\n                uint256 currentRewardBalance = remainRewards();\n                if(currentRewardBalance > 0) {\n                    if(pending > currentRewardBalance) {\n                        safeZaifTransfer(msg.sender, currentRewardBalance);\n                    } else {\n                        safeZaifTransfer(msg.sender, pending);\n                    }\n                }\n            }\n        }\n        \n        if (_amount > 0) {\n\n            if (pool.depositFeeBP > 0) {\n\n                uint256 depositFee = _amount.mul(pool.depositFeeBP).div(10000);\n\n                if (address(pool.lpToken) == address(zaif)) {\n                    totalZaifInPools = totalZaifInPools.add(_amount).sub(depositFee);\n                    zaif.transferFrom(address(msg.sender), address(this), _amount);\n                    zaif.transfer(feeAddress, depositFee);\n                } else{\n                    pool.lpToken.safeTransferFrom(address(msg.sender), address(this), _amount);\n                    pool.lpToken.safeTransfer(feeAddress, depositFee);\n                }\n                user.amount = user.amount.add(_amount).sub(depositFee);\n                pool.totalLp = pool.totalLp.add(_amount).sub(depositFee);\n\n            } else {\n                user.amount = user.amount.add(_amount);\n                pool.totalLp = pool.totalLp.add(_amount);\n\n                if (address(pool.lpToken) == address(zaif)) {\n                    totalZaifInPools = totalZaifInPools.add(_amount);\n                    zaif.transferFrom(address(msg.sender), address(this), _amount);\n                }else{\n                    pool.lpToken.safeTransferFrom(address(msg.sender), address(this), _amount);\n                }                \n           }\n        }\n\n        user.rewardDebt = user.amount.mul(pool.accZaifPerShare).div(1e12);\n        emit Deposit(msg.sender, _pid, _amount);\n    }\n\n    // Withdraw LP tokens from MasterZai.\n    function withdraw(uint256 _pid, uint256 _amount) public validatePool(_pid) nonReentrant {\n        PoolInfo storage pool = poolInfo[_pid];\n        UserInfo storage user = userInfo[_pid][msg.sender];\n        require(user.amount >= _amount, \"withdraw: not good\");\n        //this will make sure that user can only withdraw from his pool\n        //cannot withdraw more than pool's balance and from MasterChef's token\n        require(pool.totalLp >= _amount, \"Withdraw: Pool total LP not enough\");\n\n\n        updatePool(_pid);      \n        \n\n        uint256 pending = user.amount.mul(pool.accZaifPerShare).div(1e12).sub(user.rewardDebt);\n            if(pending > 0) {\n                uint256 currentRewardBalance = remainRewards();\n                if(currentRewardBalance > 0) {\n                    if(pending > currentRewardBalance) {\n                        safeZaifTransfer(msg.sender, currentRewardBalance);\n                    } else {\n                        safeZaifTransfer(msg.sender, pending);\n                    }\n                }\n            }\n            \n        if(_amount > 0) {\n                \n             if (address(pool.lpToken) == address(zaif)) {\n      \n                 uint256 zaifBal = zaif.balanceOf(address(this));\n\n                 require(_amount <= zaifBal,'withdraw: not good');    \n\n                if(_amount >= totalZaifInPools){\n                    totalZaifInPools = 0;\n                }else{\n                    require(totalZaifInPools >= _amount,'amount bigger than pool wut?');\n                    totalZaifInPools = totalZaifInPools.sub(_amount);\n                }  \n\n                zaif.transfer(address(msg.sender), _amount);\n                \n            } else {\n                pool.lpToken.safeTransfer(address(msg.sender), _amount);\n            }\n        }\n        \n        user.amount = user.amount.sub(_amount);\n        pool.totalLp = pool.totalLp.sub(_amount);\n        user.rewardDebt = user.amount.mul(pool.accZaifPerShare).div(1e12);\n        \n        emit Withdraw(msg.sender, _pid, _amount);\n\n    }\n\n\n    // Withdraw without caring about rewards. EMERGENCY ONLY.\n    function emergencyWithdraw(uint256 _pid) public nonReentrant {\n        PoolInfo storage pool = poolInfo[_pid];\n        UserInfo storage user = userInfo[_pid][msg.sender];\n        uint256 amount = user.amount;\n        require(pool.totalLp >= amount, \"EmergencyWithdraw: Pool total LP not enough\");\n\n        if (address(pool.lpToken) == address(zaif)) {\n          \n            uint256 zaifBal = zaif.balanceOf(address(this));\n\n            require(amount <= zaifBal,'withdraw: not good'); \n\n            if(amount >= totalZaifInPools){\n                totalZaifInPools = 0;\n            }else{\n                require(totalZaifInPools >= amount,'amount bigger than pool wut?');\n                totalZaifInPools = totalZaifInPools.sub(amount);\n            }  \n\n            zaif.transfer(address(msg.sender), amount);\n\n        }else{ \n            pool.lpToken.safeTransfer(address(msg.sender), amount);\n        }\n\n        user.amount = 0;\n        user.rewardDebt = 0;\n        pool.totalLp = pool.totalLp.sub(amount);\n\n        emit EmergencyWithdraw(msg.sender, _pid, amount);\n\n    }\n\n    function getPoolInfo(uint256 _pid) public view\n    returns(address lpToken, uint256 allocPoint, uint256 lastRewardBlock, uint256 accZaifPerShare, uint16 depositFeeBP, uint256 totalLp) {\n        return (address(poolInfo[_pid].lpToken),\n             poolInfo[_pid].allocPoint,\n             poolInfo[_pid].lastRewardBlock,\n             poolInfo[_pid].accZaifPerShare,\n             poolInfo[_pid].depositFeeBP,\n             poolInfo[_pid].totalLp);\n    }\n\n    // Safe zaif transfer function, just in case if rounding error causes pool to not have enough ZAIFs.\n    function safeZaifTransfer(address _to, uint256 _amount) internal {\n        if(zaif.balanceOf(address(this)) > totalZaifInPools){\n            //zaifBal = total zaif in MasterChef - total zaif in zaif pools, this will make sure that MasterChef never transfer rewards from deposited zaif pools\n            uint256 zaifBal = zaif.balanceOf(address(this)).sub(totalZaifInPools);\n            if (_amount >= zaifBal) {\n                zaif.transfer(_to, zaifBal);\n            } else if (_amount > 0) {\n                zaif.transfer(_to, _amount);\n            }\n        }\n    }\n\n    // Update dev address by the previous dev.\n    function dev(address _devaddr) public {\n        require(msg.sender == devaddr, \"dev: wut?\");\n        devaddr = _devaddr;\n    }\n\n     function setFeeAddress(address _feeAddress) public {\n        require(msg.sender == feeAddress, \"setFeeAddress: FORBIDDEN\");\n        feeAddress = _feeAddress;\n    }\n\n    // Pancake has to add hidden dummy pools in order to alter the emission, here we make it simple and transparent to all.\n    function updateEmissionRate(uint256 _zaifPerBlock) public onlyOwner {\n        massUpdatePools();\n        emit EmissionRateUpdated(msg.sender, zaifPerBlock, _zaifPerBlock);\n        zaifPerBlock = _zaifPerBlock;\n    }\n\n}\n",
  "sourcePath": "/mnt/c/Users/AMD Ryzen/Downloads/blockchain projects/pancakeFork/Zaigar Project/definitive files/zai-finance-farm-master/contracts/MasterZai.sol",
  "compiler": {
    "name": "solc",
    "version": "0.6.12+commit.27d51765.Emscripten.clang"
  },
  "schemaVersion": "3.4.1",
  "updatedAt": "2021-07-11T22:27:51.263Z",
  "networkType": "ethereum",
  "devdoc": {
    "kind": "dev",
    "methods": {
      "owner()": {
        "details": "Returns the address of the current owner."
      },
      "renounceOwnership()": {
        "details": "Leaves the contract without owner. It will not be possible to call `onlyOwner` functions anymore. Can only be called by the current owner. NOTE: Renouncing ownership will leave the contract without an owner, thereby removing any functionality that is only available to the owner."
      },
      "transferOwnership(address)": {
        "details": "Transfers ownership of the contract to a new account (`newOwner`). Can only be called by the current owner."
      }
    },
    "version": 1
  },
  "userdoc": {
    "kind": "user",
    "methods": {},
    "version": 1
  }
}