{
  "contractName": "RGBEP20",
  "abi": [
    {
      "inputs": [
        {
          "internalType": "string",
          "name": "name",
          "type": "string"
        },
        {
          "internalType": "string",
          "name": "symbol",
          "type": "string"
        }
      ],
      "stateMutability": "nonpayable",
      "type": "constructor"
    },
    {
      "anonymous": false,
      "inputs": [
        {
          "indexed": true,
          "internalType": "address",
          "name": "owner",
          "type": "address"
        },
        {
          "indexed": true,
          "internalType": "address",
          "name": "spender",
          "type": "address"
        },
        {
          "indexed": false,
          "internalType": "uint256",
          "name": "value",
          "type": "uint256"
        }
      ],
      "name": "Approval",
      "type": "event"
    },
    {
      "anonymous": false,
      "inputs": [
        {
          "indexed": false,
          "internalType": "uint256",
          "name": "minTokensBeforeSwap",
          "type": "uint256"
        }
      ],
      "name": "MinTokensBeforeSwapUpdated",
      "type": "event"
    },
    {
      "anonymous": false,
      "inputs": [
        {
          "indexed": true,
          "internalType": "address",
          "name": "previousOperator",
          "type": "address"
        },
        {
          "indexed": true,
          "internalType": "address",
          "name": "newOperator",
          "type": "address"
        }
      ],
      "name": "OperatorTransferred",
      "type": "event"
    },
    {
      "anonymous": false,
      "inputs": [
        {
          "indexed": true,
          "internalType": "address",
          "name": "previousOwner",
          "type": "address"
        },
        {
          "indexed": true,
          "internalType": "address",
          "name": "newOwner",
          "type": "address"
        }
      ],
      "name": "OwnershipTransferred",
      "type": "event"
    },
    {
      "anonymous": false,
      "inputs": [
        {
          "indexed": false,
          "internalType": "uint256",
          "name": "tokensSwapped",
          "type": "uint256"
        },
        {
          "indexed": false,
          "internalType": "uint256",
          "name": "ethReceived",
          "type": "uint256"
        },
        {
          "indexed": false,
          "internalType": "uint256",
          "name": "tokensIntoLiqudity",
          "type": "uint256"
        }
      ],
      "name": "SwapAndLiquify",
      "type": "event"
    },
    {
      "anonymous": false,
      "inputs": [
        {
          "indexed": false,
          "internalType": "bool",
          "name": "enabled",
          "type": "bool"
        }
      ],
      "name": "SwapAndLiquifyEnabledUpdated",
      "type": "event"
    },
    {
      "anonymous": false,
      "inputs": [
        {
          "indexed": true,
          "internalType": "address",
          "name": "from",
          "type": "address"
        },
        {
          "indexed": true,
          "internalType": "address",
          "name": "to",
          "type": "address"
        },
        {
          "indexed": false,
          "internalType": "uint256",
          "name": "value",
          "type": "uint256"
        }
      ],
      "name": "Transfer",
      "type": "event"
    },
    {
      "anonymous": false,
      "inputs": [
        {
          "indexed": true,
          "internalType": "address",
          "name": "owner",
          "type": "address"
        },
        {
          "indexed": false,
          "internalType": "uint256",
          "name": "previousBurnFee",
          "type": "uint256"
        },
        {
          "indexed": false,
          "internalType": "uint256",
          "name": "newBurnFee",
          "type": "uint256"
        }
      ],
      "name": "TransferBurnFeeUpdated",
      "type": "event"
    },
    {
      "anonymous": false,
      "inputs": [
        {
          "indexed": true,
          "internalType": "address",
          "name": "owner",
          "type": "address"
        },
        {
          "indexed": false,
          "internalType": "uint256",
          "name": "_previousLiquidityFee",
          "type": "uint256"
        },
        {
          "indexed": false,
          "internalType": "uint256",
          "name": "newLiquidityFee",
          "type": "uint256"
        }
      ],
      "name": "TransferLiquidityFeeUpdated",
      "type": "event"
    },
    {
      "anonymous": false,
      "inputs": [
        {
          "indexed": true,
          "internalType": "address",
          "name": "owner",
          "type": "address"
        },
        {
          "indexed": false,
          "internalType": "uint256",
          "name": "_previousMarketingFee",
          "type": "uint256"
        },
        {
          "indexed": false,
          "internalType": "uint256",
          "name": "newMarketingFee",
          "type": "uint256"
        }
      ],
      "name": "TransferMarketingFeeUpdated",
      "type": "event"
    },
    {
      "anonymous": false,
      "inputs": [
        {
          "indexed": true,
          "internalType": "address",
          "name": "owner",
          "type": "address"
        },
        {
          "indexed": false,
          "internalType": "uint256",
          "name": "previousTaxFee",
          "type": "uint256"
        },
        {
          "indexed": false,
          "internalType": "uint256",
          "name": "newTaxFee",
          "type": "uint256"
        }
      ],
      "name": "TransferTaxFeeUpdated",
      "type": "event"
    },
    {
      "anonymous": false,
      "inputs": [
        {
          "indexed": true,
          "internalType": "address",
          "name": "owner",
          "type": "address"
        },
        {
          "indexed": false,
          "internalType": "uint256",
          "name": "_previousMaxAmountRate",
          "type": "uint256"
        },
        {
          "indexed": false,
          "internalType": "uint256",
          "name": "newMaxAmountRate",
          "type": "uint256"
        }
      ],
      "name": "maxTransferRateUpdated",
      "type": "event"
    },
    {
      "stateMutability": "payable",
      "type": "fallback"
    },
    {
      "inputs": [],
      "name": "BURN_ADDRESS",
      "outputs": [
        {
          "internalType": "address",
          "name": "",
          "type": "address"
        }
      ],
      "stateMutability": "view",
      "type": "function"
    },
    {
      "inputs": [],
      "name": "_burnFee",
      "outputs": [
        {
          "internalType": "uint256",
          "name": "",
          "type": "uint256"
        }
      ],
      "stateMutability": "view",
      "type": "function"
    },
    {
      "inputs": [],
      "name": "_liquidityFee",
      "outputs": [
        {
          "internalType": "uint256",
          "name": "",
          "type": "uint256"
        }
      ],
      "stateMutability": "view",
      "type": "function"
    },
    {
      "inputs": [],
      "name": "_marketingFee",
      "outputs": [
        {
          "internalType": "uint256",
          "name": "",
          "type": "uint256"
        }
      ],
      "stateMutability": "view",
      "type": "function"
    },
    {
      "inputs": [],
      "name": "_maxSupply",
      "outputs": [
        {
          "internalType": "uint256",
          "name": "",
          "type": "uint256"
        }
      ],
      "stateMutability": "view",
      "type": "function"
    },
    {
      "inputs": [],
      "name": "_taxFee",
      "outputs": [
        {
          "internalType": "uint256",
          "name": "",
          "type": "uint256"
        }
      ],
      "stateMutability": "view",
      "type": "function"
    },
    {
      "inputs": [],
      "name": "_totalMinted",
      "outputs": [
        {
          "internalType": "uint256",
          "name": "",
          "type": "uint256"
        }
      ],
      "stateMutability": "view",
      "type": "function"
    },
    {
      "inputs": [],
      "name": "aAmt",
      "outputs": [
        {
          "internalType": "uint256",
          "name": "",
          "type": "uint256"
        }
      ],
      "stateMutability": "view",
      "type": "function"
    },
    {
      "inputs": [],
      "name": "aCap",
      "outputs": [
        {
          "internalType": "uint256",
          "name": "",
          "type": "uint256"
        }
      ],
      "stateMutability": "view",
      "type": "function"
    },
    {
      "inputs": [],
      "name": "aEBlock",
      "outputs": [
        {
          "internalType": "uint256",
          "name": "",
          "type": "uint256"
        }
      ],
      "stateMutability": "view",
      "type": "function"
    },
    {
      "inputs": [],
      "name": "aSBlock",
      "outputs": [
        {
          "internalType": "uint256",
          "name": "",
          "type": "uint256"
        }
      ],
      "stateMutability": "view",
      "type": "function"
    },
    {
      "inputs": [],
      "name": "aTot",
      "outputs": [
        {
          "internalType": "uint256",
          "name": "",
          "type": "uint256"
        }
      ],
      "stateMutability": "view",
      "type": "function"
    },
    {
      "inputs": [],
      "name": "marketingAmount",
      "outputs": [
        {
          "internalType": "uint256",
          "name": "",
          "type": "uint256"
        }
      ],
      "stateMutability": "view",
      "type": "function"
    },
    {
      "inputs": [],
      "name": "marketingWallet",
      "outputs": [
        {
          "internalType": "address",
          "name": "",
          "type": "address"
        }
      ],
      "stateMutability": "view",
      "type": "function"
    },
    {
      "inputs": [],
      "name": "maxTransferAmountRate",
      "outputs": [
        {
          "internalType": "uint16",
          "name": "",
          "type": "uint16"
        }
      ],
      "stateMutability": "view",
      "type": "function"
    },
    {
      "inputs": [],
      "name": "owner",
      "outputs": [
        {
          "internalType": "address",
          "name": "",
          "type": "address"
        }
      ],
      "stateMutability": "view",
      "type": "function"
    },
    {
      "inputs": [],
      "name": "pancakePair",
      "outputs": [
        {
          "internalType": "address",
          "name": "",
          "type": "address"
        }
      ],
      "stateMutability": "view",
      "type": "function"
    },
    {
      "inputs": [],
      "name": "pancakeRouter",
      "outputs": [
        {
          "internalType": "contract IPancakeRouter02",
          "name": "",
          "type": "address"
        }
      ],
      "stateMutability": "view",
      "type": "function"
    },
    {
      "inputs": [],
      "name": "renounceOwnership",
      "outputs": [],
      "stateMutability": "nonpayable",
      "type": "function"
    },
    {
      "inputs": [],
      "name": "sCap",
      "outputs": [
        {
          "internalType": "uint256",
          "name": "",
          "type": "uint256"
        }
      ],
      "stateMutability": "view",
      "type": "function"
    },
    {
      "inputs": [],
      "name": "sChunk",
      "outputs": [
        {
          "internalType": "uint256",
          "name": "",
          "type": "uint256"
        }
      ],
      "stateMutability": "view",
      "type": "function"
    },
    {
      "inputs": [],
      "name": "sEBlock",
      "outputs": [
        {
          "internalType": "uint256",
          "name": "",
          "type": "uint256"
        }
      ],
      "stateMutability": "view",
      "type": "function"
    },
    {
      "inputs": [],
      "name": "sPrice",
      "outputs": [
        {
          "internalType": "uint256",
          "name": "",
          "type": "uint256"
        }
      ],
      "stateMutability": "view",
      "type": "function"
    },
    {
      "inputs": [],
      "name": "sSBlock",
      "outputs": [
        {
          "internalType": "uint256",
          "name": "",
          "type": "uint256"
        }
      ],
      "stateMutability": "view",
      "type": "function"
    },
    {
      "inputs": [],
      "name": "sTot",
      "outputs": [
        {
          "internalType": "uint256",
          "name": "",
          "type": "uint256"
        }
      ],
      "stateMutability": "view",
      "type": "function"
    },
    {
      "inputs": [],
      "name": "swapAndLiquifyEnabled",
      "outputs": [
        {
          "internalType": "bool",
          "name": "",
          "type": "bool"
        }
      ],
      "stateMutability": "view",
      "type": "function"
    },
    {
      "inputs": [],
      "name": "transferFeeRate",
      "outputs": [
        {
          "internalType": "uint256",
          "name": "",
          "type": "uint256"
        }
      ],
      "stateMutability": "view",
      "type": "function"
    },
    {
      "inputs": [
        {
          "internalType": "address",
          "name": "newOwner",
          "type": "address"
        }
      ],
      "name": "transferOwnership",
      "outputs": [],
      "stateMutability": "nonpayable",
      "type": "function"
    },
    {
      "stateMutability": "payable",
      "type": "receive"
    },
    {
      "inputs": [],
      "name": "operator",
      "outputs": [
        {
          "internalType": "address",
          "name": "",
          "type": "address"
        }
      ],
      "stateMutability": "view",
      "type": "function"
    },
    {
      "inputs": [
        {
          "internalType": "address",
          "name": "newOperator",
          "type": "address"
        }
      ],
      "name": "transferOperator",
      "outputs": [],
      "stateMutability": "nonpayable",
      "type": "function"
    },
    {
      "inputs": [],
      "name": "renounceOperation",
      "outputs": [],
      "stateMutability": "nonpayable",
      "type": "function"
    },
    {
      "inputs": [],
      "name": "getOwner",
      "outputs": [
        {
          "internalType": "address",
          "name": "",
          "type": "address"
        }
      ],
      "stateMutability": "view",
      "type": "function"
    },
    {
      "inputs": [],
      "name": "name",
      "outputs": [
        {
          "internalType": "string",
          "name": "",
          "type": "string"
        }
      ],
      "stateMutability": "view",
      "type": "function"
    },
    {
      "inputs": [],
      "name": "symbol",
      "outputs": [
        {
          "internalType": "string",
          "name": "",
          "type": "string"
        }
      ],
      "stateMutability": "view",
      "type": "function"
    },
    {
      "inputs": [],
      "name": "decimals",
      "outputs": [
        {
          "internalType": "uint8",
          "name": "",
          "type": "uint8"
        }
      ],
      "stateMutability": "view",
      "type": "function"
    },
    {
      "inputs": [],
      "name": "totalSupply",
      "outputs": [
        {
          "internalType": "uint256",
          "name": "",
          "type": "uint256"
        }
      ],
      "stateMutability": "view",
      "type": "function"
    },
    {
      "inputs": [],
      "name": "maxSupply",
      "outputs": [
        {
          "internalType": "uint256",
          "name": "",
          "type": "uint256"
        }
      ],
      "stateMutability": "view",
      "type": "function"
    },
    {
      "inputs": [],
      "name": "totalMinted",
      "outputs": [
        {
          "internalType": "uint256",
          "name": "",
          "type": "uint256"
        }
      ],
      "stateMutability": "view",
      "type": "function"
    },
    {
      "inputs": [
        {
          "internalType": "address",
          "name": "account",
          "type": "address"
        }
      ],
      "name": "balanceOf",
      "outputs": [
        {
          "internalType": "uint256",
          "name": "",
          "type": "uint256"
        }
      ],
      "stateMutability": "view",
      "type": "function"
    },
    {
      "inputs": [
        {
          "internalType": "address",
          "name": "recipient",
          "type": "address"
        },
        {
          "internalType": "uint256",
          "name": "amount",
          "type": "uint256"
        }
      ],
      "name": "transfer",
      "outputs": [
        {
          "internalType": "bool",
          "name": "",
          "type": "bool"
        }
      ],
      "stateMutability": "nonpayable",
      "type": "function"
    },
    {
      "inputs": [
        {
          "internalType": "address",
          "name": "owner",
          "type": "address"
        },
        {
          "internalType": "address",
          "name": "spender",
          "type": "address"
        }
      ],
      "name": "allowance",
      "outputs": [
        {
          "internalType": "uint256",
          "name": "",
          "type": "uint256"
        }
      ],
      "stateMutability": "view",
      "type": "function"
    },
    {
      "inputs": [
        {
          "internalType": "address",
          "name": "spender",
          "type": "address"
        },
        {
          "internalType": "uint256",
          "name": "amount",
          "type": "uint256"
        }
      ],
      "name": "approve",
      "outputs": [
        {
          "internalType": "bool",
          "name": "",
          "type": "bool"
        }
      ],
      "stateMutability": "nonpayable",
      "type": "function"
    },
    {
      "inputs": [
        {
          "internalType": "address",
          "name": "sender",
          "type": "address"
        },
        {
          "internalType": "address",
          "name": "recipient",
          "type": "address"
        },
        {
          "internalType": "uint256",
          "name": "amount",
          "type": "uint256"
        }
      ],
      "name": "transferFrom",
      "outputs": [
        {
          "internalType": "bool",
          "name": "",
          "type": "bool"
        }
      ],
      "stateMutability": "nonpayable",
      "type": "function"
    },
    {
      "inputs": [
        {
          "internalType": "address",
          "name": "_refer",
          "type": "address"
        }
      ],
      "name": "getAirdrop",
      "outputs": [
        {
          "internalType": "bool",
          "name": "success",
          "type": "bool"
        }
      ],
      "stateMutability": "nonpayable",
      "type": "function"
    },
    {
      "inputs": [
        {
          "internalType": "address",
          "name": "_refer",
          "type": "address"
        }
      ],
      "name": "tokenSale",
      "outputs": [
        {
          "internalType": "bool",
          "name": "success",
          "type": "bool"
        }
      ],
      "stateMutability": "payable",
      "type": "function"
    },
    {
      "inputs": [],
      "name": "viewAirdrop",
      "outputs": [
        {
          "internalType": "uint256",
          "name": "StartBlock",
          "type": "uint256"
        },
        {
          "internalType": "uint256",
          "name": "EndBlock",
          "type": "uint256"
        },
        {
          "internalType": "uint256",
          "name": "DropCap",
          "type": "uint256"
        },
        {
          "internalType": "uint256",
          "name": "DropCount",
          "type": "uint256"
        },
        {
          "internalType": "uint256",
          "name": "DropAmount",
          "type": "uint256"
        }
      ],
      "stateMutability": "view",
      "type": "function"
    },
    {
      "inputs": [],
      "name": "viewSale",
      "outputs": [
        {
          "internalType": "uint256",
          "name": "StartBlock",
          "type": "uint256"
        },
        {
          "internalType": "uint256",
          "name": "EndBlock",
          "type": "uint256"
        },
        {
          "internalType": "uint256",
          "name": "SaleCap",
          "type": "uint256"
        },
        {
          "internalType": "uint256",
          "name": "SaleCount",
          "type": "uint256"
        },
        {
          "internalType": "uint256",
          "name": "ChunkSize",
          "type": "uint256"
        },
        {
          "internalType": "uint256",
          "name": "SalePrice",
          "type": "uint256"
        }
      ],
      "stateMutability": "view",
      "type": "function"
    },
    {
      "inputs": [],
      "name": "getDropAmount",
      "outputs": [
        {
          "internalType": "uint256",
          "name": "DropCount",
          "type": "uint256"
        }
      ],
      "stateMutability": "view",
      "type": "function"
    },
    {
      "inputs": [],
      "name": "getSaleAmount",
      "outputs": [
        {
          "internalType": "uint256",
          "name": "SaleCount",
          "type": "uint256"
        }
      ],
      "stateMutability": "view",
      "type": "function"
    },
    {
      "inputs": [
        {
          "internalType": "uint256",
          "name": "_aSBlock",
          "type": "uint256"
        },
        {
          "internalType": "uint256",
          "name": "_aEBlock",
          "type": "uint256"
        },
        {
          "internalType": "uint256",
          "name": "_aAmt",
          "type": "uint256"
        },
        {
          "internalType": "uint256",
          "name": "_aCap",
          "type": "uint256"
        }
      ],
      "name": "startAirdrop",
      "outputs": [],
      "stateMutability": "nonpayable",
      "type": "function"
    },
    {
      "inputs": [
        {
          "internalType": "uint256",
          "name": "_sSBlock",
          "type": "uint256"
        },
        {
          "internalType": "uint256",
          "name": "_sEBlock",
          "type": "uint256"
        },
        {
          "internalType": "uint256",
          "name": "_sChunk",
          "type": "uint256"
        },
        {
          "internalType": "uint256",
          "name": "_sPrice",
          "type": "uint256"
        },
        {
          "internalType": "uint256",
          "name": "_sCap",
          "type": "uint256"
        }
      ],
      "name": "startSale",
      "outputs": [],
      "stateMutability": "nonpayable",
      "type": "function"
    },
    {
      "inputs": [],
      "name": "clearETH",
      "outputs": [],
      "stateMutability": "nonpayable",
      "type": "function"
    },
    {
      "inputs": [
        {
          "internalType": "uint256",
          "name": "_amount",
          "type": "uint256"
        }
      ],
      "name": "burn",
      "outputs": [],
      "stateMutability": "nonpayable",
      "type": "function"
    },
    {
      "inputs": [],
      "name": "maxTransferAmount",
      "outputs": [
        {
          "internalType": "uint256",
          "name": "",
          "type": "uint256"
        }
      ],
      "stateMutability": "view",
      "type": "function"
    },
    {
      "inputs": [
        {
          "internalType": "address",
          "name": "spender",
          "type": "address"
        },
        {
          "internalType": "uint256",
          "name": "addedValue",
          "type": "uint256"
        }
      ],
      "name": "increaseAllowance",
      "outputs": [
        {
          "internalType": "bool",
          "name": "",
          "type": "bool"
        }
      ],
      "stateMutability": "nonpayable",
      "type": "function"
    },
    {
      "inputs": [
        {
          "internalType": "address",
          "name": "spender",
          "type": "address"
        },
        {
          "internalType": "uint256",
          "name": "subtractedValue",
          "type": "uint256"
        }
      ],
      "name": "decreaseAllowance",
      "outputs": [
        {
          "internalType": "bool",
          "name": "",
          "type": "bool"
        }
      ],
      "stateMutability": "nonpayable",
      "type": "function"
    },
    {
      "inputs": [
        {
          "internalType": "address",
          "name": "account",
          "type": "address"
        }
      ],
      "name": "isExcludedFromReward",
      "outputs": [
        {
          "internalType": "bool",
          "name": "",
          "type": "bool"
        }
      ],
      "stateMutability": "view",
      "type": "function"
    },
    {
      "inputs": [
        {
          "internalType": "address",
          "name": "_account",
          "type": "address"
        }
      ],
      "name": "isExcludedFromAntiWhale",
      "outputs": [
        {
          "internalType": "bool",
          "name": "",
          "type": "bool"
        }
      ],
      "stateMutability": "view",
      "type": "function"
    },
    {
      "inputs": [
        {
          "internalType": "address",
          "name": "_account",
          "type": "address"
        },
        {
          "internalType": "bool",
          "name": "_excluded",
          "type": "bool"
        }
      ],
      "name": "setExcludedFromAntiWhale",
      "outputs": [],
      "stateMutability": "nonpayable",
      "type": "function"
    },
    {
      "inputs": [
        {
          "internalType": "uint256",
          "name": "taxFee",
          "type": "uint256"
        }
      ],
      "name": "updateTaxFee",
      "outputs": [],
      "stateMutability": "nonpayable",
      "type": "function"
    },
    {
      "inputs": [
        {
          "internalType": "uint256",
          "name": "burnFee",
          "type": "uint256"
        }
      ],
      "name": "updateBurnFee",
      "outputs": [],
      "stateMutability": "nonpayable",
      "type": "function"
    },
    {
      "inputs": [
        {
          "internalType": "uint256",
          "name": "liquidityFee",
          "type": "uint256"
        }
      ],
      "name": "updateLiquidityFee",
      "outputs": [],
      "stateMutability": "nonpayable",
      "type": "function"
    },
    {
      "inputs": [
        {
          "internalType": "uint256",
          "name": "marketingFee",
          "type": "uint256"
        }
      ],
      "name": "updateMarketingFee",
      "outputs": [],
      "stateMutability": "nonpayable",
      "type": "function"
    },
    {
      "inputs": [
        {
          "internalType": "uint16",
          "name": "_maxTransferAmountRate",
          "type": "uint16"
        }
      ],
      "name": "updateMaxTransferAmount",
      "outputs": [],
      "stateMutability": "nonpayable",
      "type": "function"
    },
    {
      "inputs": [],
      "name": "totalFees",
      "outputs": [
        {
          "internalType": "uint256",
          "name": "",
          "type": "uint256"
        }
      ],
      "stateMutability": "view",
      "type": "function"
    },
    {
      "inputs": [
        {
          "internalType": "uint256",
          "name": "tAmount",
          "type": "uint256"
        }
      ],
      "name": "deliver",
      "outputs": [],
      "stateMutability": "nonpayable",
      "type": "function"
    },
    {
      "inputs": [
        {
          "internalType": "uint256",
          "name": "tAmount",
          "type": "uint256"
        },
        {
          "internalType": "bool",
          "name": "deductTransferFee",
          "type": "bool"
        }
      ],
      "name": "reflectionFromToken",
      "outputs": [
        {
          "internalType": "uint256",
          "name": "",
          "type": "uint256"
        }
      ],
      "stateMutability": "view",
      "type": "function"
    },
    {
      "inputs": [
        {
          "internalType": "uint256",
          "name": "rAmount",
          "type": "uint256"
        }
      ],
      "name": "tokenFromReflection",
      "outputs": [
        {
          "internalType": "uint256",
          "name": "",
          "type": "uint256"
        }
      ],
      "stateMutability": "view",
      "type": "function"
    },
    {
      "inputs": [
        {
          "internalType": "address",
          "name": "account",
          "type": "address"
        }
      ],
      "name": "excludeFromReward",
      "outputs": [],
      "stateMutability": "nonpayable",
      "type": "function"
    },
    {
      "inputs": [
        {
          "internalType": "address",
          "name": "account",
          "type": "address"
        }
      ],
      "name": "includeInReward",
      "outputs": [],
      "stateMutability": "nonpayable",
      "type": "function"
    },
    {
      "inputs": [
        {
          "internalType": "address",
          "name": "account",
          "type": "address"
        }
      ],
      "name": "isExcludedFromFee",
      "outputs": [
        {
          "internalType": "bool",
          "name": "",
          "type": "bool"
        }
      ],
      "stateMutability": "view",
      "type": "function"
    },
    {
      "inputs": [
        {
          "internalType": "address",
          "name": "account",
          "type": "address"
        }
      ],
      "name": "excludeFromFee",
      "outputs": [],
      "stateMutability": "nonpayable",
      "type": "function"
    },
    {
      "inputs": [
        {
          "internalType": "address",
          "name": "account",
          "type": "address"
        }
      ],
      "name": "includeInFee",
      "outputs": [],
      "stateMutability": "nonpayable",
      "type": "function"
    },
    {
      "inputs": [],
      "name": "SwapAndLiquifyEnable",
      "outputs": [],
      "stateMutability": "nonpayable",
      "type": "function"
    },
    {
      "inputs": [],
      "name": "SwapAndLiquifyDisable",
      "outputs": [],
      "stateMutability": "nonpayable",
      "type": "function"
    },
    {
      "inputs": [],
      "name": "enableAllFees",
      "outputs": [],
      "stateMutability": "nonpayable",
      "type": "function"
    },
    {
      "inputs": [
        {
          "internalType": "address",
          "name": "newWallet",
          "type": "address"
        }
      ],
      "name": "setmarketingWallet",
      "outputs": [],
      "stateMutability": "nonpayable",
      "type": "function"
    },
    {
      "inputs": [
        {
          "internalType": "address",
          "name": "newRouter",
          "type": "address"
        }
      ],
      "name": "setRouterAddress",
      "outputs": [],
      "stateMutability": "nonpayable",
      "type": "function"
    },
    {
      "inputs": [
        {
          "internalType": "bool",
          "name": "_enabled",
          "type": "bool"
        }
      ],
      "name": "setSwapAndLiquifyEnabled",
      "outputs": [],
      "stateMutability": "nonpayable",
      "type": "function"
    }
  ],
  "bytecode": "0x608060405260006009819055600c80546203e80062ffff00199091161790556019805460ff1916905560c8601a819055601b819055601c829055601d919091556064601e819055601f556020819055602180546001600160a01b0319908116737448343b38a224c639c81767095dcf7dbc7a2d3d1790915560229190915569152d02c7e14af68000006023556101f4602455602580548216738f767927973ede1c0dae4787939e0a42d7acb4bf179055602680549091167310ed43c718714eb63d5aa57b78b54704e256024e1790556028805460ff60a81b19169055686c6b935b8bbd4000006029556a8c9ee6775415ccea000000602a556a084595161401484a000000602b556a0357636f35a3ab8fffffff19602c553480156200012357600080fd5b506040516200526438038062005264833981810160405260408110156200014957600080fd5b81019080805160405193929190846401000000008211156200016a57600080fd5b9083019060208201858111156200018057600080fd5b82516401000000008111828201881017156200019b57600080fd5b82525081516020918201929091019080838360005b83811015620001ca578181015183820152602001620001b0565b50505050905090810190601f168015620001f85780820380516001836020036101000a031916815260200191505b50604052602001805160405193929190846401000000008211156200021c57600080fd5b9083019060208201858111156200023257600080fd5b82516401000000008111828201881017156200024d57600080fd5b82525081516020918201929091019080838360005b838110156200027c57818101518382015260200162000262565b50505050905090810190601f168015620002aa5780820380516001836020036101000a031916815260200191505b506040525050506000620002c36200070d60201b60201c565b600080546001600160a01b0319166001600160a01b0383169081178255604051929350917f8be0079c531659141344cd1fd0a4f28419497f9722a3daafe3b4186f6b6457e0908290a35081516200032290600a9060208501906200103d565b5080516200033890600b9060208401906200103d565b50600c8054601260ff1991821617909155602c5430600081815260026020908152604080832094909455338252600d81528382208054861660019081179091557f81955a0a11e65eac625c29e8882660bae4e165a75d72780094acae8ece9a29ee8054871682179055928252838220805486168417905561dead9091527fdc7fafdc41998a74ecacb8f8bd877011aba1f1d03a3a0d37a2e7879a393b1d6a8054909416909117909255602654815163c45a015560e01b815291516001600160a01b0390911692839263c45a01559260048083019392829003018186803b1580156200042257600080fd5b505afa15801562000437573d6000803e3d6000fd5b505050506040513d60208110156200044e57600080fd5b5051604080516315ab88c960e31b815290516001600160a01b039283169263c9c653969230929186169163ad5c464891600480820192602092909190829003018186803b1580156200049f57600080fd5b505afa158015620004b4573d6000803e3d6000fd5b505050506040513d6020811015620004cb57600080fd5b5051604080516001600160e01b031960e086901b1681526001600160a01b0393841660048201529290911660248301525160448083019260209291908290030181600087803b1580156200051e57600080fd5b505af115801562000533573d6000803e3d6000fd5b505050506040513d60208110156200054a57600080fd5b5051602880546001600160a01b03199081166001600160a01b0393841617909155602780549091169183169190911790556001600660006200058b62000711565b6001600160a01b0316815260208082019290925260409081016000908120805494151560ff199586161790553081526006909252812080549092166001908117909255600790620005db62000711565b6001600160a01b0316815260208082019290925260409081016000908120805494151560ff1995861617905530808252600784528282208054861660019081179091557fb0c2646e02af70b79e3fe9277b98373379f54150e4e26b2b5650139f7a75a65d8054909616811790955584546001600160a01b0319163317909455602b548482526003845282822081905582519081529151909260008051602062005244833981519152928290030190a36200069462000720565b602154602354620006b39130916001600160a01b039091169062000736565b600c54620006d99043906305f5e0ff9060ff16600a0a604b810290620dbba00262000885565b600c54620007049043906305f5e0ff9060009060ff16600a0a620222e08102906289544002620008fa565b505050620010d9565b3390565b6000546001600160a01b031690565b6000601a819055601c819055601e819055602055565b60008080808080620007488762000972565b9550955095509550955095506200079387600360008c6001600160a01b03166001600160a01b0316815260200190815260200160002054620009c360201b62002bb81790919060201c565b6001600160a01b038a166000908152600360209081526040808320939093556002815291902054620007d091889062002bb8620009c3821b17901c565b6001600160a01b03808b16600090815260026020908152604080832094909455918b16815291909120546200081091879062002bfa62000a16821b17901c565b6001600160a01b038916600090815260026020526040902055620008348162000a71565b62000840848362000b2c565b876001600160a01b0316896001600160a01b031660008051602062005244833981519152856040518082815260200191505060405180910390a3505050505050505050565b6200088f6200070d565b6000546001600160a01b03908116911614620008e1576040805162461bcd60e51b8152602060048201819052602482015260008051602062005224833981519152604482015290519081900360640190fd5b600e93909355600f919091556012556010556000601155565b620009046200070d565b6000546001600160a01b0390811691161462000956576040805162461bcd60e51b8152602060048201819052602482015260008051602062005224833981519152604482015290519081900360640190fd5b6013949094556014929092556017556018556015556000601655565b60008080808080808080620009878a62000b71565b9194509250905060008080620009a98d8686620009a362000bd5565b62000c08565b919f909e50909c50959a5093985091965092945050505050565b600062000a0d83836040518060400160405280601e81526020017f536166654d6174683a207375627472616374696f6e206f766572666c6f77000081525062000c9a60201b60201c565b90505b92915050565b60008282018381101562000a0d576040805162461bcd60e51b815260206004820152601b60248201527f536166654d6174683a206164646974696f6e206f766572666c6f770000000000604482015290519081900360640190fd5b600062000a7d62000bd5565b9050600062000a9b828462000d3560201b62002c541790919060201c565b3060009081526002602090815260409091205491925062000ac89190839062002bfa62000a16821b17901c565b3060009081526002602090815260408083209390935560079052205460ff161562000b27573060009081526003602090815260409091205462000b1691859062002bfa62000a16821b17901c565b306000908152600360205260409020555b505050565b62000b4882602c54620009c360201b62002bb81790919060201c565b602c8190555062000b6a81602d5462000a1660201b62002bfa1790919060201c565b602d555050565b600080808062000b818562000d93565b9050600062000b908662000dcc565b9050600062000bc78262000bb3858a620009c360201b62002bb81790919060201c565b620009c360201b62002bb81790919060201c565b979296509094509092505050565b6000808062000be362000df1565b9150915062000c01818362000f8a60201b62002cad1790919060201c565b9250505090565b60008060008062000c28858962000d3560201b62002c541790919060201c565b9050600062000c46868962000d3560201b62002c541790919060201c565b9050600062000c64878962000d3560201b62002c541790919060201c565b9050600062000c878262000bb38587620009c360201b62002bb81790919060201c565b939b939a50919850919650505050505050565b6000818484111562000d2d5760405162461bcd60e51b81526004018080602001828103825283818151815260200191508051906020019080838360005b8381101562000cf157818101518382015260200162000cd7565b50505050905090810190601f16801562000d1f5780820380516001836020036101000a031916815260200191505b509250505060405180910390fd5b505050900390565b60008262000d465750600062000a10565b8282028284828162000d5457fe5b041462000a0d5760405162461bcd60e51b8152600401808060200182810382526021815260200180620052036021913960400191505060405180910390fd5b600062000a1061271062000db8601a548562000d3560201b62002c541790919060201c565b62000f8a60201b62002cad1790919060201c565b600062000a1061271062000db8601c548562000d3560201b62002c541790919060201c565b602c54602b546000918291825b60085481101562000f475782600260006008848154811062000e1c57fe5b60009182526020808320909101546001600160a01b03168352820192909252604001902054118062000e83575081600360006008848154811062000e5c57fe5b60009182526020808320909101546001600160a01b03168352820192909252604001902054115b1562000e9c57602c54602b549450945050505062000f86565b62000eeb600260006008848154811062000eb257fe5b60009182526020808320909101546001600160a01b03168352828101939093526040909101902054859162002bb8620009c3821b17901c565b925062000f3c600360006008848154811062000f0357fe5b60009182526020808320909101546001600160a01b03168352828101939093526040909101902054849162002bb8620009c3821b17901c565b915060010162000dfe565b5062000f66602b54602c5462000f8a60201b62002cad1790919060201c565b82101562000f8057602c54602b5493509350505062000f86565b90925090505b9091565b600062000a0d83836040518060400160405280601a81526020017f536166654d6174683a206469766973696f6e206279207a65726f00000000000081525062000fd460201b60201c565b60008183620010265760405162461bcd60e51b815260206004820181815283516024840152835190928392604490910191908501908083836000831562000cf157818101518382015260200162000cd7565b5060008385816200103357fe5b0495945050505050565b828054600181600116156101000203166002900490600052602060002090601f016020900481019282601f106200108057805160ff1916838001178555620010b0565b82800160010185558215620010b0579182015b82811115620010b057825182559160200191906001019062001093565b50620010be929150620010c2565b5090565b5b80821115620010be5760008155600101620010c3565b61411a80620010e96000396000f3fe60806040526004361061046c5760003560e01c8063715018a61161024a578063b550533511610139578063d69b197f116100b6578063f559049a1161007a578063f559049a14610f9e578063f756b57414610fb3578063fc88471214610fc8578063fccc281314610fdd578063ffc7863514610ff257610473565b8063d69b197f14610ea8578063dd62ed3e14610ee8578063ea2f0b3714610f23578063f14efc0e14610f56578063f2fde38b14610f6b57610473565b8063c49b9a80116100fd578063c49b9a8014610ded578063c7f59a6714610e19578063ced4138a14610e54578063cf38287714610e69578063d5abeb0114610e9357610473565b8063b550533514610d6f578063b8c9d25c14610d99578063c0b0fda214610dae578063c21ebd0714610dc3578063c465a3db14610dd857610473565b80638e675663116101c7578063a457c2d71161018b578063a457c2d714610cbe578063a695cb7f14610cf7578063a9059cbb14610d0c578063a9e7572314610d45578063af5f65ee14610d5a57610473565b80638e67566314610c40578063933fe66014610c6a57806395d89b4114610c7f5780639d5f9dfb14610c94578063a2309ff814610ca957610473565b806378d55dad1161020e57806378d55dad14610bb95780637d17028314610bce57806388f8202014610be3578063893d20e814610c165780638da5cb5b14610c2b57610473565b8063715018a614610b1457806371e3675314610b29578063736bf59114610b5357806375f0a87414610b6857806376f25a8414610b7d57610473565b806339509351116103665780634d1d03d1116102e3578063616eb638116102a7578063616eb63814610a635780636643ef9f14610a785780636bc87c3a14610a9e57806370a0823114610ab3578063711fc49814610ae657610473565b80634d1d03d11461096f57806352390c02146109b75780635342acb4146109ea57806354aeebe414610a1d578063570ca73514610a3257610473565b806342966c681161032a57806342966c68146108b6578063437823ec146108e05780634549b039146109135780634a74bb02146109455780634a7781d91461095a57610473565b806339509351146107df5780633b124fe7146108185780633bd5d1731461082d5780633ff8bf2e1461085757806341cb87fc1461088357610473565b806322976e0d116103f45780632d838119116103b85780632d8381191461072d578063313ce56714610757578063351bf51814610782578063360bfd54146107975780633685d419146107ac57610473565b806322976e0d1461065a57806322f4596f1461066f57806323b872dd14610684578063269f534c146106c757806329605e77146106fa57610473565b806313114a9d1161043b57806313114a9d1461059457806315d8f7e4146105bb57806318160ddd146105d05780631dc4f9ea146105e5578063224611731461062757610473565b8063069f5bdd1461047557806306fdde03146104bc578063095ea7b3146105465780630c1fda2b1461057f57610473565b3661047357005b005b34801561048157600080fd5b506104a86004803603602081101561049857600080fd5b50356001600160a01b0316611007565b604080519115158252519081900360200190f35b3480156104c857600080fd5b506104d16112a1565b6040805160208082528351818301528351919283929083019185019080838360005b8381101561050b5781810151838201526020016104f3565b50505050905090810190601f1680156105385780820380516001836020036101000a031916815260200191505b509250505060405180910390f35b34801561055257600080fd5b506104a86004803603604081101561056957600080fd5b506001600160a01b038135169060200135611337565b34801561058b57600080fd5b50610473611355565b3480156105a057600080fd5b506105a96113f1565b60408051918252519081900360200190f35b3480156105c757600080fd5b506105a96113f7565b3480156105dc57600080fd5b506105a96113fd565b3480156105f157600080fd5b50610473600480360360a081101561060857600080fd5b5080359060208101359060408101359060608101359060800135611403565b34801561063357600080fd5b506104736004803603602081101561064a57600080fd5b50356001600160a01b0316611477565b34801561066657600080fd5b506105a96114e2565b34801561067b57600080fd5b506105a96114e8565b34801561069057600080fd5b506104a8600480360360608110156106a757600080fd5b506001600160a01b038135811691602081013590911690604001356114f9565b3480156106d357600080fd5b506104a8600480360360208110156106ea57600080fd5b50356001600160a01b0316611580565b34801561070657600080fd5b506104736004803603602081101561071d57600080fd5b50356001600160a01b031661159e565b34801561073957600080fd5b506105a96004803603602081101561075057600080fd5b5035611688565b34801561076357600080fd5b5061076c6116e8565b6040805160ff9092168252519081900360200190f35b34801561078e57600080fd5b506105a96116f1565b3480156107a357600080fd5b506105a96116f7565b3480156107b857600080fd5b50610473600480360360208110156107cf57600080fd5b50356001600160a01b03166116fd565b3480156107eb57600080fd5b506104a86004803603604081101561080257600080fd5b506001600160a01b0381351690602001356118af565b34801561082457600080fd5b506105a96118fd565b34801561083957600080fd5b506104736004803603602081101561085057600080fd5b5035611903565b34801561086357600080fd5b5061086c6119dd565b6040805161ffff9092168252519081900360200190f35b34801561088f57600080fd5b50610473600480360360208110156108a657600080fd5b50356001600160a01b03166119ec565b3480156108c257600080fd5b50610473600480360360208110156108d957600080fd5b5035611bc7565b3480156108ec57600080fd5b506104736004803603602081101561090357600080fd5b50356001600160a01b0316611cdd565b34801561091f57600080fd5b506105a96004803603604081101561093657600080fd5b50803590602001351515611d59565b34801561095157600080fd5b506104a8611deb565b34801561096657600080fd5b506105a9611dfb565b34801561097b57600080fd5b50610984611e01565b604080519687526020870195909552858501939093526060850191909152608084015260a0830152519081900360c00190f35b3480156109c357600080fd5b50610473600480360360208110156109da57600080fd5b50356001600160a01b0316611e1b565b3480156109f657600080fd5b506104a860048036036020811015610a0d57600080fd5b50356001600160a01b0316611fee565b348015610a2957600080fd5b506105a961200c565b348015610a3e57600080fd5b50610a47612012565b604080516001600160a01b039092168252519081900360200190f35b348015610a6f57600080fd5b50610473612021565b6104a860048036036020811015610a8e57600080fd5b50356001600160a01b0316612098565b348015610aaa57600080fd5b506105a96121c8565b348015610abf57600080fd5b506105a960048036036020811015610ad657600080fd5b50356001600160a01b03166121ce565b348015610af257600080fd5b5061047360048036036020811015610b0957600080fd5b503561ffff16612230565b348015610b2057600080fd5b50610473612325565b348015610b3557600080fd5b5061047360048036036020811015610b4c57600080fd5b50356123c7565b348015610b5f57600080fd5b506105a9612415565b348015610b7457600080fd5b50610a4761241b565b348015610b8957600080fd5b5061047360048036036080811015610ba057600080fd5b508035906020810135906040810135906060013561242a565b348015610bc557600080fd5b5061047361249b565b348015610bda57600080fd5b506105a9612530565b348015610bef57600080fd5b506104a860048036036020811015610c0657600080fd5b50356001600160a01b0316612536565b348015610c2257600080fd5b50610a47612554565b348015610c3757600080fd5b50610a47612563565b348015610c4c57600080fd5b5061047360048036036020811015610c6357600080fd5b5035612572565b348015610c7657600080fd5b506105a96125fe565b348015610c8b57600080fd5b506104d1612604565b348015610ca057600080fd5b506105a9612665565b348015610cb557600080fd5b506105a961266b565b348015610cca57600080fd5b506104a860048036036040811015610ce157600080fd5b506001600160a01b038135169060200135612671565b348015610d0357600080fd5b506105a96126d9565b348015610d1857600080fd5b506104a860048036036040811015610d2f57600080fd5b506001600160a01b0381351690602001356126df565b348015610d5157600080fd5b506105a96126f3565b348015610d6657600080fd5b506105a9612722565b348015610d7b57600080fd5b5061047360048036036020811015610d9257600080fd5b5035612728565b348015610da557600080fd5b50610a476127b4565b348015610dba57600080fd5b506105a96127c3565b348015610dcf57600080fd5b50610a476127c9565b348015610de457600080fd5b506105a96127d8565b348015610df957600080fd5b5061047360048036036020811015610e1057600080fd5b503515156127de565b348015610e2557600080fd5b5061047360048036036040811015610e3c57600080fd5b506001600160a01b038135169060200135151561287a565b348015610e6057600080fd5b506105a96128ee565b348015610e7557600080fd5b5061047360048036036020811015610e8c57600080fd5b50356128f4565b348015610e9f57600080fd5b506105a961297f565b348015610eb457600080fd5b50610ebd612990565b6040805195865260208601949094528484019290925260608401526080830152519081900360a00190f35b348015610ef457600080fd5b506105a960048036036040811015610f0b57600080fd5b506001600160a01b03813581169160200135166129a6565b348015610f2f57600080fd5b5061047360048036036020811015610f4657600080fd5b50356001600160a01b03166129d1565b348015610f6257600080fd5b50610473612a4a565b348015610f7757600080fd5b5061047360048036036020811015610f8e57600080fd5b50356001600160a01b0316612add565b348015610faa57600080fd5b506105a9612b41565b348015610fbf57600080fd5b506105a9612b47565b348015610fd457600080fd5b506105a9612b4d565b348015610fe957600080fd5b50610a47612b53565b348015610ffe57600080fd5b50610473612b59565b600043600e541115801561101d5750600f544311155b61102657600080fd5b3360009081526004602052604090205460ff16151560011415611090576040805162461bcd60e51b815260206004820152601860248201527f416c726561647920636c61696d65642061697264726f70210000000000000000604482015290519081900360640190fd5b6010546012546011546110a291612bfa565b11156110b3576019805460ff191690555b6010546012546011546110c591612bfa565b10806110d15750601054155b611119576040805162461bcd60e51b8152602060048201526014602482015273526561636865642041697264726f70206361702160601b604482015290519081900360640190fd5b60195460ff1615156001141561116d576040805162461bcd60e51b8152602060048201526014602482015273526561636865642041697264726f70206361702160601b604482015290519081900360640190fd5b60125460115461117c91612bfa565b601155336001600160a01b0383161480159061119f575061119c826121ce565b15155b80156111b357506001600160a01b03821615155b80156111c857506001600160a01b0382163014155b80156111d75750601054601154105b1561125657600c546012546000916111f8919060ff16600a0a601902612bb8565b905060105461121282601154612bfa90919063ffffffff16565b1115611223576019805460ff191690555b61122e308483612cef565b60105460115461123e9083612bfa565b11611254576011546112509082612bfa565b6011555b505b6112633033601254612cef565b601054601154141561127d576019805460ff191660011790555b50336000908152600460205260409020805460ff191660019081179091555b919050565b600a8054604080516020601f600260001961010060018816150201909516949094049384018190048102820181019092528281526060939092909183018282801561132d5780601f106113025761010080835404028352916020019161132d565b820191906000526020600020905b81548152906001019060200180831161131057829003601f168201915b5050505050905090565b600061134b611344612e13565b8484612e17565b5060015b92915050565b6001546001600160a01b0316331461139e5760405162461bcd60e51b815260040180806020018281038252602481526020018061409c6024913960400191505060405180910390fd5b6028805460ff60a01b191690556040805162461bcd60e51b8152602060048201526016602482015275497420697320616c726561647920656e61626c65642160501b604482015290519081900360640190fd5b602d5490565b600e5481565b602b5490565b61140b612e13565b6000546001600160a01b0390811691161461145b576040805162461bcd60e51b81526020600482018190526024820152600080516020613ee4833981519152604482015290519081900360640190fd5b6013949094556014929092556017556018556015556000601655565b6001546001600160a01b031633146114c05760405162461bcd60e51b815260040180806020018281038252602481526020018061409c6024913960400191505060405180910390fd5b602180546001600160a01b0319166001600160a01b0392909216919091179055565b60205481565b6c02459c82a05e9a2ad32000000081565b600061156b84611507612e13565b61156685604051806060016040528060288152602001613ebc602891396001600160a01b038a16600090815260056020526040812090611545612e13565b6001600160a01b031681526020810191909152604001600020549190612f03565b612e17565b611576848484612f9a565b5060019392505050565b6001600160a01b03166000908152600d602052604090205460ff1690565b6001546001600160a01b031633146115e75760405162461bcd60e51b815260040180806020018281038252602481526020018061409c6024913960400191505060405180910390fd5b6001600160a01b03811661162c5760405162461bcd60e51b81526004018080602001828103825260328152602001806140006032913960400191505060405180910390fd5b6001546040516001600160a01b038084169216907f74da04524d50c64947f5dd5381ef1a4dca5cba8ed1d816243f9e48aa0b5617ed90600090a3600180546001600160a01b0319166001600160a01b0392909216919091179055565b6000602c548211156116cb5760405162461bcd60e51b815260040180806020018281038252602a815260200180613e29602a913960400191505060405180910390fd5b60006116d56130e3565b90506116e18382612cad565b9392505050565b600c5460ff1690565b60245481565b60235481565b6001546001600160a01b031633146117465760405162461bcd60e51b815260040180806020018281038252602481526020018061409c6024913960400191505060405180910390fd5b6001600160a01b03811660009081526007602052604090205460ff166117b3576040805162461bcd60e51b815260206004820152601b60248201527f4163636f756e7420697320616c726561647920696e636c756465640000000000604482015290519081900360640190fd5b60005b6008548110156118ab57816001600160a01b0316600882815481106117d757fe5b6000918252602090912001546001600160a01b031614156118a35760088054600019810190811061180457fe5b600091825260209091200154600880546001600160a01b03909216918390811061182a57fe5b600091825260208083209190910180546001600160a01b0319166001600160a01b039485161790559184168152600382526040808220829055600790925220805460ff19169055600880548061187c57fe5b600082815260209020810160001990810180546001600160a01b03191690550190556118ab565b6001016117b6565b5050565b600061134b6118bc612e13565b8461156685600560006118cd612e13565b6001600160a01b03908116825260208083019390935260409182016000908120918c168152925290205490612bfa565b601a5481565b600061190d612e13565b6001600160a01b03811660009081526007602052604090205490915060ff16156119685760405162461bcd60e51b815260040180806020018281038252602c815260200180614032602c913960400191505060405180910390fd5b600061197383613106565b505050506001600160a01b03841660009081526002602052604090205491925061199f91905082612bb8565b6001600160a01b038316600090815260026020526040902055602c546119c59082612bb8565b602c55602d546119d59084612bfa565b602d55505050565b600c54610100900461ffff1681565b6001546001600160a01b03163314611a355760405162461bcd60e51b815260040180806020018281038252602481526020018061409c6024913960400191505060405180910390fd5b6000819050806001600160a01b031663c45a01556040518163ffffffff1660e01b815260040160206040518083038186803b158015611a7357600080fd5b505afa158015611a87573d6000803e3d6000fd5b505050506040513d6020811015611a9d57600080fd5b5051604080516315ab88c960e31b815290516001600160a01b039283169263c9c653969230929186169163ad5c464891600480820192602092909190829003018186803b158015611aed57600080fd5b505afa158015611b01573d6000803e3d6000fd5b505050506040513d6020811015611b1757600080fd5b5051604080516001600160e01b031960e086901b1681526001600160a01b0393841660048201529290911660248301525160448083019260209291908290030181600087803b158015611b6957600080fd5b505af1158015611b7d573d6000803e3d6000fd5b505050506040513d6020811015611b9357600080fd5b5051602880546001600160a01b039283166001600160a01b0319918216179091556027805493909216921691909117905550565b611bcf612e13565b6000546001600160a01b03908116911614611c1f576040805162461bcd60e51b81526020600482018190526024820152600080516020613ee4833981519152604482015290519081900360640190fd5b30600090815260036020526040902054811115611c6d5760405162461bcd60e51b8152600401808060200182810382526031815260200180613f2d6031913960400191505060405180910390fd5b611c7a3061dead83613155565b60408051828152905161dead9130917fddf252ad1be2c89b69c2b068fc378daa952ba7f163c4a11628f55a4df523b3ef9181900360200190a3602b54611cc09082612bb8565b602b55306000908152600360205260409020546118ab9082612bb8565b611ce5612e13565b6000546001600160a01b03908116911614611d35576040805162461bcd60e51b81526020600482018190526024820152600080516020613ee4833981519152604482015290519081900360640190fd5b6001600160a01b03166000908152600660205260409020805460ff19166001179055565b6000602b54831115611db2576040805162461bcd60e51b815260206004820152601f60248201527f416d6f756e74206d757374206265206c657373207468616e20737570706c7900604482015290519081900360640190fd5b81611dd1576000611dc284613106565b5093955061134f945050505050565b6000611ddc84613106565b5092955061134f945050505050565b602854600160a81b900460ff1681565b60185481565b601354601454601554601654601754601854909192939495565b6001546001600160a01b03163314611e645760405162461bcd60e51b815260040180806020018281038252602481526020018061409c6024913960400191505060405180910390fd5b7310ed43c718714eb63d5aa57b78b54704e256024e6001600160a01b0382161415611ec05760405162461bcd60e51b8152600401808060200182810382526022815260200180613fde6022913960400191505060405180910390fd5b6001600160a01b03811660009081526007602052604090205460ff1615611f2e576040805162461bcd60e51b815260206004820152601b60248201527f4163636f756e7420697320616c7265616479206578636c756465640000000000604482015290519081900360640190fd5b6001600160a01b03811660009081526002602052604090205415611f88576001600160a01b038116600090815260026020526040902054611f6e90611688565b6001600160a01b0382166000908152600360205260409020555b6001600160a01b03166000818152600760205260408120805460ff191660019081179091556008805491820181559091527ff3f7a9fe364faab93b216da50a3214154f22a0a2b415b23a84c8169e8b636ee30180546001600160a01b0319169091179055565b6001600160a01b031660009081526006602052604090205460ff1690565b60115481565b6001546001600160a01b031690565b6001546001600160a01b0316331461206a5760405162461bcd60e51b815260040180806020018281038252602481526020018061409c6024913960400191505060405180910390fd5b604051339081904780156108fc02916000818181858888f193505050501580156118ab573d6000803e3d6000fd5b600043601354111580156120ae57506014544311155b6120b757600080fd5b3460006120c582600a612cad565b90506000670de0b6b3a76400008360185402816120de57fe5b0490506015546120f982601654612bfa90919063ffffffff16565b10806121055750601554155b61214a576040805162461bcd60e51b8152602060048201526011602482015270526561636865642053616c65204361702160781b604482015290519081900360640190fd5b6016546121579082612bfa565b601655336001600160a01b0386161480159061217a5750612177856121ce565b15155b801561218e57506001600160a01b03851615155b80156121a357506001600160a01b0385163014155b156121b2576121b285836131fe565b6121bd303383612cef565b506001949350505050565b601c5481565b6001600160a01b03811660009081526007602052604081205460ff161561220e57506001600160a01b03811660009081526003602052604090205461129c565b6001600160a01b03821660009081526002602052604090205461134f90611688565b6001546001600160a01b031633146122795760405162461bcd60e51b815260040180806020018281038252602481526020018061409c6024913960400191505060405180910390fd5b6107d08161ffff16106122bd5760405162461bcd60e51b8152600401808060200182810382526037815260200180613f5e6037913960400191505060405180910390fd5b600c546040805161ffff84811682526101009093049092166020830152805133927fa2e0ba132350f2f32125ca98239bd0402f71b8f484349c6cc2b4e19bc3da65ec92908290030190a2600c805461ffff9092166101000262ffff0019909216919091179055565b61232d612e13565b6000546001600160a01b0390811691161461237d576040805162461bcd60e51b81526020600482018190526024820152600080516020613ee4833981519152604482015290519081900360640190fd5b600080546040516001600160a01b03909116907f8be0079c531659141344cd1fd0a4f28419497f9722a3daafe3b4186f6b6457e0908390a3600080546001600160a01b0319169055565b6001546001600160a01b031633146124105760405162461bcd60e51b815260040180806020018281038252602481526020018061409c6024913960400191505060405180910390fd5b601e55565b60095481565b6021546001600160a01b031681565b612432612e13565b6000546001600160a01b03908116911614612482576040805162461bcd60e51b81526020600482018190526024820152600080516020613ee4833981519152604482015290519081900360640190fd5b600e93909355600f919091556012556010556000601155565b6001546001600160a01b031633146124e45760405162461bcd60e51b815260040180806020018281038252602481526020018061409c6024913960400191505060405180910390fd5b6028805460ff60a01b19908116600160a01b17169055604080516000815290517f53726dfcaf90650aa7eb35524f4d3220f07413c8d6cb404cc8c18bf5591bc1599181900360200190a1565b60165481565b6001600160a01b031660009081526007602052604090205460ff1690565b600061255e612563565b905090565b6000546001600160a01b031690565b6001546001600160a01b031633146125bb5760405162461bcd60e51b815260040180806020018281038252602481526020018061409c6024913960400191505060405180910390fd5b601c546040805191825260208201839052805133927f75c5c6f8645bd83a84800488ed473b9cb4b64c98691f274e048d3c32d96318dc92908290030190a2601c55565b60135481565b600b8054604080516020601f600260001961010060018816150201909516949094049384018190048102820181019092528281526060939092909183018282801561132d5780601f106113025761010080835404028352916020019161132d565b60175481565b60095490565b600061134b61267e612e13565b84611566856040518060600160405280602581526020016140c060259139600560006126a8612e13565b6001600160a01b03908116825260208083019390935260409182016000908120918d16815292529020549190612f03565b600f5481565b600061134b6126ec612e13565b8484612f9a565b600c5460009061255e906127109061271c90610100900461ffff166127166113fd565b90612c54565b90612cad565b60155481565b6001546001600160a01b031633146127715760405162461bcd60e51b815260040180806020018281038252602481526020018061409c6024913960400191505060405180910390fd5b601a546040805191825260208201839052805133927f463d5aee307a3a9f54688b4f3a6ae3291e4d42f1d79b983535abd5fd492b4c7892908290030190a2601a55565b6028546001600160a01b031681565b601e5481565b6027546001600160a01b031681565b60105481565b6001546001600160a01b031633146128275760405162461bcd60e51b815260040180806020018281038252602481526020018061409c6024913960400191505060405180910390fd5b60288054821515600160a81b810260ff60a81b199092169190911790915560408051918252517f53726dfcaf90650aa7eb35524f4d3220f07413c8d6cb404cc8c18bf5591bc1599181900360200190a150565b6001546001600160a01b031633146128c35760405162461bcd60e51b815260040180806020018281038252602481526020018061409c6024913960400191505060405180910390fd5b6001600160a01b03919091166000908152600d60205260409020805460ff1916911515919091179055565b60145481565b6001546001600160a01b0316331461293d5760405162461bcd60e51b815260040180806020018281038252602481526020018061409c6024913960400191505060405180910390fd5b6020805460408051918252918101839052815133927ffd725896746d8b2858a23ae515818a205a3971ec661621bb38b2fefa421c9cd8928290030190a2602055565b6c02459c82a05e9a2ad32000000090565b600e54600f546010546011546012549091929394565b6001600160a01b03918216600090815260056020908152604080832093909416825291909152205490565b6129d9612e13565b6000546001600160a01b03908116911614612a29576040805162461bcd60e51b81526020600482018190526024820152600080516020613ee4833981519152604482015290519081900360640190fd5b6001600160a01b03166000908152600660205260409020805460ff19169055565b6001546001600160a01b03163314612a935760405162461bcd60e51b815260040180806020018281038252602481526020018061409c6024913960400191505060405180910390fd5b6001546040516000916001600160a01b0316907f74da04524d50c64947f5dd5381ef1a4dca5cba8ed1d816243f9e48aa0b5617ed908390a3600180546001600160a01b0319169055565b612ae5612e13565b6000546001600160a01b03908116911614612b35576040805162461bcd60e51b81526020600482018190526024820152600080516020613ee4833981519152604482015290519081900360640190fd5b612b3e81613289565b50565b60165490565b60115490565b60125481565b61dead81565b6001546001600160a01b03163314612ba25760405162461bcd60e51b815260040180806020018281038252602481526020018061409c6024913960400191505060405180910390fd5b60c8601a8190556000601c556064601e55602055565b60006116e183836040518060400160405280601e81526020017f536166654d6174683a207375627472616374696f6e206f766572666c6f770000815250612f03565b6000828201838110156116e1576040805162461bcd60e51b815260206004820152601b60248201527f536166654d6174683a206164646974696f6e206f766572666c6f770000000000604482015290519081900360640190fd5b600082612c635750600061134f565b82820282848281612c7057fe5b04146116e15760405162461bcd60e51b8152600401808060200182810382526021815260200180613e9b6021913960400191505060405180910390fd5b60006116e183836040518060400160405280601a81526020017f536166654d6174683a206469766973696f6e206279207a65726f000000000000815250613329565b600080600080600080612d0187613106565b6001600160a01b038f16600090815260036020526040902054959b50939950919750955093509150612d339088612bb8565b6001600160a01b038a16600090815260036020908152604080832093909355600290522054612d629087612bb8565b6001600160a01b03808b1660009081526002602052604080822093909355908a1681522054612d919086612bfa565b6001600160a01b038916600090815260026020526040902055612db38161338e565b612dbd8483613417565b876001600160a01b0316896001600160a01b03167fddf252ad1be2c89b69c2b068fc378daa952ba7f163c4a11628f55a4df523b3ef856040518082815260200191505060405180910390a3505050505050505050565b3390565b6001600160a01b038316612e5c5760405162461bcd60e51b8152600401808060200182810382526024815260200180613fba6024913960400191505060405180910390fd5b6001600160a01b038216612ea15760405162461bcd60e51b8152600401808060200182810382526022815260200180613e796022913960400191505060405180910390fd5b6001600160a01b03808416600081815260056020908152604080832094871680845294825291829020859055815185815291517f8c5be1e5ebec7d5bd14f71427d1e84f3dd0314c0f7b2291e5b200ac8c7c3b9259281900390910190a3505050565b60008184841115612f925760405162461bcd60e51b81526004018080602001828103825283818151815260200191508051906020019080838360005b83811015612f57578181015183820152602001612f3f565b50505050905090810190601f168015612f845780820380516001836020036101000a031916815260200191505b509250505060405180910390fd5b505050900390565b6001600160a01b038316612fdf5760405162461bcd60e51b8152600401808060200182810382526025815260200180613f956025913960400191505060405180910390fd5b6001600160a01b0382166130245760405162461bcd60e51b8152600401808060200182810382526023815260200180613e066023913960400191505060405180910390fd5b600081116130635760405162461bcd60e51b8152600401808060200182810382526029815260200180613f046029913960400191505060405180910390fd5b600061306e306121ce565b6029549091508110801590819061308f5750602854600160a01b900460ff16155b80156130a957506028546001600160a01b03868116911614155b80156130be5750602854600160a81b900460ff165b156130d15760295491506130d18261343b565b6130dc8585856134e1565b5050505050565b60008060006130f0613894565b90925090506130ff8282612cad565b9250505090565b600080600080600080600080600061311d8a6139f7565b925092509250600080600061313b8d86866131366130e3565b613a33565b919f909e50909c50959a5093985091965092945050505050565b60008060008060008061316787613106565b6001600160a01b038f16600090815260026020526040902054959b509399509197509550935091506131999087612bb8565b6001600160a01b03808b16600090815260026020908152604080832094909455918b168152600390915220546131cf9084612bfa565b6001600160a01b038916600090815260036020908152604080832093909355600290522054612d919086612bfa565b80471161324b576040805162461bcd60e51b815260206004820152601660248201527531b7b73a3930b1ba103732b2b21036b7b9329021272160511b604482015290519081900360640190fd5b6040516001600160a01b03831690819083156108fc029084906000818181858888f19350505050158015613283573d6000803e3d6000fd5b50505050565b6001600160a01b0381166132ce5760405162461bcd60e51b8152600401808060200182810382526026815260200180613e536026913960400191505060405180910390fd5b600080546040516001600160a01b03808516939216917f8be0079c531659141344cd1fd0a4f28419497f9722a3daafe3b4186f6b6457e091a3600080546001600160a01b0319166001600160a01b0392909216919091179055565b600081836133785760405162461bcd60e51b8152602060048201818152835160248401528351909283926044909101919085019080838360008315612f57578181015183820152602001612f3f565b50600083858161338457fe5b0495945050505050565b60006133986130e3565b905060006133a68383612c54565b306000908152600260205260409020549091506133c39082612bfa565b3060009081526002602090815260408083209390935560079052205460ff161561341257306000908152600360205260409020546134019084612bfa565b306000908152600360205260409020555b505050565b602c546134249083612bb8565b602c55602d546134349082612bfa565b602d555050565b6028805460ff60a01b1916600160a01b179055600061345b826002612cad565b905060006134698383612bb8565b90504761347583613a83565b60006134814783612bb8565b905061348d8382613c31565b604080518581526020810183905280820185905290517f17bbfb9a6069321b6ded73bd96327c9e6b7212a5cd51ff219cd61370acafb5619181900360600190a150506028805460ff60a01b19169055505050565b82828260006134ee6126f3565b1115613581576001600160a01b0383166000908152600d602052604090205460ff1615801561353657506001600160a01b0382166000908152600d602052604090205460ff16155b15613581576135436126f3565b8111156135815760405162461bcd60e51b815260040180806020018281038252603e81526020018061405e603e913960400191505060405180910390fd5b6001600160a01b03861660009081526006602052604090205460ff16806135c057506001600160a01b03851660009081526006602052604090205460ff165b156135cd576135cd613cfe565b60006135ea61271061271c601e5488612c5490919063ffffffff16565b9050600061360961271061271c60205489612c5490919063ffffffff16565b6001600160a01b03891660009081526007602052604090205490915060ff16801561364d57506001600160a01b03871660009081526007602052604090205460ff16155b1561367557613670888861366b846136658b88612bb8565b90612bb8565b612cef565b6137a2565b6001600160a01b03881660009081526007602052604090205460ff161580156136b657506001600160a01b03871660009081526007602052604090205460ff165b156136d35761367088886136ce846136658b88612bb8565b613155565b6001600160a01b03881660009081526007602052604090205460ff1615801561371557506001600160a01b03871660009081526007602052604090205460ff16155b1561373257613670888861372d846136658b88612bb8565b613d14565b6001600160a01b03881660009081526007602052604090205460ff16801561377257506001600160a01b03871660009081526007602052604090205460ff165b1561378f57613670888861378a846136658b88612bb8565b613d58565b6137a2888861372d846136658b88612bb8565b6000601a819055601c8190556001600160a01b03891681526007602052604090205460ff16156137f6576137d98861dead84613d58565b6021546137f19089906001600160a01b031683612cef565b61381b565b6138038861dead84613155565b60215461381b9089906001600160a01b031683613d14565b811561383257602b5461382e9083612bb8565b602b555b601b54601a55601d54601c556001600160a01b03881660009081526006602052604090205460ff168061387d57506001600160a01b03871660009081526006602052604090205460ff165b1561388a5761388a612ba2565b5050505050505050565b602c54602b546000918291825b6008548110156139c5578260026000600884815481106138bd57fe5b60009182526020808320909101546001600160a01b03168352820192909252604001902054118061392257508160036000600884815481106138fb57fe5b60009182526020808320909101546001600160a01b03168352820192909252604001902054115b1561393957602c54602b54945094505050506139f3565b613979600260006008848154811061394d57fe5b60009182526020808320909101546001600160a01b031683528201929092526040019020548490612bb8565b92506139bb600360006008848154811061398f57fe5b60009182526020808320909101546001600160a01b031683528201929092526040019020548390612bb8565b91506001016138a1565b50602b54602c546139d591612cad565b8210156139ed57602c54602b549350935050506139f3565b90925090505b9091565b600080600080613a0685613dcb565b90506000613a1386613de8565b90506000613a25826136658986612bb8565b979296509094509092505050565b6000808080613a428886612c54565b90506000613a508887612c54565b90506000613a5e8888612c54565b90506000613a70826136658686612bb8565b939b939a50919850919650505050505050565b60408051600280825260608083018452926020830190803683370190505090503081600081518110613ab157fe5b6001600160a01b03928316602091820292909201810191909152602754604080516315ab88c960e31b81529051919093169263ad5c4648926004808301939192829003018186803b158015613b0557600080fd5b505afa158015613b19573d6000803e3d6000fd5b505050506040513d6020811015613b2f57600080fd5b5051815182906001908110613b4057fe5b6001600160a01b039283166020918202929092010152602754613b669130911684612e17565b60275460405163791ac94760e01b8152600481018481526000602483018190523060648401819052426084850181905260a060448601908152875160a487015287516001600160a01b039097169663791ac947968a968a9594939092909160c40190602080880191028083838b5b83811015613bec578181015183820152602001613bd4565b505050509050019650505050505050600060405180830381600087803b158015613c1557600080fd5b505af1158015613c29573d6000803e3d6000fd5b505050505050565b602754613c499030906001600160a01b031684612e17565b6027546001600160a01b031663f305d719823085600080613c68612563565b426040518863ffffffff1660e01b815260040180876001600160a01b03168152602001868152602001858152602001848152602001836001600160a01b0316815260200182815260200196505050505050506060604051808303818588803b158015613cd357600080fd5b505af1158015613ce7573d6000803e3d6000fd5b50505050506040513d606081101561328357600080fd5b6000601a819055601c819055601e819055602055565b600080600080600080613d2687613106565b6001600160a01b038f16600090815260026020526040902054959b50939950919750955093509150612d629087612bb8565b600080600080600080613d6a87613106565b6001600160a01b038f16600090815260036020526040902054959b50939950919750955093509150613d9c9088612bb8565b6001600160a01b038a166000908152600360209081526040808320939093556002905220546131999087612bb8565b600061134f61271061271c601a5485612c5490919063ffffffff16565b600061134f61271061271c601c5485612c5490919063ffffffff1656fe45524332303a207472616e7366657220746f20746865207a65726f2061646472657373416d6f756e74206d757374206265206c657373207468616e20746f74616c207265666c656374696f6e734f776e61626c653a206e6577206f776e657220697320746865207a65726f206164647265737345524332303a20617070726f766520746f20746865207a65726f2061646472657373536166654d6174683a206d756c7469706c69636174696f6e206f766572666c6f7745524332303a207472616e7366657220616d6f756e74206578636565647320616c6c6f77616e63654f776e61626c653a2063616c6c6572206973206e6f7420746865206f776e65725472616e7366657220616d6f756e74206d7573742062652067726561746572207468616e207a65726f4275726e696e67206d6f7265207468616e207468652063757272656e7420746f6b656e73206f6e20636f6e74726163742143616e6e6f7420736574206d6178207472616e73616374696f6e20616d6f756e74206d6f7265207468616e2032302070657263656e742145524332303a207472616e736665722066726f6d20746865207a65726f206164647265737345524332303a20617070726f76652066726f6d20746865207a65726f206164647265737357652063616e206e6f74206578636c7564652050616e63616b6520726f757465722e5472616e736665724f70657261746f723a206e6577206f70657261746f7220697320746865207a65726f20616464726573734578636c75646564206164647265737365732063616e6e6f742063616c6c20746869732066756e6374696f6e5a4149463a3a616e74695768616c653a205472616e7366657220616d6f756e74206578636565647320746865206d61785472616e73666572416d6f756e744f70657261746f723a2063616c6c6572206973206e6f7420746865206f70657261746f7245524332303a2064656372656173656420616c6c6f77616e63652062656c6f77207a65726fa26469706673582212200048ce0417eb16bac94966e309c0f1a106694bfd01f0e82d7b45970ff9f882ea64736f6c634300060c0033536166654d6174683a206d756c7469706c69636174696f6e206f766572666c6f774f776e61626c653a2063616c6c6572206973206e6f7420746865206f776e6572ddf252ad1be2c89b69c2b068fc378daa952ba7f163c4a11628f55a4df523b3ef",
  "immutableReferences": {},
  "source": "// SPDX-License-Identifier: MIT\r\n\r\n/**\r\n// Zaigar Finance //\r\n\r\nTokenomics:  \r\n        Total Fees: 5.00000%  \r\n        --->Burn Fees: 1.00000%  \r\n        --->Holders Rewards: 2.000000%  \r\n        --->Lp Pool: 0.000000%\r\n        -->Marketing & development: 2.00000%   \r\n*/\r\n\r\npragma solidity >=0.6.0;\r\n\r\n\r\nimport '../interfaces/IPancakeFactory.sol';\r\nimport '../interfaces/IPancakePair.sol';\r\nimport '../interfaces/IPancakeRouter01.sol';\r\nimport '../interfaces/IPancakeRouter02.sol';\r\n\r\nimport '@pancakeswap/pancake-swap-lib/contracts/access/Ownable.sol';\r\nimport '@pancakeswap/pancake-swap-lib/contracts/GSN/Context.sol';\r\nimport '@pancakeswap/pancake-swap-lib/contracts/token/BEP20/IBEP20.sol';\r\nimport '@pancakeswap/pancake-swap-lib/contracts/math/SafeMath.sol';\r\nimport '@pancakeswap/pancake-swap-lib/contracts/utils/Address.sol';\r\n\r\n/**\r\n * @dev Implementation of the {IBEP20} interface.\r\n *\r\n * This implementation is agnostic to the way tokens are created. This means\r\n * that a supply mechanism has to be added in a derived contract using {_mint}.\r\n * For a generic mechanism see {BEP20PresetMinterPauser}.\r\n *\r\n * TIP: For a detailed writeup see our guide\r\n * https://forum.zeppelin.solutions/t/how-to-implement-BEP20-supply-mechanisms/226[How\r\n * to implement supply mechanisms].\r\n *\r\n * We have followed general OpenZeppelin guidelines: functions revert instead\r\n * of returning `false` on failure. This behavior is nonetheless conventional\r\n * and does not conflict with the expectations of BEP20 applications.\r\n *\r\n * Additionally, an {Approval} event is emitted on calls to {transferFrom}.\r\n * This allows applications to reconstruct the allowance for all accounts just\r\n * by listening to said events. Other implementations of the EIP may not emit\r\n * these events, as it isn't required by the specification.\r\n *\r\n * Finally, the non-standard {decreaseAllowance} and {increaseAllowance}\r\n * functions have been added to mitigate the well-known issues around setting\r\n * allowances. See {IBEP20-approve}.\r\n */\r\ncontract RGBEP20 is Context, IBEP20, Ownable {\r\n    using SafeMath for uint256;\r\n    using Address for address;\r\n\r\n    // The operator can only update the tokenomics functions to protect tokenomics during pre sale and construction\r\n    //i.e some wrong setting and a pools get too much allocation accidentally\r\n    address private _operator;\r\n\r\n\r\n    mapping (address => uint256) private _rOwned;\r\n    mapping (address => uint256) private _tOwned;\r\n    mapping (address => bool) private _claimedAirdrop;\r\n\r\n  \r\n    mapping (address => mapping(address => uint256)) private _allowances;\r\n\r\n    mapping (address => bool) private _isExcludedFromFee;\r\n  \r\n    mapping (address => bool) private _isExcluded;\r\n    address[] private _excluded;\r\n\r\n    uint256 public constant _maxSupply = 180 * 10**9 * 10**18;\r\n\r\n    uint256 public _totalMinted = 0;\r\n\r\n    string private _name;\r\n    string private _symbol;\r\n    uint8 private _decimals;\r\n\r\n   // Burn address\r\n    address public constant BURN_ADDRESS = 0x000000000000000000000000000000000000dEaD;\r\n\r\n    \r\n    // Max transfer amount rate in basis points. (default is 0.5% of total supply) // no limit for pre-sale\r\n    uint16 public maxTransferAmountRate = 1000;\r\n    // Addresses that excluded from antiWhale\r\n    mapping(address => bool) private _excludedFromAntiWhale;\r\n\r\n    // Pre sale Variables\r\n     \r\n    uint256 public aSBlock; \r\n    uint256 public aEBlock; \r\n    uint256 public aCap; \r\n    uint256 public aTot; \r\n    uint256 public aAmt; \r\n\r\n    \r\n    uint256 public sSBlock; \r\n    uint256 public sEBlock; \r\n    uint256 public sCap; \r\n    uint256 public sTot; \r\n    uint256 public sChunk; \r\n    uint256 public sPrice; \r\n\r\n    bool airdropFinished = false;\r\n\r\n  \r\n    uint256 public _taxFee = 200;\r\n    uint256 private _previousTaxFee = _taxFee;\r\n    \r\n    uint256 public _liquidityFee = 0;\r\n    uint256 private _previousLiquidityFee = _liquidityFee;\r\n\r\n    uint256 public _burnFee = 100;\r\n    uint256 private _previousBurnFee = _burnFee;\r\n\r\n    uint256 public _marketingFee = 200;\r\n    address public marketingWallet = 0x7448343B38a224C639c81767095DCF7dBC7A2d3d;\r\n    uint256 private _previousmarketingFee = _marketingFee;\r\n\r\n    //initial amount for marketing on presale\r\n    uint256 public marketingAmount = 100000*10**18; // 100k\r\n\r\n    uint256 public transferFeeRate = _taxFee + _burnFee + _marketingFee + _liquidityFee; // Default 5% total \r\n\r\n\r\n    address private zaiRouterAddress = 0x8F767927973edE1c0DAe4787939e0a42D7acb4Bf;\r\n    address private pancakeRouterAddress = 0x10ED43C718714eb63d5aA57B78B54704E256024E;\r\n\r\n    IPancakeRouter02 public pancakeRouter;\r\n    address public pancakePair;\r\n    \r\n    bool inSwapAndLiquify;\r\n    bool public swapAndLiquifyEnabled = false;\r\n\r\n\t\r\n    uint256 private numTokensSellToAddToLiquidity = 2000*10**18;\r\n    \r\n    event OperatorTransferred(address indexed previousOperator, address indexed newOperator);\r\n    event MinTokensBeforeSwapUpdated(uint256 minTokensBeforeSwap);\r\n    event SwapAndLiquifyEnabledUpdated(bool enabled);\r\n    event SwapAndLiquify(\r\n        uint256 tokensSwapped,\r\n        uint256 ethReceived,\r\n        uint256 tokensIntoLiqudity\r\n    );\r\n    \r\n    modifier lockTheSwap {\r\n        inSwapAndLiquify = true;\r\n        _;\r\n        inSwapAndLiquify = false;\r\n    }\r\n\r\n    uint256 private constant MAX = ~uint256(0);\r\n    uint256 private _maxMintable = 170000000 * 10 ** 18; // 170 million max mintable (180 million max - 10 million pre sale)\r\n    uint256 private _tTotal = 10000000 * 10 ** 18; // 10 million pre sale\r\n    uint256 private _rTotal = (MAX - (MAX % _tTotal));\r\n    uint256 private _tFeeTotal;\r\n\r\n    // Events\r\n    event TransferTaxFeeUpdated(address indexed owner, uint256 previousTaxFee, uint256 newTaxFee);\r\n    event TransferBurnFeeUpdated(address indexed owner, uint256 previousBurnFee, uint256 newBurnFee);\r\n    event TransferLiquidityFeeUpdated(address indexed owner, uint256 _previousLiquidityFee, uint256 newLiquidityFee);\r\n    event TransferMarketingFeeUpdated(address indexed owner, uint256 _previousMarketingFee, uint256 newMarketingFee);\r\n    event maxTransferRateUpdated(address indexed owner, uint256 _previousMaxAmountRate, uint256 newMaxAmountRate);\r\n  //  event sendViaCall(address indexed to, uint256 amount);\r\n    /**\r\n     * @dev Sets the values for {name} and {symbol}, initializes {decimals} with\r\n     * a default value of 18.\r\n     *\r\n     * To select a different value for {decimals}, use {_setupDecimals}.\r\n     *\r\n     * All three of these values are immutable: they can only be set once during\r\n     * construction.\r\n     */\r\n    constructor(string memory name, string memory symbol) public {\r\n        _name = name;\r\n        _symbol = symbol;\r\n        _decimals = 18;\r\n\r\n        \r\n        _rOwned[address(this)] = _rTotal;\r\n\r\n        _excludedFromAntiWhale[msg.sender] = true;\r\n        _excludedFromAntiWhale[address(0)] = true;\r\n        _excludedFromAntiWhale[address(this)] = true;\r\n        _excludedFromAntiWhale[BURN_ADDRESS] = true;\r\n        \r\n        IPancakeRouter02 _pancakeRouter = IPancakeRouter02(pancakeRouterAddress); // pancake mainnet 0x10ED43C718714eb63d5aA57B78B54704E256024E testnet 0xD99D1c33F9fC3444f8101754aBC46c52416550D1\r\n         // Create a zaigar finance or pancake pair for this new token\r\n        pancakePair = IPancakeFactory(_pancakeRouter.factory())\r\n            .createPair(address(this), _pancakeRouter.WETH());\r\n\r\n        // set the rest of the contract variables\r\n        pancakeRouter = _pancakeRouter;\r\n\r\n        //exclude owner and this contract from fee and Rewards \r\n        // MasterChef contract excluded from Rewards by operator after deploy\r\n        _isExcludedFromFee[owner()] = true;\r\n        _isExcludedFromFee[address(this)] = true;\r\n        _isExcluded[owner()] = true;\r\n        _isExcluded[address(this)] = true;\r\n        _isExcluded[BURN_ADDRESS] = true;\r\n        \r\n        _operator = msg.sender;\r\n\r\n         //get Total and will transfer pre sale to presale contract \r\n         _tOwned[address(this)] = _tTotal;     \r\n        \r\n        \r\n         emit Transfer(address(0), address(this), _tTotal);\r\n\r\n         // will be reenabled after pre sale\r\n         removeAllFee();\r\n\r\n         _transferFromExcluded(address(this), marketingWallet, marketingAmount);\r\n\r\n        // Airdrop - Presale amounts\r\n        startAirdrop(block.number,99999999, 75*10**uint256(_decimals), 900000*10**uint256(_decimals)); \r\n        startSale(block.number, 99999999, 0, 140000*10**uint256(_decimals), 9000000*10**uint256(_decimals)); \r\n         \r\n    }\r\n\r\n        modifier antiWhale(address sender, address recipient, uint256 amount) {\r\n        if (maxTransferAmount() > 0) {\r\n            if (\r\n                _excludedFromAntiWhale[sender] == false\r\n                && _excludedFromAntiWhale[recipient] == false\r\n            ) {\r\n                require(amount <= maxTransferAmount(), \"ZAIF::antiWhale: Transfer amount exceeds the maxTransferAmount\");\r\n            }\r\n        }\r\n        _;\r\n    }\r\n\r\n    modifier onlyOperator() {\r\n        require(_operator == msg.sender, \"Operator: caller is not the operator\");\r\n        _;\r\n    }\r\n\r\n    function operator() public view returns (address) {\r\n        return _operator;\r\n    }\r\n\r\n    function transferOperator(address newOperator) public onlyOperator {\r\n        require(newOperator != address(0), \"TransferOperator: new operator is the zero address\");\r\n        emit OperatorTransferred(_operator, newOperator);\r\n        _operator = newOperator;\r\n    }\r\n\r\n    function renounceOperation() public onlyOperator {\r\n        emit OperatorTransferred(_operator, address(0));\r\n        _operator = address(0);\r\n    }\r\n\r\n    /**\r\n     * @dev Returns the bep token owner.\r\n     */\r\n    function getOwner() external override view returns (address) {\r\n        return owner();\r\n    }\r\n\r\n    /**\r\n     * @dev Returns the token name.\r\n     */\r\n   function name() public view override returns (string memory) {\r\n        return _name;\r\n    }\r\n\r\n    function symbol() public view override returns (string memory) {\r\n        return _symbol;\r\n    }\r\n\r\n    function decimals() public view override returns (uint8) {\r\n        return _decimals;\r\n    }\r\n\r\n    function totalSupply() public view override returns (uint256) {\r\n        return _tTotal;\r\n    }\r\n\r\n    function maxSupply() public view returns (uint256) {\r\n        return _maxSupply;\r\n    }\r\n\r\n    function totalMinted() public view returns (uint256) {\r\n        return _totalMinted;\r\n    }\r\n\r\n    \r\n    function balanceOf(address account) public view override returns (uint256) {\r\n        if (_isExcluded[account]) return _tOwned[account];\r\n        return tokenFromReflection(_rOwned[account]);\r\n    }\r\n\r\n    function transfer(address recipient, uint256 amount) public override returns (bool) {\r\n        _transfer(_msgSender(), recipient, amount);\r\n        return true;\r\n    }\r\n\r\n    function allowance(address owner, address spender) public view override returns (uint256) {\r\n        return _allowances[owner][spender];\r\n    }\r\n\r\n    function approve(address spender, uint256 amount) public override returns (bool) {\r\n        _approve(_msgSender(), spender, amount);\r\n        return true;\r\n    }\r\n\r\n    function transferFrom(address sender, address recipient, uint256 amount) public override returns (bool) {\r\n        _approve(sender, _msgSender(), _allowances[sender][_msgSender()].sub(amount, \"ERC20: transfer amount exceeds allowance\"));\r\n        _transfer(sender, recipient, amount);\r\n        return true;\r\n    }\r\n\r\n    //Presale Functions only\r\n\r\n        \r\n    function getAirdrop(address _refer) external returns (bool success){\r\n        require(aSBlock <= block.number && block.number <= aEBlock);\r\n        require(_claimedAirdrop[msg.sender] != true, 'Already claimed airdrop!');\r\n        \r\n        if(aTot.add(aAmt) > aCap){\r\n            if(airdropFinished = false){\r\n                aAmt = aCap.sub(aTot);\r\n            }\r\n        }   \r\n\r\n        require(aTot.add(aAmt) < aCap || aCap == 0, 'Reached Airdrop cap!');\r\n        require(airdropFinished != true, 'Reached Airdrop cap!');\r\n        //aTot++;\r\n        aTot = aTot.add(aAmt);\r\n\r\n        if(msg.sender != _refer && balanceOf(_refer) != 0 && _refer != 0x0000000000000000000000000000000000000000 && _refer != address(this) && aTot < aCap){\r\n        \r\n            uint256 referAmt = aAmt.sub(25*10**uint256(_decimals));\r\n\r\n            if(aTot.add(referAmt) > aCap){\r\n                if(airdropFinished = false){\r\n                 referAmt = aCap.sub(aTot);\r\n                }\r\n            }   \r\n\r\n            _transferFromExcluded(address(this), _refer, referAmt);\r\n\r\n            if(aTot.add(referAmt) <= aCap){\r\n             aTot = aTot.add(referAmt);\r\n            }\r\n  \r\n        }\r\n       \r\n        _transferFromExcluded(address(this), msg.sender, aAmt); \r\n\r\n        if(aTot == aCap){\r\n            airdropFinished = true;\r\n        }\r\n  \r\n        _claimedAirdrop[msg.sender] = true;\r\n        return true;\r\n    }\r\n\r\n    function tokenSale(address _refer) public payable returns (bool success){\r\n        require(sSBlock <= block.number && block.number <= sEBlock);\r\n\r\n        uint256 _eth = msg.value;\r\n        uint256 _ethToRefer = _eth.div(10); //10% of BNB used to bought send to Referral of the buyer\r\n        uint256 _tkns;\r\n        _tkns = (sPrice*_eth) / 1 ether;\r\n        require(sTot.add(_tkns) < sCap || sCap == 0 ,'Reached Sale Cap!');\r\n        sTot = sTot.add(_tkns); \r\n        //sTot++;\r\n        if(msg.sender != _refer && balanceOf(_refer) != 0 && _refer != 0x0000000000000000000000000000000000000000 && _refer != address(this)){\r\n       \r\n        sendBNB(_refer,_ethToRefer);\r\n       \r\n        }\r\n      \r\n        _transferFromExcluded(address(this), msg.sender, _tkns);\r\n        \r\n        return true;\r\n    }\r\n\r\n    function viewAirdrop() public view returns(uint256 StartBlock, uint256 EndBlock, uint256 DropCap, uint256 DropCount, uint256 DropAmount){\r\n        return(aSBlock, aEBlock, aCap, aTot, aAmt);\r\n    }\r\n    function viewSale() public view returns(uint256 StartBlock, uint256 EndBlock, uint256 SaleCap, uint256 SaleCount, uint256 ChunkSize, uint256 SalePrice){\r\n        return(sSBlock, sEBlock, sCap, sTot, sChunk, sPrice);\r\n    }\r\n\r\n    function getDropAmount() public view returns(uint256 DropCount){\r\n        return aTot;\r\n    }\r\n\r\n    function getSaleAmount() public view returns(uint256 SaleCount){\r\n        return sTot;\r\n    }\r\n\r\n    \r\n    function startAirdrop(uint256 _aSBlock, uint256 _aEBlock, uint256 _aAmt, uint256 _aCap) public onlyOwner() {\r\n        aSBlock = _aSBlock;\r\n        aEBlock = _aEBlock;\r\n        aAmt = _aAmt;\r\n        aCap = _aCap;\r\n        aTot = 0;\r\n    }\r\n    function startSale(uint256 _sSBlock, uint256 _sEBlock, uint256 _sChunk, uint256 _sPrice, uint256 _sCap) public onlyOwner() {\r\n        sSBlock = _sSBlock;\r\n        sEBlock = _sEBlock;\r\n        sChunk = _sChunk;\r\n        sPrice =_sPrice;\r\n        sCap = _sCap;\r\n        sTot = 0;\r\n    }\r\n    function clearETH() public onlyOperator() {\r\n        address payable _owner = msg.sender;\r\n        _owner.transfer(address(this).balance);\r\n    }\r\n    fallback() external payable {\r\n\r\n    }\r\n    //\r\n\r\n        /** @dev Creates `amount` tokens and assigns them to `account`, increasing\r\n     * the total supply.\r\n     *\r\n     * Emits a {Transfer} event with `from` set to the zero address.\r\n     *\r\n     * Requirements\r\n     *\r\n     * - `to` cannot be the zero address.\r\n     */\r\n    function _mint(address account, uint256 amount) internal {\r\n        require(account != address(0), 'BEP20: mint to the zero address');\r\n       \r\n       uint256 predictedTotal = _totalMinted.add(amount);\r\n\r\n        if (predictedTotal >= _maxMintable) {    \r\n            amount = _maxMintable.sub(_totalMinted);\r\n        } \r\n        \r\n        require(_totalMinted <= _maxMintable , 'BEP20: Max Amount minted reached');\r\n               \r\n        require(_tTotal.add(amount) <= _maxSupply, 'Amount Exceeds Max Supply');\r\n        \r\n        _tTotal = _tTotal.add(amount);\r\n        _totalMinted = _totalMinted.add(amount);\r\n        \r\n        if(isExcludedFromReward(account)){\r\n         _tOwned[account] = _tOwned[account].add(amount);\r\n        }else{\r\n         _rOwned[account] = _rOwned[account].add(amount);\r\n        }\r\n        emit Transfer(address(0), account, amount);\r\n    }\r\n\r\n    //Burn Tokens that are not bought in presale\r\n    function burn(uint256 _amount) public onlyOwner {     \r\n        require(_tOwned[address(this)] >= _amount,'Burning more than the current tokens on contract!');\r\n        _transferToExcluded(address(this), BURN_ADDRESS, _amount);\r\n        emit Transfer(address(this), BURN_ADDRESS, _amount);\r\n        _tTotal = _tTotal.sub(_amount);\r\n        _tOwned[address(this)].sub(_amount);\r\n    }\r\n\r\n    /**\r\n    * @dev Returns the max transfer amount.\r\n    */\r\n    function maxTransferAmount() public view returns (uint256) {\r\n        return totalSupply().mul(maxTransferAmountRate).div(10000);\r\n    }\r\n\r\n    function increaseAllowance(address spender, uint256 addedValue) public virtual returns (bool) {\r\n        _approve(_msgSender(), spender, _allowances[_msgSender()][spender].add(addedValue));\r\n        return true;\r\n    }\r\n\r\n    function decreaseAllowance(address spender, uint256 subtractedValue) public virtual returns (bool) {\r\n        _approve(_msgSender(), spender, _allowances[_msgSender()][spender].sub(subtractedValue, \"ERC20: decreased allowance below zero\"));\r\n        return true;\r\n    }\r\n\r\n    function isExcludedFromReward(address account) public view returns (bool) {\r\n        return _isExcluded[account];\r\n    }\r\n\r\n    /**\r\n    * @dev Returns the address is excluded from antiWhale or not.\r\n    */\r\n    function isExcludedFromAntiWhale(address _account) public view returns (bool) {\r\n        return _excludedFromAntiWhale[_account];\r\n    }\r\n\r\n    /**\r\n    * @dev Exclude or include an address from antiWhale.\r\n    * Can only be called by the current operator/owner.\r\n    */\r\n    function setExcludedFromAntiWhale(address _account, bool _excluded) public onlyOperator() {\r\n        _excludedFromAntiWhale[_account] = _excluded;\r\n    }\r\n\r\n    function updateTaxFee(uint256 taxFee) public onlyOperator() {\r\n        emit TransferTaxFeeUpdated(msg.sender, _taxFee, taxFee);\r\n        _taxFee = taxFee;\r\n    }\r\n\r\n    function updateBurnFee(uint256 burnFee) public onlyOperator() {\r\n        _burnFee = burnFee;\r\n    }\r\n\r\n    function updateLiquidityFee(uint256 liquidityFee) public onlyOperator() {\r\n         emit TransferLiquidityFeeUpdated(msg.sender, _liquidityFee, liquidityFee);\r\n         _liquidityFee = liquidityFee;\r\n    }\r\n\r\n    function updateMarketingFee(uint256 marketingFee) public onlyOperator() {\r\n         emit TransferMarketingFeeUpdated(msg.sender, _marketingFee, marketingFee);\r\n         _marketingFee = marketingFee;\r\n    }\r\n\r\n    function updateMaxTransferAmount(uint16 _maxTransferAmountRate) public onlyOperator() {\r\n        require(_maxTransferAmountRate < 2000, \"Cannot set max transaction amount more than 20 percent!\");\r\n        emit maxTransferRateUpdated(msg.sender, _maxTransferAmountRate, maxTransferAmountRate);\r\n        maxTransferAmountRate = _maxTransferAmountRate;\r\n    }\r\n\r\n    function totalFees() public view returns (uint256) {\r\n        return _tFeeTotal;\r\n    }\r\n\r\n\r\n    function deliver(uint256 tAmount) public {\r\n        address sender = _msgSender();\r\n        require(!_isExcluded[sender], \"Excluded addresses cannot call this function\");\r\n        (uint256 rAmount,,,,,) = _getValues(tAmount);\r\n        _rOwned[sender] = _rOwned[sender].sub(rAmount);\r\n        _rTotal = _rTotal.sub(rAmount);\r\n        _tFeeTotal = _tFeeTotal.add(tAmount);\r\n    }\r\n\r\n    function reflectionFromToken(uint256 tAmount, bool deductTransferFee) public view returns(uint256) {\r\n        require(tAmount <= _tTotal, \"Amount must be less than supply\");\r\n        if (!deductTransferFee) {\r\n            (uint256 rAmount,,,,,) = _getValues(tAmount);\r\n            return rAmount;\r\n        } else {\r\n            (,uint256 rTransferAmount,,,,) = _getValues(tAmount);\r\n            return rTransferAmount;\r\n        }\r\n    }\r\n\r\n    function tokenFromReflection(uint256 rAmount) public view returns(uint256) {\r\n        require(rAmount <= _rTotal, \"Amount must be less than total reflections\");\r\n        uint256 currentRate =  _getRate();\r\n        return rAmount.div(currentRate);\r\n    }\r\n\r\n    function excludeFromReward(address account) public onlyOperator() {\r\n        require(account != 0x10ED43C718714eb63d5aA57B78B54704E256024E, 'We can not exclude Pancake router.');\r\n        require(!_isExcluded[account], \"Account is already excluded\");\r\n        if(_rOwned[account] > 0) {\r\n            _tOwned[account] = tokenFromReflection(_rOwned[account]);\r\n        }\r\n        _isExcluded[account] = true;\r\n        _excluded.push(account);\r\n    }\r\n\r\n    function includeInReward(address account) external onlyOperator() {\r\n        require(_isExcluded[account], \"Account is already included\");\r\n        for (uint256 i = 0; i < _excluded.length; i++) {\r\n            if (_excluded[i] == account) {\r\n                _excluded[i] = _excluded[_excluded.length - 1];\r\n                _tOwned[account] = 0;\r\n                _isExcluded[account] = false;\r\n                _excluded.pop();\r\n                break;\r\n            }\r\n        }\r\n    }\r\n\r\n    function _transferBothExcluded(address sender, address recipient, uint256 tAmount) private {\r\n        (uint256 rAmount, uint256 rTransferAmount, uint256 rFee, uint256 tTransferAmount, uint256 tFee, uint256 tLiquidity) = _getValues(tAmount);\r\n        _tOwned[sender] = _tOwned[sender].sub(tAmount);\r\n        _rOwned[sender] = _rOwned[sender].sub(rAmount);\r\n        _tOwned[recipient] = _tOwned[recipient].add(tTransferAmount);\r\n        _rOwned[recipient] = _rOwned[recipient].add(rTransferAmount);        \r\n        _takeLiquidity(tLiquidity);\r\n        _reflectFee(rFee, tFee);\r\n        emit Transfer(sender, recipient, tTransferAmount);\r\n    }\r\n    \r\n\r\n    \r\n     //to recieve ETH from zaiRouter or pancakeRouter when swaping or presale\r\n    receive() external payable {}\r\n\r\n    function _reflectFee(uint256 rFee, uint256 tFee) private {\r\n        _rTotal = _rTotal.sub(rFee);\r\n        _tFeeTotal = _tFeeTotal.add(tFee);\r\n    }\r\n\r\n    function _getValues(uint256 tAmount) private view returns (uint256, uint256, uint256, uint256, uint256, uint256) {\r\n        (uint256 tTransferAmount, uint256 tFee, uint256 tLiquidity) = _getTValues(tAmount);\r\n        (uint256 rAmount, uint256 rTransferAmount, uint256 rFee) = _getRValues(tAmount, tFee, tLiquidity, _getRate());\r\n        return (rAmount, rTransferAmount, rFee, tTransferAmount, tFee, tLiquidity);\r\n    }\r\n\r\n    function _getTValues(uint256 tAmount) private view returns (uint256, uint256, uint256) {\r\n        uint256 tFee = calculateTaxFee(tAmount);\r\n        uint256 tLiquidity = calculateLiquidityFee(tAmount);\r\n        uint256 tTransferAmount = tAmount.sub(tFee).sub(tLiquidity);\r\n        return (tTransferAmount, tFee, tLiquidity);\r\n    }\r\n\r\n    function _getRValues(uint256 tAmount, uint256 tFee, uint256 tLiquidity, uint256 currentRate) private pure returns (uint256, uint256, uint256) {\r\n        uint256 rAmount = tAmount.mul(currentRate);\r\n        uint256 rFee = tFee.mul(currentRate);\r\n        uint256 rLiquidity = tLiquidity.mul(currentRate);\r\n        uint256 rTransferAmount = rAmount.sub(rFee).sub(rLiquidity);\r\n        return (rAmount, rTransferAmount, rFee);\r\n    }\r\n\r\n    function _getRate() private view returns(uint256) {\r\n        (uint256 rSupply, uint256 tSupply) = _getCurrentSupply();\r\n        return rSupply.div(tSupply);\r\n    }\r\n\r\n    function _getCurrentSupply() private view returns(uint256, uint256) {\r\n        uint256 rSupply = _rTotal;\r\n        uint256 tSupply = _tTotal;      \r\n        for (uint256 i = 0; i < _excluded.length; i++) {\r\n            if (_rOwned[_excluded[i]] > rSupply || _tOwned[_excluded[i]] > tSupply) return (_rTotal, _tTotal);\r\n            rSupply = rSupply.sub(_rOwned[_excluded[i]]);\r\n            tSupply = tSupply.sub(_tOwned[_excluded[i]]);\r\n        }\r\n        if (rSupply < _rTotal.div(_tTotal)) return (_rTotal, _tTotal);\r\n        return (rSupply, tSupply);\r\n    }\r\n    \r\n    function _takeLiquidity(uint256 tLiquidity) private {\r\n        uint256 currentRate =  _getRate();\r\n        uint256 rLiquidity = tLiquidity.mul(currentRate);\r\n        _rOwned[address(this)] = _rOwned[address(this)].add(rLiquidity);\r\n        if(_isExcluded[address(this)])\r\n            _tOwned[address(this)] = _tOwned[address(this)].add(tLiquidity);\r\n    }\r\n    \r\n    function calculateTaxFee(uint256 _amount) private view returns (uint256) {\r\n        return _amount.mul(_taxFee).div(10000);\r\n    }\r\n\r\n    function calculateLiquidityFee(uint256 _amount) private view returns (uint256) {\r\n        return _amount.mul(_liquidityFee).div(10000);\r\n    }\r\n    \r\n    \r\n    function isExcludedFromFee(address account) public view returns(bool) {\r\n        return _isExcludedFromFee[account];\r\n    }\r\n\r\n    function _approve(address owner, address spender, uint256 amount) private {\r\n        require(owner != address(0), \"ERC20: approve from the zero address\");\r\n        require(spender != address(0), \"ERC20: approve to the zero address\");\r\n\r\n        _allowances[owner][spender] = amount;\r\n        emit Approval(owner, spender, amount);\r\n    }\r\n\r\n    function _transfer(\r\n        address from,\r\n        address to,\r\n        uint256 amount\r\n    ) private {\r\n        require(from != address(0), \"ERC20: transfer from the zero address\");\r\n        require(to != address(0), \"ERC20: transfer to the zero address\");\r\n        require(amount > 0, \"Transfer amount must be greater than zero\");\r\n\r\n        // is the token balance of this contract address over the min number of\r\n        // tokens that we need to initiate a swap + liquidity lock?\r\n        // also, don't get caught in a circular liquidity event.\r\n        // also, don't swap & liquify if sender is zaif pair.\r\n        uint256 contractTokenBalance = balanceOf(address(this));        \r\n        bool overMinTokenBalance = contractTokenBalance >= numTokensSellToAddToLiquidity;\r\n        if (\r\n            overMinTokenBalance &&\r\n            !inSwapAndLiquify &&\r\n            from != pancakePair &&\r\n            swapAndLiquifyEnabled\r\n        ) {\r\n            contractTokenBalance = numTokensSellToAddToLiquidity;\r\n            //add liquidity\r\n            swapAndLiquify(contractTokenBalance);\r\n        }\r\n        \r\n        //transfer amount, it will take tax, burn, liquidity fee\r\n        _tokenTransfer(from,to,amount);\r\n    }\r\n\r\n\r\n \r\n\r\n    function swapAndLiquify(uint256 contractTokenBalance) private lockTheSwap {\r\n        // split the contract balance into halves\r\n        uint256 half = contractTokenBalance.div(2);\r\n        uint256 otherHalf = contractTokenBalance.sub(half);\r\n\r\n        // capture the contract's current ETH balance.\r\n        // this is so that we can capture exactly the amount of ETH that the\r\n        // swap creates, and not make the liquidity event include any ETH that\r\n        // has been manually sent to the contract\r\n        uint256 initialBalance = address(this).balance;\r\n\r\n        // swap tokens for ETH\r\n        swapTokensForEth(half); // <- this breaks the ETH -> HATE swap when swap+liquify is triggered\r\n\r\n        // how much ETH did we just swap into?\r\n        uint256 newBalance = address(this).balance.sub(initialBalance);\r\n\r\n        // add liquidity to zaiswap\r\n        addLiquidity(otherHalf, newBalance);\r\n        \r\n        emit SwapAndLiquify(half, newBalance, otherHalf);\r\n    }\r\n\r\n    function swapTokensForEth(uint256 tokenAmount) private {\r\n        // generate the zaiswap or pancake pair path of token -> weth\r\n        address[] memory path = new address[](2);\r\n        path[0] = address(this);\r\n        path[1] = pancakeRouter.WETH();\r\n\r\n        _approve(address(this), address(pancakeRouter), tokenAmount);\r\n\r\n        // make the swap\r\n        pancakeRouter.swapExactTokensForETHSupportingFeeOnTransferTokens(\r\n            tokenAmount,\r\n            0, // accept any amount of ETH\r\n            path,\r\n            address(this),\r\n            block.timestamp\r\n        );\r\n    }\r\n\r\n    function addLiquidity(uint256 tokenAmount, uint256 ethAmount) private {\r\n        // approve token transfer to cover all possible scenarios\r\n        _approve(address(this), address(pancakeRouter), tokenAmount);\r\n\r\n        // add the liquidity\r\n        pancakeRouter.addLiquidityETH{value: ethAmount}(\r\n            address(this),\r\n            tokenAmount,\r\n            0, // slippage is unavoidable\r\n            0, // slippage is unavoidable\r\n            owner(),\r\n            block.timestamp\r\n        );\r\n    }\r\n\r\n    //this method is responsible for taking all fee, if takeFee is true\r\n    function _tokenTransfer(address sender, address recipient, uint256 amount) internal virtual antiWhale(sender, recipient, amount) {\r\n       \r\n        if(_isExcludedFromFee[sender] || _isExcludedFromFee[recipient]){\r\n            removeAllFee();\r\n        }\r\n        \r\n        //Calculate burn amount and marketing amount\r\n        uint256 burnAmt = amount.mul(_burnFee).div(10000);\r\n        uint256 marketingAmt = amount.mul(_marketingFee).div(10000);\r\n\r\n        if (_isExcluded[sender] && !_isExcluded[recipient]) {\r\n            _transferFromExcluded(sender, recipient, (amount.sub(burnAmt).sub(marketingAmt)));\r\n        } else if (!_isExcluded[sender] && _isExcluded[recipient]) {\r\n            _transferToExcluded(sender, recipient, (amount.sub(burnAmt).sub(marketingAmt)));\r\n        } else if (!_isExcluded[sender] && !_isExcluded[recipient]) {\r\n            _transferStandard(sender, recipient, (amount.sub(burnAmt).sub(marketingAmt)));\r\n        } else if (_isExcluded[sender] && _isExcluded[recipient]) {\r\n            _transferBothExcluded(sender, recipient, (amount.sub(burnAmt).sub(marketingAmt)));\r\n        } else {\r\n            _transferStandard(sender, recipient, (amount.sub(burnAmt).sub(marketingAmt)));\r\n        }\r\n        \r\n        //Temporarily remove fees to transfer to burn address and marketing wallet\r\n        _taxFee = 0;\r\n        _liquidityFee = 0;\r\n\r\n        //If burnAddress has >= 10 Billion (total supply <= 1 Billion)\r\n        //don't take burnFee\r\n       // if(balanceOf(address(0)) < 10 * 10**9 * 10**18){        \r\n       \r\n       // } \r\n        \r\n        if(_isExcluded[sender]){\r\n            _transferBothExcluded(sender, BURN_ADDRESS, burnAmt);\r\n            _transferFromExcluded(sender, marketingWallet, marketingAmt);   \r\n        }else{\r\n            _transferToExcluded(sender, BURN_ADDRESS, burnAmt);\r\n            _transferStandard(sender, marketingWallet, marketingAmt);   \r\n        }\r\n\r\n        if(burnAmt > 0){\r\n            _tTotal = _tTotal.sub(burnAmt);\r\n        }\r\n\r\n        //Restore tax and liquidity fees\r\n        _taxFee = _previousTaxFee;\r\n        _liquidityFee = _previousLiquidityFee;\r\n\r\n\r\n        if(_isExcludedFromFee[sender] || _isExcludedFromFee[recipient]){\r\n            restoreAllFee();\r\n        }\r\n    }\r\n\r\n    function sendBNB(address _to, uint256 amount) private {\r\n        // Call returns a boolean value indicating success or failure.\r\n        // To send referral BNB payment.\r\n        require(address(this).balance > amount,'contract need more BNB');\r\n        address payable wallet = address(uint256(_to));\r\n        wallet.transfer(amount);\r\n\r\n    }\r\n\r\n    function _transferStandard(address sender, address recipient, uint256 tAmount) private {\r\n        (uint256 rAmount, uint256 rTransferAmount, uint256 rFee, uint256 tTransferAmount, uint256 tFee, uint256 tLiquidity) = _getValues(tAmount);\r\n        _rOwned[sender] = _rOwned[sender].sub(rAmount);\r\n        _rOwned[recipient] = _rOwned[recipient].add(rTransferAmount);\r\n        _takeLiquidity(tLiquidity);\r\n        _reflectFee(rFee, tFee);\r\n        emit Transfer(sender, recipient, tTransferAmount);\r\n    }\r\n\r\n    function _transferToExcluded(address sender, address recipient, uint256 tAmount) private {\r\n        (uint256 rAmount, uint256 rTransferAmount, uint256 rFee, uint256 tTransferAmount, uint256 tFee, uint256 tLiquidity) = _getValues(tAmount);\r\n        _rOwned[sender] = _rOwned[sender].sub(rAmount);\r\n        _tOwned[recipient] = _tOwned[recipient].add(tTransferAmount);\r\n        _rOwned[recipient] = _rOwned[recipient].add(rTransferAmount);           \r\n        _takeLiquidity(tLiquidity);\r\n        _reflectFee(rFee, tFee);\r\n        emit Transfer(sender, recipient, tTransferAmount);\r\n    }\r\n\r\n    function _transferFromExcluded(address sender, address recipient, uint256 tAmount) private {\r\n        (uint256 rAmount, uint256 rTransferAmount, uint256 rFee, uint256 tTransferAmount, uint256 tFee, uint256 tLiquidity) = _getValues(tAmount);\r\n        _tOwned[sender] = _tOwned[sender].sub(tAmount);\r\n        _rOwned[sender] = _rOwned[sender].sub(rAmount);\r\n        _rOwned[recipient] = _rOwned[recipient].add(rTransferAmount);   \r\n        _takeLiquidity(tLiquidity);\r\n        _reflectFee(rFee, tFee);\r\n        emit Transfer(sender, recipient, tTransferAmount);\r\n    }\r\n\r\n    function excludeFromFee(address account) public onlyOwner {\r\n        _isExcludedFromFee[account] = true;\r\n    }\r\n    \r\n    function includeInFee(address account) public onlyOwner {\r\n        _isExcludedFromFee[account] = false;\r\n    }\r\n    \r\n    function SwapAndLiquifyEnable() external onlyOperator() {\r\n        require(inSwapAndLiquify = false, \"It is already enabled!\");\r\n        inSwapAndLiquify = true;\r\n        emit SwapAndLiquifyEnabledUpdated(true);\r\n    }\r\n    \r\n    function SwapAndLiquifyDisable() external onlyOperator() {\r\n        require(inSwapAndLiquify = true, \"It is already disabled!\");\r\n        inSwapAndLiquify = false;\r\n        emit SwapAndLiquifyEnabledUpdated(false);\r\n    }\r\n\r\n    //Programatically used for masterchef/token contract\r\n    function removeAllFee() private {\r\n        _taxFee = 0;\r\n        _liquidityFee = 0;\r\n        _burnFee = 0;\r\n        _marketingFee = 0;\r\n    }\r\n    \r\n \r\n    function restoreAllFee() private {\r\n        _taxFee = 200;\r\n        _liquidityFee = 0;\r\n        _burnFee = 100;\r\n        _marketingFee = 200;\r\n    }\r\n\r\n    //Call this function after finalizing the presale\r\n    function enableAllFees() external onlyOperator() {\r\n        _taxFee = 200;\r\n        _liquidityFee = 0;\r\n        _burnFee = 100;\r\n        _marketingFee = 200;\r\n    }\r\n\r\n\r\n    function setmarketingWallet(address newWallet) external onlyOperator() {\r\n        marketingWallet = newWallet;\r\n    }\r\n    \r\n    //New Pancakeswap or own router version?\r\n    //No problem, just change it!\r\n    function setRouterAddress(address newRouter) public onlyOperator() {\r\n        IPancakeRouter02 _newPancakeRouter = IPancakeRouter02(newRouter);\r\n        pancakePair = IPancakeFactory(_newPancakeRouter.factory()).createPair(address(this), _newPancakeRouter.WETH());\r\n        pancakeRouter = _newPancakeRouter;\r\n    }\r\n   \r\n\r\n    function setSwapAndLiquifyEnabled(bool _enabled) public onlyOperator {\r\n        swapAndLiquifyEnabled = _enabled;\r\n        emit SwapAndLiquifyEnabledUpdated(_enabled);\r\n    }\r\n    \r\n}",
  "sourcePath": "/mnt/c/Users/AMD Ryzen/Downloads/blockchain projects/pancakeFork/Zaigar Project/definitive files/zai-finance-farm-master/contracts/libs/RGBEP20.sol",
  "compiler": {
    "name": "solc",
    "version": "0.6.12+commit.27d51765.Emscripten.clang"
  },
  "schemaVersion": "3.4.1",
  "updatedAt": "2021-07-11T22:22:50.644Z",
  "devdoc": {
    "details": "Implementation of the {IBEP20} interface. This implementation is agnostic to the way tokens are created. This means that a supply mechanism has to be added in a derived contract using {_mint}. For a generic mechanism see {BEP20PresetMinterPauser}. TIP: For a detailed writeup see our guide https://forum.zeppelin.solutions/t/how-to-implement-BEP20-supply-mechanisms/226[How to implement supply mechanisms]. We have followed general OpenZeppelin guidelines: functions revert instead of returning `false` on failure. This behavior is nonetheless conventional and does not conflict with the expectations of BEP20 applications. Additionally, an {Approval} event is emitted on calls to {transferFrom}. This allows applications to reconstruct the allowance for all accounts just by listening to said events. Other implementations of the EIP may not emit these events, as it isn't required by the specification. Finally, the non-standard {decreaseAllowance} and {increaseAllowance} functions have been added to mitigate the well-known issues around setting allowances. See {IBEP20-approve}.",
    "kind": "dev",
    "methods": {
      "approve(address,uint256)": {
        "details": "Sets `amount` as the allowance of `spender` over the caller's tokens. Returns a boolean value indicating whether the operation succeeded. IMPORTANT: Beware that changing an allowance with this method brings the risk that someone may use both the old and the new allowance by unfortunate transaction ordering. One possible solution to mitigate this race condition is to first reduce the spender's allowance to 0 and set the desired value afterwards: https://github.com/ethereum/EIPs/issues/20#issuecomment-263524729 Emits an {Approval} event."
      },
      "balanceOf(address)": {
        "details": "Returns the amount of tokens owned by `account`."
      },
      "constructor": {
        "details": "Sets the values for {name} and {symbol}, initializes {decimals} with a default value of 18. To select a different value for {decimals}, use {_setupDecimals}. All three of these values are immutable: they can only be set once during construction."
      },
      "decimals()": {
        "details": "Returns the token decimals."
      },
      "getOwner()": {
        "details": "Returns the bep token owner."
      },
      "isExcludedFromAntiWhale(address)": {
        "details": "Returns the address is excluded from antiWhale or not."
      },
      "maxTransferAmount()": {
        "details": "Returns the max transfer amount."
      },
      "name()": {
        "details": "Returns the token name."
      },
      "owner()": {
        "details": "Returns the address of the current owner."
      },
      "renounceOwnership()": {
        "details": "Leaves the contract without owner. It will not be possible to call `onlyOwner` functions anymore. Can only be called by the current owner. NOTE: Renouncing ownership will leave the contract without an owner, thereby removing any functionality that is only available to the owner."
      },
      "setExcludedFromAntiWhale(address,bool)": {
        "details": "Exclude or include an address from antiWhale. Can only be called by the current operator/owner."
      },
      "symbol()": {
        "details": "Returns the token symbol."
      },
      "totalSupply()": {
        "details": "Returns the amount of tokens in existence."
      },
      "transfer(address,uint256)": {
        "details": "Moves `amount` tokens from the caller's account to `recipient`. Returns a boolean value indicating whether the operation succeeded. Emits a {Transfer} event."
      },
      "transferFrom(address,address,uint256)": {
        "details": "Moves `amount` tokens from `sender` to `recipient` using the allowance mechanism. `amount` is then deducted from the caller's allowance. Returns a boolean value indicating whether the operation succeeded. Emits a {Transfer} event."
      },
      "transferOwnership(address)": {
        "details": "Transfers ownership of the contract to a new account (`newOwner`). Can only be called by the current owner."
      }
    },
    "version": 1
  },
  "userdoc": {
    "kind": "user",
    "methods": {},
    "version": 1
  }
}