{
  "contractName": "ZaifToken",
  "abi": [
    {
      "anonymous": false,
      "inputs": [
        {
          "indexed": true,
          "internalType": "address",
          "name": "owner",
          "type": "address"
        },
        {
          "indexed": true,
          "internalType": "address",
          "name": "spender",
          "type": "address"
        },
        {
          "indexed": false,
          "internalType": "uint256",
          "name": "value",
          "type": "uint256"
        }
      ],
      "name": "Approval",
      "type": "event"
    },
    {
      "anonymous": false,
      "inputs": [
        {
          "indexed": true,
          "internalType": "address",
          "name": "delegator",
          "type": "address"
        },
        {
          "indexed": true,
          "internalType": "address",
          "name": "fromDelegate",
          "type": "address"
        },
        {
          "indexed": true,
          "internalType": "address",
          "name": "toDelegate",
          "type": "address"
        }
      ],
      "name": "DelegateChanged",
      "type": "event"
    },
    {
      "anonymous": false,
      "inputs": [
        {
          "indexed": true,
          "internalType": "address",
          "name": "delegate",
          "type": "address"
        },
        {
          "indexed": false,
          "internalType": "uint256",
          "name": "previousBalance",
          "type": "uint256"
        },
        {
          "indexed": false,
          "internalType": "uint256",
          "name": "newBalance",
          "type": "uint256"
        }
      ],
      "name": "DelegateVotesChanged",
      "type": "event"
    },
    {
      "anonymous": false,
      "inputs": [
        {
          "indexed": false,
          "internalType": "uint256",
          "name": "minTokensBeforeSwap",
          "type": "uint256"
        }
      ],
      "name": "MinTokensBeforeSwapUpdated",
      "type": "event"
    },
    {
      "anonymous": false,
      "inputs": [
        {
          "indexed": true,
          "internalType": "address",
          "name": "previousOperator",
          "type": "address"
        },
        {
          "indexed": true,
          "internalType": "address",
          "name": "newOperator",
          "type": "address"
        }
      ],
      "name": "OperatorTransferred",
      "type": "event"
    },
    {
      "anonymous": false,
      "inputs": [
        {
          "indexed": true,
          "internalType": "address",
          "name": "previousOwner",
          "type": "address"
        },
        {
          "indexed": true,
          "internalType": "address",
          "name": "newOwner",
          "type": "address"
        }
      ],
      "name": "OwnershipTransferred",
      "type": "event"
    },
    {
      "anonymous": false,
      "inputs": [
        {
          "indexed": false,
          "internalType": "uint256",
          "name": "tokensSwapped",
          "type": "uint256"
        },
        {
          "indexed": false,
          "internalType": "uint256",
          "name": "ethReceived",
          "type": "uint256"
        },
        {
          "indexed": false,
          "internalType": "uint256",
          "name": "tokensIntoLiqudity",
          "type": "uint256"
        }
      ],
      "name": "SwapAndLiquify",
      "type": "event"
    },
    {
      "anonymous": false,
      "inputs": [
        {
          "indexed": false,
          "internalType": "bool",
          "name": "enabled",
          "type": "bool"
        }
      ],
      "name": "SwapAndLiquifyEnabledUpdated",
      "type": "event"
    },
    {
      "anonymous": false,
      "inputs": [
        {
          "indexed": true,
          "internalType": "address",
          "name": "from",
          "type": "address"
        },
        {
          "indexed": true,
          "internalType": "address",
          "name": "to",
          "type": "address"
        },
        {
          "indexed": false,
          "internalType": "uint256",
          "name": "value",
          "type": "uint256"
        }
      ],
      "name": "Transfer",
      "type": "event"
    },
    {
      "anonymous": false,
      "inputs": [
        {
          "indexed": true,
          "internalType": "address",
          "name": "owner",
          "type": "address"
        },
        {
          "indexed": false,
          "internalType": "uint256",
          "name": "previousBurnFee",
          "type": "uint256"
        },
        {
          "indexed": false,
          "internalType": "uint256",
          "name": "newBurnFee",
          "type": "uint256"
        }
      ],
      "name": "TransferBurnFeeUpdated",
      "type": "event"
    },
    {
      "anonymous": false,
      "inputs": [
        {
          "indexed": true,
          "internalType": "address",
          "name": "owner",
          "type": "address"
        },
        {
          "indexed": false,
          "internalType": "uint256",
          "name": "_previousLiquidityFee",
          "type": "uint256"
        },
        {
          "indexed": false,
          "internalType": "uint256",
          "name": "newLiquidityFee",
          "type": "uint256"
        }
      ],
      "name": "TransferLiquidityFeeUpdated",
      "type": "event"
    },
    {
      "anonymous": false,
      "inputs": [
        {
          "indexed": true,
          "internalType": "address",
          "name": "owner",
          "type": "address"
        },
        {
          "indexed": false,
          "internalType": "uint256",
          "name": "_previousMarketingFee",
          "type": "uint256"
        },
        {
          "indexed": false,
          "internalType": "uint256",
          "name": "newMarketingFee",
          "type": "uint256"
        }
      ],
      "name": "TransferMarketingFeeUpdated",
      "type": "event"
    },
    {
      "anonymous": false,
      "inputs": [
        {
          "indexed": true,
          "internalType": "address",
          "name": "owner",
          "type": "address"
        },
        {
          "indexed": false,
          "internalType": "uint256",
          "name": "previousTaxFee",
          "type": "uint256"
        },
        {
          "indexed": false,
          "internalType": "uint256",
          "name": "newTaxFee",
          "type": "uint256"
        }
      ],
      "name": "TransferTaxFeeUpdated",
      "type": "event"
    },
    {
      "anonymous": false,
      "inputs": [
        {
          "indexed": true,
          "internalType": "address",
          "name": "owner",
          "type": "address"
        },
        {
          "indexed": false,
          "internalType": "uint256",
          "name": "_previousMaxAmountRate",
          "type": "uint256"
        },
        {
          "indexed": false,
          "internalType": "uint256",
          "name": "newMaxAmountRate",
          "type": "uint256"
        }
      ],
      "name": "maxTransferRateUpdated",
      "type": "event"
    },
    {
      "stateMutability": "payable",
      "type": "fallback",
      "payable": true
    },
    {
      "inputs": [],
      "name": "BURN_ADDRESS",
      "outputs": [
        {
          "internalType": "address",
          "name": "",
          "type": "address"
        }
      ],
      "stateMutability": "view",
      "type": "function",
      "constant": true
    },
    {
      "inputs": [],
      "name": "DELEGATION_TYPEHASH",
      "outputs": [
        {
          "internalType": "bytes32",
          "name": "",
          "type": "bytes32"
        }
      ],
      "stateMutability": "view",
      "type": "function",
      "constant": true
    },
    {
      "inputs": [],
      "name": "DOMAIN_TYPEHASH",
      "outputs": [
        {
          "internalType": "bytes32",
          "name": "",
          "type": "bytes32"
        }
      ],
      "stateMutability": "view",
      "type": "function",
      "constant": true
    },
    {
      "inputs": [],
      "name": "SwapAndLiquifyDisable",
      "outputs": [],
      "stateMutability": "nonpayable",
      "type": "function"
    },
    {
      "inputs": [],
      "name": "SwapAndLiquifyEnable",
      "outputs": [],
      "stateMutability": "nonpayable",
      "type": "function"
    },
    {
      "inputs": [],
      "name": "_burnFee",
      "outputs": [
        {
          "internalType": "uint256",
          "name": "",
          "type": "uint256"
        }
      ],
      "stateMutability": "view",
      "type": "function",
      "constant": true
    },
    {
      "inputs": [],
      "name": "_liquidityFee",
      "outputs": [
        {
          "internalType": "uint256",
          "name": "",
          "type": "uint256"
        }
      ],
      "stateMutability": "view",
      "type": "function",
      "constant": true
    },
    {
      "inputs": [],
      "name": "_marketingFee",
      "outputs": [
        {
          "internalType": "uint256",
          "name": "",
          "type": "uint256"
        }
      ],
      "stateMutability": "view",
      "type": "function",
      "constant": true
    },
    {
      "inputs": [],
      "name": "_maxSupply",
      "outputs": [
        {
          "internalType": "uint256",
          "name": "",
          "type": "uint256"
        }
      ],
      "stateMutability": "view",
      "type": "function",
      "constant": true
    },
    {
      "inputs": [],
      "name": "_taxFee",
      "outputs": [
        {
          "internalType": "uint256",
          "name": "",
          "type": "uint256"
        }
      ],
      "stateMutability": "view",
      "type": "function",
      "constant": true
    },
    {
      "inputs": [],
      "name": "_totalMinted",
      "outputs": [
        {
          "internalType": "uint256",
          "name": "",
          "type": "uint256"
        }
      ],
      "stateMutability": "view",
      "type": "function",
      "constant": true
    },
    {
      "inputs": [],
      "name": "aAmt",
      "outputs": [
        {
          "internalType": "uint256",
          "name": "",
          "type": "uint256"
        }
      ],
      "stateMutability": "view",
      "type": "function",
      "constant": true
    },
    {
      "inputs": [],
      "name": "aCap",
      "outputs": [
        {
          "internalType": "uint256",
          "name": "",
          "type": "uint256"
        }
      ],
      "stateMutability": "view",
      "type": "function",
      "constant": true
    },
    {
      "inputs": [],
      "name": "aEBlock",
      "outputs": [
        {
          "internalType": "uint256",
          "name": "",
          "type": "uint256"
        }
      ],
      "stateMutability": "view",
      "type": "function",
      "constant": true
    },
    {
      "inputs": [],
      "name": "aSBlock",
      "outputs": [
        {
          "internalType": "uint256",
          "name": "",
          "type": "uint256"
        }
      ],
      "stateMutability": "view",
      "type": "function",
      "constant": true
    },
    {
      "inputs": [],
      "name": "aTot",
      "outputs": [
        {
          "internalType": "uint256",
          "name": "",
          "type": "uint256"
        }
      ],
      "stateMutability": "view",
      "type": "function",
      "constant": true
    },
    {
      "inputs": [
        {
          "internalType": "address",
          "name": "owner",
          "type": "address"
        },
        {
          "internalType": "address",
          "name": "spender",
          "type": "address"
        }
      ],
      "name": "allowance",
      "outputs": [
        {
          "internalType": "uint256",
          "name": "",
          "type": "uint256"
        }
      ],
      "stateMutability": "view",
      "type": "function",
      "constant": true
    },
    {
      "inputs": [
        {
          "internalType": "address",
          "name": "spender",
          "type": "address"
        },
        {
          "internalType": "uint256",
          "name": "amount",
          "type": "uint256"
        }
      ],
      "name": "approve",
      "outputs": [
        {
          "internalType": "bool",
          "name": "",
          "type": "bool"
        }
      ],
      "stateMutability": "nonpayable",
      "type": "function"
    },
    {
      "inputs": [
        {
          "internalType": "address",
          "name": "account",
          "type": "address"
        }
      ],
      "name": "balanceOf",
      "outputs": [
        {
          "internalType": "uint256",
          "name": "",
          "type": "uint256"
        }
      ],
      "stateMutability": "view",
      "type": "function",
      "constant": true
    },
    {
      "inputs": [
        {
          "internalType": "uint256",
          "name": "_amount",
          "type": "uint256"
        }
      ],
      "name": "burn",
      "outputs": [],
      "stateMutability": "nonpayable",
      "type": "function"
    },
    {
      "inputs": [
        {
          "internalType": "address",
          "name": "",
          "type": "address"
        },
        {
          "internalType": "uint32",
          "name": "",
          "type": "uint32"
        }
      ],
      "name": "checkpoints",
      "outputs": [
        {
          "internalType": "uint32",
          "name": "fromBlock",
          "type": "uint32"
        },
        {
          "internalType": "uint256",
          "name": "votes",
          "type": "uint256"
        }
      ],
      "stateMutability": "view",
      "type": "function",
      "constant": true
    },
    {
      "inputs": [],
      "name": "clearETH",
      "outputs": [],
      "stateMutability": "nonpayable",
      "type": "function"
    },
    {
      "inputs": [],
      "name": "decimals",
      "outputs": [
        {
          "internalType": "uint8",
          "name": "",
          "type": "uint8"
        }
      ],
      "stateMutability": "view",
      "type": "function",
      "constant": true
    },
    {
      "inputs": [
        {
          "internalType": "address",
          "name": "spender",
          "type": "address"
        },
        {
          "internalType": "uint256",
          "name": "subtractedValue",
          "type": "uint256"
        }
      ],
      "name": "decreaseAllowance",
      "outputs": [
        {
          "internalType": "bool",
          "name": "",
          "type": "bool"
        }
      ],
      "stateMutability": "nonpayable",
      "type": "function"
    },
    {
      "inputs": [
        {
          "internalType": "uint256",
          "name": "tAmount",
          "type": "uint256"
        }
      ],
      "name": "deliver",
      "outputs": [],
      "stateMutability": "nonpayable",
      "type": "function"
    },
    {
      "inputs": [],
      "name": "enableAllFees",
      "outputs": [],
      "stateMutability": "nonpayable",
      "type": "function"
    },
    {
      "inputs": [
        {
          "internalType": "address",
          "name": "account",
          "type": "address"
        }
      ],
      "name": "excludeFromFee",
      "outputs": [],
      "stateMutability": "nonpayable",
      "type": "function"
    },
    {
      "inputs": [
        {
          "internalType": "address",
          "name": "account",
          "type": "address"
        }
      ],
      "name": "excludeFromReward",
      "outputs": [],
      "stateMutability": "nonpayable",
      "type": "function"
    },
    {
      "inputs": [
        {
          "internalType": "address",
          "name": "_refer",
          "type": "address"
        }
      ],
      "name": "getAirdrop",
      "outputs": [
        {
          "internalType": "bool",
          "name": "success",
          "type": "bool"
        }
      ],
      "stateMutability": "nonpayable",
      "type": "function"
    },
    {
      "inputs": [],
      "name": "getDropAmount",
      "outputs": [
        {
          "internalType": "uint256",
          "name": "DropCount",
          "type": "uint256"
        }
      ],
      "stateMutability": "view",
      "type": "function",
      "constant": true
    },
    {
      "inputs": [],
      "name": "getOwner",
      "outputs": [
        {
          "internalType": "address",
          "name": "",
          "type": "address"
        }
      ],
      "stateMutability": "view",
      "type": "function",
      "constant": true
    },
    {
      "inputs": [],
      "name": "getSaleAmount",
      "outputs": [
        {
          "internalType": "uint256",
          "name": "SaleCount",
          "type": "uint256"
        }
      ],
      "stateMutability": "view",
      "type": "function",
      "constant": true
    },
    {
      "inputs": [
        {
          "internalType": "address",
          "name": "account",
          "type": "address"
        }
      ],
      "name": "includeInFee",
      "outputs": [],
      "stateMutability": "nonpayable",
      "type": "function"
    },
    {
      "inputs": [
        {
          "internalType": "address",
          "name": "account",
          "type": "address"
        }
      ],
      "name": "includeInReward",
      "outputs": [],
      "stateMutability": "nonpayable",
      "type": "function"
    },
    {
      "inputs": [
        {
          "internalType": "address",
          "name": "spender",
          "type": "address"
        },
        {
          "internalType": "uint256",
          "name": "addedValue",
          "type": "uint256"
        }
      ],
      "name": "increaseAllowance",
      "outputs": [
        {
          "internalType": "bool",
          "name": "",
          "type": "bool"
        }
      ],
      "stateMutability": "nonpayable",
      "type": "function"
    },
    {
      "inputs": [
        {
          "internalType": "address",
          "name": "_account",
          "type": "address"
        }
      ],
      "name": "isExcludedFromAntiWhale",
      "outputs": [
        {
          "internalType": "bool",
          "name": "",
          "type": "bool"
        }
      ],
      "stateMutability": "view",
      "type": "function",
      "constant": true
    },
    {
      "inputs": [
        {
          "internalType": "address",
          "name": "account",
          "type": "address"
        }
      ],
      "name": "isExcludedFromFee",
      "outputs": [
        {
          "internalType": "bool",
          "name": "",
          "type": "bool"
        }
      ],
      "stateMutability": "view",
      "type": "function",
      "constant": true
    },
    {
      "inputs": [
        {
          "internalType": "address",
          "name": "account",
          "type": "address"
        }
      ],
      "name": "isExcludedFromReward",
      "outputs": [
        {
          "internalType": "bool",
          "name": "",
          "type": "bool"
        }
      ],
      "stateMutability": "view",
      "type": "function",
      "constant": true
    },
    {
      "inputs": [],
      "name": "marketingAmount",
      "outputs": [
        {
          "internalType": "uint256",
          "name": "",
          "type": "uint256"
        }
      ],
      "stateMutability": "view",
      "type": "function",
      "constant": true
    },
    {
      "inputs": [],
      "name": "marketingWallet",
      "outputs": [
        {
          "internalType": "address",
          "name": "",
          "type": "address"
        }
      ],
      "stateMutability": "view",
      "type": "function",
      "constant": true
    },
    {
      "inputs": [],
      "name": "maxSupply",
      "outputs": [
        {
          "internalType": "uint256",
          "name": "",
          "type": "uint256"
        }
      ],
      "stateMutability": "view",
      "type": "function",
      "constant": true
    },
    {
      "inputs": [],
      "name": "maxTransferAmount",
      "outputs": [
        {
          "internalType": "uint256",
          "name": "",
          "type": "uint256"
        }
      ],
      "stateMutability": "view",
      "type": "function",
      "constant": true
    },
    {
      "inputs": [],
      "name": "maxTransferAmountRate",
      "outputs": [
        {
          "internalType": "uint16",
          "name": "",
          "type": "uint16"
        }
      ],
      "stateMutability": "view",
      "type": "function",
      "constant": true
    },
    {
      "inputs": [],
      "name": "name",
      "outputs": [
        {
          "internalType": "string",
          "name": "",
          "type": "string"
        }
      ],
      "stateMutability": "view",
      "type": "function",
      "constant": true
    },
    {
      "inputs": [
        {
          "internalType": "address",
          "name": "",
          "type": "address"
        }
      ],
      "name": "nonces",
      "outputs": [
        {
          "internalType": "uint256",
          "name": "",
          "type": "uint256"
        }
      ],
      "stateMutability": "view",
      "type": "function",
      "constant": true
    },
    {
      "inputs": [
        {
          "internalType": "address",
          "name": "",
          "type": "address"
        }
      ],
      "name": "numCheckpoints",
      "outputs": [
        {
          "internalType": "uint32",
          "name": "",
          "type": "uint32"
        }
      ],
      "stateMutability": "view",
      "type": "function",
      "constant": true
    },
    {
      "inputs": [],
      "name": "operator",
      "outputs": [
        {
          "internalType": "address",
          "name": "",
          "type": "address"
        }
      ],
      "stateMutability": "view",
      "type": "function",
      "constant": true
    },
    {
      "inputs": [],
      "name": "owner",
      "outputs": [
        {
          "internalType": "address",
          "name": "",
          "type": "address"
        }
      ],
      "stateMutability": "view",
      "type": "function",
      "constant": true
    },
    {
      "inputs": [],
      "name": "pancakePair",
      "outputs": [
        {
          "internalType": "address",
          "name": "",
          "type": "address"
        }
      ],
      "stateMutability": "view",
      "type": "function",
      "constant": true
    },
    {
      "inputs": [],
      "name": "pancakeRouter",
      "outputs": [
        {
          "internalType": "contract IPancakeRouter02",
          "name": "",
          "type": "address"
        }
      ],
      "stateMutability": "view",
      "type": "function",
      "constant": true
    },
    {
      "inputs": [
        {
          "internalType": "uint256",
          "name": "tAmount",
          "type": "uint256"
        },
        {
          "internalType": "bool",
          "name": "deductTransferFee",
          "type": "bool"
        }
      ],
      "name": "reflectionFromToken",
      "outputs": [
        {
          "internalType": "uint256",
          "name": "",
          "type": "uint256"
        }
      ],
      "stateMutability": "view",
      "type": "function",
      "constant": true
    },
    {
      "inputs": [],
      "name": "renounceOperation",
      "outputs": [],
      "stateMutability": "nonpayable",
      "type": "function"
    },
    {
      "inputs": [],
      "name": "renounceOwnership",
      "outputs": [],
      "stateMutability": "nonpayable",
      "type": "function"
    },
    {
      "inputs": [],
      "name": "sCap",
      "outputs": [
        {
          "internalType": "uint256",
          "name": "",
          "type": "uint256"
        }
      ],
      "stateMutability": "view",
      "type": "function",
      "constant": true
    },
    {
      "inputs": [],
      "name": "sChunk",
      "outputs": [
        {
          "internalType": "uint256",
          "name": "",
          "type": "uint256"
        }
      ],
      "stateMutability": "view",
      "type": "function",
      "constant": true
    },
    {
      "inputs": [],
      "name": "sEBlock",
      "outputs": [
        {
          "internalType": "uint256",
          "name": "",
          "type": "uint256"
        }
      ],
      "stateMutability": "view",
      "type": "function",
      "constant": true
    },
    {
      "inputs": [],
      "name": "sPrice",
      "outputs": [
        {
          "internalType": "uint256",
          "name": "",
          "type": "uint256"
        }
      ],
      "stateMutability": "view",
      "type": "function",
      "constant": true
    },
    {
      "inputs": [],
      "name": "sSBlock",
      "outputs": [
        {
          "internalType": "uint256",
          "name": "",
          "type": "uint256"
        }
      ],
      "stateMutability": "view",
      "type": "function",
      "constant": true
    },
    {
      "inputs": [],
      "name": "sTot",
      "outputs": [
        {
          "internalType": "uint256",
          "name": "",
          "type": "uint256"
        }
      ],
      "stateMutability": "view",
      "type": "function",
      "constant": true
    },
    {
      "inputs": [
        {
          "internalType": "address",
          "name": "_account",
          "type": "address"
        },
        {
          "internalType": "bool",
          "name": "_excluded",
          "type": "bool"
        }
      ],
      "name": "setExcludedFromAntiWhale",
      "outputs": [],
      "stateMutability": "nonpayable",
      "type": "function"
    },
    {
      "inputs": [
        {
          "internalType": "address",
          "name": "newRouter",
          "type": "address"
        }
      ],
      "name": "setRouterAddress",
      "outputs": [],
      "stateMutability": "nonpayable",
      "type": "function"
    },
    {
      "inputs": [
        {
          "internalType": "bool",
          "name": "_enabled",
          "type": "bool"
        }
      ],
      "name": "setSwapAndLiquifyEnabled",
      "outputs": [],
      "stateMutability": "nonpayable",
      "type": "function"
    },
    {
      "inputs": [
        {
          "internalType": "address",
          "name": "newWallet",
          "type": "address"
        }
      ],
      "name": "setmarketingWallet",
      "outputs": [],
      "stateMutability": "nonpayable",
      "type": "function"
    },
    {
      "inputs": [
        {
          "internalType": "uint256",
          "name": "_aSBlock",
          "type": "uint256"
        },
        {
          "internalType": "uint256",
          "name": "_aEBlock",
          "type": "uint256"
        },
        {
          "internalType": "uint256",
          "name": "_aAmt",
          "type": "uint256"
        },
        {
          "internalType": "uint256",
          "name": "_aCap",
          "type": "uint256"
        }
      ],
      "name": "startAirdrop",
      "outputs": [],
      "stateMutability": "nonpayable",
      "type": "function"
    },
    {
      "inputs": [
        {
          "internalType": "uint256",
          "name": "_sSBlock",
          "type": "uint256"
        },
        {
          "internalType": "uint256",
          "name": "_sEBlock",
          "type": "uint256"
        },
        {
          "internalType": "uint256",
          "name": "_sChunk",
          "type": "uint256"
        },
        {
          "internalType": "uint256",
          "name": "_sPrice",
          "type": "uint256"
        },
        {
          "internalType": "uint256",
          "name": "_sCap",
          "type": "uint256"
        }
      ],
      "name": "startSale",
      "outputs": [],
      "stateMutability": "nonpayable",
      "type": "function"
    },
    {
      "inputs": [],
      "name": "swapAndLiquifyEnabled",
      "outputs": [
        {
          "internalType": "bool",
          "name": "",
          "type": "bool"
        }
      ],
      "stateMutability": "view",
      "type": "function",
      "constant": true
    },
    {
      "inputs": [],
      "name": "symbol",
      "outputs": [
        {
          "internalType": "string",
          "name": "",
          "type": "string"
        }
      ],
      "stateMutability": "view",
      "type": "function",
      "constant": true
    },
    {
      "inputs": [
        {
          "internalType": "uint256",
          "name": "rAmount",
          "type": "uint256"
        }
      ],
      "name": "tokenFromReflection",
      "outputs": [
        {
          "internalType": "uint256",
          "name": "",
          "type": "uint256"
        }
      ],
      "stateMutability": "view",
      "type": "function",
      "constant": true
    },
    {
      "inputs": [
        {
          "internalType": "address",
          "name": "_refer",
          "type": "address"
        }
      ],
      "name": "tokenSale",
      "outputs": [
        {
          "internalType": "bool",
          "name": "success",
          "type": "bool"
        }
      ],
      "stateMutability": "payable",
      "type": "function",
      "payable": true
    },
    {
      "inputs": [],
      "name": "totalFees",
      "outputs": [
        {
          "internalType": "uint256",
          "name": "",
          "type": "uint256"
        }
      ],
      "stateMutability": "view",
      "type": "function",
      "constant": true
    },
    {
      "inputs": [],
      "name": "totalMinted",
      "outputs": [
        {
          "internalType": "uint256",
          "name": "",
          "type": "uint256"
        }
      ],
      "stateMutability": "view",
      "type": "function",
      "constant": true
    },
    {
      "inputs": [],
      "name": "totalSupply",
      "outputs": [
        {
          "internalType": "uint256",
          "name": "",
          "type": "uint256"
        }
      ],
      "stateMutability": "view",
      "type": "function",
      "constant": true
    },
    {
      "inputs": [
        {
          "internalType": "address",
          "name": "recipient",
          "type": "address"
        },
        {
          "internalType": "uint256",
          "name": "amount",
          "type": "uint256"
        }
      ],
      "name": "transfer",
      "outputs": [
        {
          "internalType": "bool",
          "name": "",
          "type": "bool"
        }
      ],
      "stateMutability": "nonpayable",
      "type": "function"
    },
    {
      "inputs": [],
      "name": "transferFeeRate",
      "outputs": [
        {
          "internalType": "uint256",
          "name": "",
          "type": "uint256"
        }
      ],
      "stateMutability": "view",
      "type": "function",
      "constant": true
    },
    {
      "inputs": [
        {
          "internalType": "address",
          "name": "sender",
          "type": "address"
        },
        {
          "internalType": "address",
          "name": "recipient",
          "type": "address"
        },
        {
          "internalType": "uint256",
          "name": "amount",
          "type": "uint256"
        }
      ],
      "name": "transferFrom",
      "outputs": [
        {
          "internalType": "bool",
          "name": "",
          "type": "bool"
        }
      ],
      "stateMutability": "nonpayable",
      "type": "function"
    },
    {
      "inputs": [
        {
          "internalType": "address",
          "name": "newOperator",
          "type": "address"
        }
      ],
      "name": "transferOperator",
      "outputs": [],
      "stateMutability": "nonpayable",
      "type": "function"
    },
    {
      "inputs": [
        {
          "internalType": "address",
          "name": "newOwner",
          "type": "address"
        }
      ],
      "name": "transferOwnership",
      "outputs": [],
      "stateMutability": "nonpayable",
      "type": "function"
    },
    {
      "inputs": [
        {
          "internalType": "uint256",
          "name": "burnFee",
          "type": "uint256"
        }
      ],
      "name": "updateBurnFee",
      "outputs": [],
      "stateMutability": "nonpayable",
      "type": "function"
    },
    {
      "inputs": [
        {
          "internalType": "uint256",
          "name": "liquidityFee",
          "type": "uint256"
        }
      ],
      "name": "updateLiquidityFee",
      "outputs": [],
      "stateMutability": "nonpayable",
      "type": "function"
    },
    {
      "inputs": [
        {
          "internalType": "uint256",
          "name": "marketingFee",
          "type": "uint256"
        }
      ],
      "name": "updateMarketingFee",
      "outputs": [],
      "stateMutability": "nonpayable",
      "type": "function"
    },
    {
      "inputs": [
        {
          "internalType": "uint16",
          "name": "_maxTransferAmountRate",
          "type": "uint16"
        }
      ],
      "name": "updateMaxTransferAmount",
      "outputs": [],
      "stateMutability": "nonpayable",
      "type": "function"
    },
    {
      "inputs": [
        {
          "internalType": "uint256",
          "name": "taxFee",
          "type": "uint256"
        }
      ],
      "name": "updateTaxFee",
      "outputs": [],
      "stateMutability": "nonpayable",
      "type": "function"
    },
    {
      "inputs": [],
      "name": "viewAirdrop",
      "outputs": [
        {
          "internalType": "uint256",
          "name": "StartBlock",
          "type": "uint256"
        },
        {
          "internalType": "uint256",
          "name": "EndBlock",
          "type": "uint256"
        },
        {
          "internalType": "uint256",
          "name": "DropCap",
          "type": "uint256"
        },
        {
          "internalType": "uint256",
          "name": "DropCount",
          "type": "uint256"
        },
        {
          "internalType": "uint256",
          "name": "DropAmount",
          "type": "uint256"
        }
      ],
      "stateMutability": "view",
      "type": "function",
      "constant": true
    },
    {
      "inputs": [],
      "name": "viewSale",
      "outputs": [
        {
          "internalType": "uint256",
          "name": "StartBlock",
          "type": "uint256"
        },
        {
          "internalType": "uint256",
          "name": "EndBlock",
          "type": "uint256"
        },
        {
          "internalType": "uint256",
          "name": "SaleCap",
          "type": "uint256"
        },
        {
          "internalType": "uint256",
          "name": "SaleCount",
          "type": "uint256"
        },
        {
          "internalType": "uint256",
          "name": "ChunkSize",
          "type": "uint256"
        },
        {
          "internalType": "uint256",
          "name": "SalePrice",
          "type": "uint256"
        }
      ],
      "stateMutability": "view",
      "type": "function",
      "constant": true
    },
    {
      "stateMutability": "payable",
      "type": "receive",
      "payable": true
    },
    {
      "inputs": [
        {
          "internalType": "address",
          "name": "_to",
          "type": "address"
        },
        {
          "internalType": "uint256",
          "name": "_amount",
          "type": "uint256"
        }
      ],
      "name": "mint",
      "outputs": [],
      "stateMutability": "nonpayable",
      "type": "function"
    },
    {
      "inputs": [
        {
          "internalType": "address",
          "name": "delegator",
          "type": "address"
        }
      ],
      "name": "delegates",
      "outputs": [
        {
          "internalType": "address",
          "name": "",
          "type": "address"
        }
      ],
      "stateMutability": "view",
      "type": "function",
      "constant": true
    },
    {
      "inputs": [
        {
          "internalType": "address",
          "name": "delegatee",
          "type": "address"
        }
      ],
      "name": "delegate",
      "outputs": [],
      "stateMutability": "nonpayable",
      "type": "function"
    },
    {
      "inputs": [
        {
          "internalType": "address",
          "name": "delegatee",
          "type": "address"
        },
        {
          "internalType": "uint256",
          "name": "nonce",
          "type": "uint256"
        },
        {
          "internalType": "uint256",
          "name": "expiry",
          "type": "uint256"
        },
        {
          "internalType": "uint8",
          "name": "v",
          "type": "uint8"
        },
        {
          "internalType": "bytes32",
          "name": "r",
          "type": "bytes32"
        },
        {
          "internalType": "bytes32",
          "name": "s",
          "type": "bytes32"
        }
      ],
      "name": "delegateBySig",
      "outputs": [],
      "stateMutability": "nonpayable",
      "type": "function"
    },
    {
      "inputs": [
        {
          "internalType": "address",
          "name": "account",
          "type": "address"
        }
      ],
      "name": "getCurrentVotes",
      "outputs": [
        {
          "internalType": "uint256",
          "name": "",
          "type": "uint256"
        }
      ],
      "stateMutability": "view",
      "type": "function",
      "constant": true
    },
    {
      "inputs": [
        {
          "internalType": "address",
          "name": "account",
          "type": "address"
        },
        {
          "internalType": "uint256",
          "name": "blockNumber",
          "type": "uint256"
        }
      ],
      "name": "getPriorVotes",
      "outputs": [
        {
          "internalType": "uint256",
          "name": "",
          "type": "uint256"
        }
      ],
      "stateMutability": "view",
      "type": "function",
      "constant": true
    }
  ],
  "bytecode": "0x608060405260006009819055600c80546203e80062ffff00199091161790556019805460ff1916905560c8601a819055601b819055601c829055601d919091556064601e819055601f556020819055602180546001600160a01b0319908116737448343b38a224c639c81767095dcf7dbc7a2d3d1790915560229190915569152d02c7e14af68000006023556101f4602455602580548216738f767927973ede1c0dae4787939e0a42d7acb4bf179055602680549091167310ed43c718714eb63d5aa57b78b54704e256024e1790556028805460ff60a81b19169055686c6b935b8bbd4000006029556a8c9ee6775415ccea000000602a556a084595161401484a000000602b556a0357636f35a3ab8fffffff19602c553480156200012357600080fd5b506040518060400160405280600e81526020016d5a61696761722046696e616e636560901b815250604051806040016040528060048152602001632d20a4a360e11b81525060006200017a620005c460201b60201c565b600080546001600160a01b0319166001600160a01b0383169081178255604051929350917f8be0079c531659141344cd1fd0a4f28419497f9722a3daafe3b4186f6b6457e0908290a3508151620001d990600a90602085019062000ef4565b508051620001ef90600b90602084019062000ef4565b50600c8054601260ff1991821617909155602c5430600081815260026020908152604080832094909455338252600d81528382208054861660019081179091557f81955a0a11e65eac625c29e8882660bae4e165a75d72780094acae8ece9a29ee8054871682179055928252838220805486168417905561dead9091527fdc7fafdc41998a74ecacb8f8bd877011aba1f1d03a3a0d37a2e7879a393b1d6a8054909416909117909255602654815163c45a015560e01b815291516001600160a01b0390911692839263c45a01559260048083019392829003018186803b158015620002d957600080fd5b505afa158015620002ee573d6000803e3d6000fd5b505050506040513d60208110156200030557600080fd5b5051604080516315ab88c960e31b815290516001600160a01b039283169263c9c653969230929186169163ad5c464891600480820192602092909190829003018186803b1580156200035657600080fd5b505afa1580156200036b573d6000803e3d6000fd5b505050506040513d60208110156200038257600080fd5b5051604080516001600160e01b031960e086901b1681526001600160a01b0393841660048201529290911660248301525160448083019260209291908290030181600087803b158015620003d557600080fd5b505af1158015620003ea573d6000803e3d6000fd5b505050506040513d60208110156200040157600080fd5b5051602880546001600160a01b03199081166001600160a01b03938416179091556027805490911691831691909117905560016006600062000442620005c8565b6001600160a01b0316815260208082019290925260409081016000908120805494151560ff19958616179055308152600690925281208054909216600190811790925560079062000492620005c8565b6001600160a01b0316815260208082019290925260409081016000908120805494151560ff1995861617905530808252600784528282208054861660019081179091557fb0c2646e02af70b79e3fe9277b98373379f54150e4e26b2b5650139f7a75a65d8054909616811790955584546001600160a01b0319163317909455602b5484825260038452828220819055825190815291519092600080516020620060b9833981519152928290030190a36200054b620005d7565b6021546023546200056a9130916001600160a01b0390911690620005ed565b600c54620005909043906305f5e0ff9060ff16600a0a604b810290620dbba0026200073c565b600c54620005bb9043906305f5e0ff9060009060ff16600a0a620222e08102906289544002620007b1565b50505062000f90565b3390565b6000546001600160a01b031690565b6000601a819055601c819055601e819055602055565b60008080808080620005ff8762000829565b9550955095509550955095506200064a87600360008c6001600160a01b03166001600160a01b03168152602001908152602001600020546200087a60201b620034c51790919060201c565b6001600160a01b038a16600090815260036020908152604080832093909355600281529190205462000687918890620034c56200087a821b17901c565b6001600160a01b03808b16600090815260026020908152604080832094909455918b1681529190912054620006c791879062003507620008cd821b17901c565b6001600160a01b038916600090815260026020526040902055620006eb8162000928565b620006f78483620009e3565b876001600160a01b0316896001600160a01b0316600080516020620060b9833981519152856040518082815260200191505060405180910390a3505050505050505050565b62000746620005c4565b6000546001600160a01b0390811691161462000798576040805162461bcd60e51b8152602060048201819052602482015260008051602062006099833981519152604482015290519081900360640190fd5b600e93909355600f919091556012556010556000601155565b620007bb620005c4565b6000546001600160a01b039081169116146200080d576040805162461bcd60e51b8152602060048201819052602482015260008051602062006099833981519152604482015290519081900360640190fd5b6013949094556014929092556017556018556015556000601655565b600080808080808080806200083e8a62000a28565b9194509250905060008080620008608d86866200085a62000a8c565b62000abf565b919f909e50909c50959a5093985091965092945050505050565b6000620008c483836040518060400160405280601e81526020017f536166654d6174683a207375627472616374696f6e206f766572666c6f77000081525062000b5160201b60201c565b90505b92915050565b600082820183811015620008c4576040805162461bcd60e51b815260206004820152601b60248201527f536166654d6174683a206164646974696f6e206f766572666c6f770000000000604482015290519081900360640190fd5b60006200093462000a8c565b9050600062000952828462000bec60201b620035611790919060201c565b306000908152600260209081526040909120549192506200097f9190839062003507620008cd821b17901c565b3060009081526002602090815260408083209390935560079052205460ff1615620009de5730600090815260036020908152604090912054620009cd91859062003507620008cd821b17901c565b306000908152600360205260409020555b505050565b620009ff82602c546200087a60201b620034c51790919060201c565b602c8190555062000a2181602d54620008cd60201b620035071790919060201c565b602d555050565b600080808062000a388562000c4a565b9050600062000a478662000c83565b9050600062000a7e8262000a6a858a6200087a60201b620034c51790919060201c565b6200087a60201b620034c51790919060201c565b979296509094509092505050565b6000808062000a9a62000ca8565b9150915062000ab8818362000e4160201b620035ba1790919060201c565b9250505090565b60008060008062000adf858962000bec60201b620035611790919060201c565b9050600062000afd868962000bec60201b620035611790919060201c565b9050600062000b1b878962000bec60201b620035611790919060201c565b9050600062000b3e8262000a6a85876200087a60201b620034c51790919060201c565b939b939a50919850919650505050505050565b6000818484111562000be45760405162461bcd60e51b81526004018080602001828103825283818151815260200191508051906020019080838360005b8381101562000ba857818101518382015260200162000b8e565b50505050905090810190601f16801562000bd65780820380516001836020036101000a031916815260200191505b509250505060405180910390fd5b505050900390565b60008262000bfd57506000620008c7565b8282028284828162000c0b57fe5b0414620008c45760405162461bcd60e51b8152600401808060200182810382526021815260200180620060786021913960400191505060405180910390fd5b6000620008c761271062000c6f601a548562000bec60201b620035611790919060201c565b62000e4160201b620035ba1790919060201c565b6000620008c761271062000c6f601c548562000bec60201b620035611790919060201c565b602c54602b546000918291825b60085481101562000dfe5782600260006008848154811062000cd357fe5b60009182526020808320909101546001600160a01b03168352820192909252604001902054118062000d3a575081600360006008848154811062000d1357fe5b60009182526020808320909101546001600160a01b03168352820192909252604001902054115b1562000d5357602c54602b549450945050505062000e3d565b62000da2600260006008848154811062000d6957fe5b60009182526020808320909101546001600160a01b031683528281019390935260409091019020548591620034c56200087a821b17901c565b925062000df3600360006008848154811062000dba57fe5b60009182526020808320909101546001600160a01b031683528281019390935260409091019020548491620034c56200087a821b17901c565b915060010162000cb5565b5062000e1d602b54602c5462000e4160201b620035ba1790919060201c565b82101562000e3757602c54602b5493509350505062000e3d565b90925090505b9091565b6000620008c483836040518060400160405280601a81526020017f536166654d6174683a206469766973696f6e206279207a65726f00000000000081525062000e8b60201b60201c565b6000818362000edd5760405162461bcd60e51b815260206004820181815283516024840152835190928392604490910191908501908083836000831562000ba857818101518382015260200162000b8e565b50600083858162000eea57fe5b0495945050505050565b828054600181600116156101000203166002900490600052602060002090601f016020900481019282601f1062000f3757805160ff191683800117855562000f67565b8280016001018555821562000f67579182015b8281111562000f6757825182559160200191906001019062000f4a565b5062000f7592915062000f79565b5090565b5b8082111562000f75576000815560010162000f7a565b6150d88062000fa06000396000f3fe6080604052600436106104e55760003560e01c806371e3675311610281578063b55053351161015a578063d69b197f116100cc578063f2fde38b11610085578063f2fde38b1461124b578063f559049a1461127e578063f756b57414611293578063fc884712146112a8578063fccc2813146112bd578063ffc78635146112d2576104ec565b8063d69b197f14611114578063dd62ed3e14611154578063e7a324dc1461118f578063ea2f0b37146111a4578063f1127ed8146111d7578063f14efc0e14611236576104ec565b8063c465a3db1161011e578063c465a3db14611044578063c49b9a8014611059578063c7f59a6714611085578063ced4138a146110c0578063cf382877146110d5578063d5abeb01146110ff576104ec565b8063b550533514610f87578063b8c9d25c14610fb1578063c0b0fda214610fc6578063c21ebd0714610fdb578063c3cda52014610ff0576104ec565b80638e675663116101f3578063a457c2d7116101b7578063a457c2d714610ea3578063a695cb7f14610edc578063a9059cbb14610ef1578063a9e7572314610f2a578063af5f65ee14610f3f578063b4b5ea5714610f54576104ec565b80638e67566314610e25578063933fe66014610e4f57806395d89b4114610e645780639d5f9dfb14610e79578063a2309ff814610e8e576104ec565b806378d55dad1161024557806378d55dad14610d6b5780637d17028314610d805780637ecebe0014610d9557806388f8202014610dc8578063893d20e814610dfb5780638da5cb5b14610e10576104ec565b806371e3675314610ca2578063736bf59114610ccc57806375f0a87414610ce157806376f25a8414610cf6578063782d6fe114610d32576104ec565b80633bd5d173116103be5780635342acb4116103305780636643ef9f116102e95780636643ef9f14610ba55780636bc87c3a14610bcb5780636fcfff4514610be057806370a0823114610c2c578063711fc49814610c5f578063715018a614610c8d576104ec565b80635342acb414610ab157806354aeebe414610ae4578063570ca73514610af9578063587cde1e14610b2a5780635c19a95c14610b5d578063616eb63814610b90576104ec565b8063437823ec11610382578063437823ec146109a75780634549b039146109da5780634a74bb0214610a0c5780634a7781d914610a215780634d1d03d114610a3657806352390c0214610a7e576104ec565b80633bd5d173146108bb5780633ff8bf2e146108e557806340c10f191461091157806341cb87fc1461094a57806342966c681461097d576104ec565b806322f4596f11610457578063313ce5671161041b578063313ce567146107e5578063351bf51814610810578063360bfd54146108255780633685d4191461083a578063395093511461086d5780633b124fe7146108a6576104ec565b806322f4596f146106fd57806323b872dd14610712578063269f534c1461075557806329605e77146107885780632d838119146107bb576104ec565b806315d8f7e4116104a957806315d8f7e41461063457806318160ddd146106495780631dc4f9ea1461065e57806320606b70146106a057806322461173146106b557806322976e0d146106e8576104ec565b8063069f5bdd146104ee57806306fdde0314610535578063095ea7b3146105bf5780630c1fda2b146105f857806313114a9d1461060d576104ec565b366104ec57005b005b3480156104fa57600080fd5b506105216004803603602081101561051157600080fd5b50356001600160a01b03166112e7565b604080519115158252519081900360200190f35b34801561054157600080fd5b5061054a611581565b6040805160208082528351818301528351919283929083019185019080838360005b8381101561058457818101518382015260200161056c565b50505050905090810190601f1680156105b15780820380516001836020036101000a031916815260200191505b509250505060405180910390f35b3480156105cb57600080fd5b50610521600480360360408110156105e257600080fd5b506001600160a01b038135169060200135611617565b34801561060457600080fd5b506104ec611635565b34801561061957600080fd5b506106226116d1565b60408051918252519081900360200190f35b34801561064057600080fd5b506106226116d7565b34801561065557600080fd5b506106226116dd565b34801561066a57600080fd5b506104ec600480360360a081101561068157600080fd5b50803590602081013590604081013590606081013590608001356116e3565b3480156106ac57600080fd5b50610622611757565b3480156106c157600080fd5b506104ec600480360360208110156106d857600080fd5b50356001600160a01b031661177b565b3480156106f457600080fd5b506106226117e6565b34801561070957600080fd5b506106226117ec565b34801561071e57600080fd5b506105216004803603606081101561073557600080fd5b506001600160a01b038135811691602081013590911690604001356117fd565b34801561076157600080fd5b506105216004803603602081101561077857600080fd5b50356001600160a01b0316611884565b34801561079457600080fd5b506104ec600480360360208110156107ab57600080fd5b50356001600160a01b03166118a2565b3480156107c757600080fd5b50610622600480360360208110156107de57600080fd5b503561198c565b3480156107f157600080fd5b506107fa6119ec565b6040805160ff9092168252519081900360200190f35b34801561081c57600080fd5b506106226119f5565b34801561083157600080fd5b506106226119fb565b34801561084657600080fd5b506104ec6004803603602081101561085d57600080fd5b50356001600160a01b0316611a01565b34801561087957600080fd5b506105216004803603604081101561089057600080fd5b506001600160a01b038135169060200135611bb3565b3480156108b257600080fd5b50610622611c01565b3480156108c757600080fd5b506104ec600480360360208110156108de57600080fd5b5035611c07565b3480156108f157600080fd5b506108fa611ce1565b6040805161ffff9092168252519081900360200190f35b34801561091d57600080fd5b506104ec6004803603604081101561093457600080fd5b506001600160a01b038135169060200135611cf0565b34801561095657600080fd5b506104ec6004803603602081101561096d57600080fd5b50356001600160a01b0316611d77565b34801561098957600080fd5b506104ec600480360360208110156109a057600080fd5b5035611f52565b3480156109b357600080fd5b506104ec600480360360208110156109ca57600080fd5b50356001600160a01b0316612068565b3480156109e657600080fd5b50610622600480360360408110156109fd57600080fd5b508035906020013515156120e4565b348015610a1857600080fd5b50610521612176565b348015610a2d57600080fd5b50610622612186565b348015610a4257600080fd5b50610a4b61218c565b604080519687526020870195909552858501939093526060850191909152608084015260a0830152519081900360c00190f35b348015610a8a57600080fd5b506104ec60048036036020811015610aa157600080fd5b50356001600160a01b03166121a6565b348015610abd57600080fd5b5061052160048036036020811015610ad457600080fd5b50356001600160a01b0316612379565b348015610af057600080fd5b50610622612397565b348015610b0557600080fd5b50610b0e61239d565b604080516001600160a01b039092168252519081900360200190f35b348015610b3657600080fd5b50610b0e60048036036020811015610b4d57600080fd5b50356001600160a01b03166123ac565b348015610b6957600080fd5b506104ec60048036036020811015610b8057600080fd5b50356001600160a01b03166123ca565b348015610b9c57600080fd5b506104ec6123d7565b61052160048036036020811015610bbb57600080fd5b50356001600160a01b031661244e565b348015610bd757600080fd5b5061062261257e565b348015610bec57600080fd5b50610c1360048036036020811015610c0357600080fd5b50356001600160a01b0316612584565b6040805163ffffffff9092168252519081900360200190f35b348015610c3857600080fd5b5061062260048036036020811015610c4f57600080fd5b50356001600160a01b031661259c565b348015610c6b57600080fd5b506104ec60048036036020811015610c8257600080fd5b503561ffff166125fe565b348015610c9957600080fd5b506104ec6126f3565b348015610cae57600080fd5b506104ec60048036036020811015610cc557600080fd5b5035612795565b348015610cd857600080fd5b506106226127e3565b348015610ced57600080fd5b50610b0e6127e9565b348015610d0257600080fd5b506104ec60048036036080811015610d1957600080fd5b50803590602081013590604081013590606001356127f8565b348015610d3e57600080fd5b5061062260048036036040811015610d5557600080fd5b506001600160a01b038135169060200135612869565b348015610d7757600080fd5b506104ec612a71565b348015610d8c57600080fd5b50610622612b06565b348015610da157600080fd5b5061062260048036036020811015610db857600080fd5b50356001600160a01b0316612b0c565b348015610dd457600080fd5b5061052160048036036020811015610deb57600080fd5b50356001600160a01b0316612b1e565b348015610e0757600080fd5b50610b0e612b3c565b348015610e1c57600080fd5b50610b0e612b4b565b348015610e3157600080fd5b506104ec60048036036020811015610e4857600080fd5b5035612b5a565b348015610e5b57600080fd5b50610622612be6565b348015610e7057600080fd5b5061054a612bec565b348015610e8557600080fd5b50610622612c4d565b348015610e9a57600080fd5b50610622612c53565b348015610eaf57600080fd5b5061052160048036036040811015610ec657600080fd5b506001600160a01b038135169060200135612c59565b348015610ee857600080fd5b50610622612cc1565b348015610efd57600080fd5b5061052160048036036040811015610f1457600080fd5b506001600160a01b038135169060200135612cc7565b348015610f3657600080fd5b50610622612cdb565b348015610f4b57600080fd5b50610622612d0a565b348015610f6057600080fd5b5061062260048036036020811015610f7757600080fd5b50356001600160a01b0316612d10565b348015610f9357600080fd5b506104ec60048036036020811015610faa57600080fd5b5035612d74565b348015610fbd57600080fd5b50610b0e612e00565b348015610fd257600080fd5b50610622612e0f565b348015610fe757600080fd5b50610b0e612e15565b348015610ffc57600080fd5b506104ec600480360360c081101561101357600080fd5b506001600160a01b038135169060208101359060408101359060ff6060820135169060808101359060a00135612e24565b34801561105057600080fd5b50610622613097565b34801561106557600080fd5b506104ec6004803603602081101561107c57600080fd5b5035151561309d565b34801561109157600080fd5b506104ec600480360360408110156110a857600080fd5b506001600160a01b0381351690602001351515613139565b3480156110cc57600080fd5b506106226131ad565b3480156110e157600080fd5b506104ec600480360360208110156110f857600080fd5b50356131b3565b34801561110b57600080fd5b5061062261323e565b34801561112057600080fd5b5061112961324f565b6040805195865260208601949094528484019290925260608401526080830152519081900360a00190f35b34801561116057600080fd5b506106226004803603604081101561117757600080fd5b506001600160a01b0381358116916020013516613265565b34801561119b57600080fd5b50610622613290565b3480156111b057600080fd5b506104ec600480360360208110156111c757600080fd5b50356001600160a01b03166132b4565b3480156111e357600080fd5b50611216600480360360408110156111fa57600080fd5b5080356001600160a01b0316906020013563ffffffff1661332d565b6040805163ffffffff909316835260208301919091528051918290030190f35b34801561124257600080fd5b506104ec61335a565b34801561125757600080fd5b506104ec6004803603602081101561126e57600080fd5b50356001600160a01b03166133ed565b34801561128a57600080fd5b5061062261344e565b34801561129f57600080fd5b50610622613454565b3480156112b457600080fd5b5061062261345a565b3480156112c957600080fd5b50610b0e613460565b3480156112de57600080fd5b506104ec613466565b600043600e54111580156112fd5750600f544311155b61130657600080fd5b3360009081526004602052604090205460ff16151560011415611370576040805162461bcd60e51b815260206004820152601860248201527f416c726561647920636c61696d65642061697264726f70210000000000000000604482015290519081900360640190fd5b60105460125460115461138291613507565b1115611393576019805460ff191690555b6010546012546011546113a591613507565b10806113b15750601054155b6113f9576040805162461bcd60e51b8152602060048201526014602482015273526561636865642041697264726f70206361702160601b604482015290519081900360640190fd5b60195460ff1615156001141561144d576040805162461bcd60e51b8152602060048201526014602482015273526561636865642041697264726f70206361702160601b604482015290519081900360640190fd5b60125460115461145c91613507565b601155336001600160a01b0383161480159061147f575061147c8261259c565b15155b801561149357506001600160a01b03821615155b80156114a857506001600160a01b0382163014155b80156114b75750601054601154105b1561153657600c546012546000916114d8919060ff16600a0a6019026134c5565b90506010546114f28260115461350790919063ffffffff16565b1115611503576019805460ff191690555b61150e3084836135fc565b60105460115461151e9083613507565b11611534576011546115309082613507565b6011555b505b61154330336012546135fc565b601054601154141561155d576019805460ff191660011790555b50336000908152600460205260409020805460ff191660019081179091555b919050565b600a8054604080516020601f600260001961010060018816150201909516949094049384018190048102820181019092528281526060939092909183018282801561160d5780601f106115e25761010080835404028352916020019161160d565b820191906000526020600020905b8154815290600101906020018083116115f057829003601f168201915b5050505050905090565b600061162b611624613720565b8484613724565b5060015b92915050565b6001546001600160a01b0316331461167e5760405162461bcd60e51b815260040180806020018281038252602481526020018061505a6024913960400191505060405180910390fd5b6028805460ff60a01b191690556040805162461bcd60e51b8152602060048201526016602482015275497420697320616c726561647920656e61626c65642160501b604482015290519081900360640190fd5b602d5490565b600e5481565b602b5490565b6116eb613720565b6000546001600160a01b0390811691161461173b576040805162461bcd60e51b81526020600482018190526024820152600080516020614e26833981519152604482015290519081900360640190fd5b6013949094556014929092556017556018556015556000601655565b7f8cad95687ba82c2ce50e74f7b754645e5117c3a5bec8151c0726d5857980a86681565b6001546001600160a01b031633146117c45760405162461bcd60e51b815260040180806020018281038252602481526020018061505a6024913960400191505060405180910390fd5b602180546001600160a01b0319166001600160a01b0392909216919091179055565b60205481565b6c02459c82a05e9a2ad32000000081565b600061186f8461180b613720565b61186a85604051806060016040528060288152602001614dfe602891396001600160a01b038a16600090815260056020526040812090611849613720565b6001600160a01b031681526020810191909152604001600020549190613810565b613724565b61187a8484846138a7565b5060019392505050565b6001600160a01b03166000908152600d602052604090205460ff1690565b6001546001600160a01b031633146118eb5760405162461bcd60e51b815260040180806020018281038252602481526020018061505a6024913960400191505060405180910390fd5b6001600160a01b0381166119305760405162461bcd60e51b8152600401808060200182810382526032815260200180614f986032913960400191505060405180910390fd5b6001546040516001600160a01b038084169216907f74da04524d50c64947f5dd5381ef1a4dca5cba8ed1d816243f9e48aa0b5617ed90600090a3600180546001600160a01b0319166001600160a01b0392909216919091179055565b6000602c548211156119cf5760405162461bcd60e51b815260040180806020018281038252602a815260200180614d6b602a913960400191505060405180910390fd5b60006119d96139f0565b90506119e583826135ba565b9392505050565b600c5460ff1690565b60245481565b60235481565b6001546001600160a01b03163314611a4a5760405162461bcd60e51b815260040180806020018281038252602481526020018061505a6024913960400191505060405180910390fd5b6001600160a01b03811660009081526007602052604090205460ff16611ab7576040805162461bcd60e51b815260206004820152601b60248201527f4163636f756e7420697320616c726561647920696e636c756465640000000000604482015290519081900360640190fd5b60005b600854811015611baf57816001600160a01b031660088281548110611adb57fe5b6000918252602090912001546001600160a01b03161415611ba757600880546000198101908110611b0857fe5b600091825260209091200154600880546001600160a01b039092169183908110611b2e57fe5b600091825260208083209190910180546001600160a01b0319166001600160a01b039485161790559184168152600382526040808220829055600790925220805460ff191690556008805480611b8057fe5b600082815260209020810160001990810180546001600160a01b0319169055019055611baf565b600101611aba565b5050565b600061162b611bc0613720565b8461186a8560056000611bd1613720565b6001600160a01b03908116825260208083019390935260409182016000908120918c168152925290205490613507565b601a5481565b6000611c11613720565b6001600160a01b03811660009081526007602052604090205490915060ff1615611c6c5760405162461bcd60e51b815260040180806020018281038252602c815260200180614fca602c913960400191505060405180910390fd5b6000611c7783613a13565b505050506001600160a01b038416600090815260026020526040902054919250611ca3919050826134c5565b6001600160a01b038316600090815260026020526040902055602c54611cc990826134c5565b602c55602d54611cd99084613507565b602d55505050565b600c54610100900461ffff1681565b611cf8613720565b6000546001600160a01b03908116911614611d48576040805162461bcd60e51b81526020600482018190526024820152600080516020614e26833981519152604482015290519081900360640190fd5b611d528282613a62565b6001600160a01b038083166000908152602e6020526040812054611baf921683613ca4565b6001546001600160a01b03163314611dc05760405162461bcd60e51b815260040180806020018281038252602481526020018061505a6024913960400191505060405180910390fd5b6000819050806001600160a01b031663c45a01556040518163ffffffff1660e01b815260040160206040518083038186803b158015611dfe57600080fd5b505afa158015611e12573d6000803e3d6000fd5b505050506040513d6020811015611e2857600080fd5b5051604080516315ab88c960e31b815290516001600160a01b039283169263c9c653969230929186169163ad5c464891600480820192602092909190829003018186803b158015611e7857600080fd5b505afa158015611e8c573d6000803e3d6000fd5b505050506040513d6020811015611ea257600080fd5b5051604080516001600160e01b031960e086901b1681526001600160a01b0393841660048201529290911660248301525160448083019260209291908290030181600087803b158015611ef457600080fd5b505af1158015611f08573d6000803e3d6000fd5b505050506040513d6020811015611f1e57600080fd5b5051602880546001600160a01b039283166001600160a01b0319918216179091556027805493909216921691909117905550565b611f5a613720565b6000546001600160a01b03908116911614611faa576040805162461bcd60e51b81526020600482018190526024820152600080516020614e26833981519152604482015290519081900360640190fd5b30600090815260036020526040902054811115611ff85760405162461bcd60e51b8152600401808060200182810382526031815260200180614e6f6031913960400191505060405180910390fd5b6120053061dead83613de6565b60408051828152905161dead9130917fddf252ad1be2c89b69c2b068fc378daa952ba7f163c4a11628f55a4df523b3ef9181900360200190a3602b5461204b90826134c5565b602b5530600090815260036020526040902054611baf90826134c5565b612070613720565b6000546001600160a01b039081169116146120c0576040805162461bcd60e51b81526020600482018190526024820152600080516020614e26833981519152604482015290519081900360640190fd5b6001600160a01b03166000908152600660205260409020805460ff19166001179055565b6000602b5483111561213d576040805162461bcd60e51b815260206004820152601f60248201527f416d6f756e74206d757374206265206c657373207468616e20737570706c7900604482015290519081900360640190fd5b8161215c57600061214d84613a13565b5093955061162f945050505050565b600061216784613a13565b5092955061162f945050505050565b602854600160a81b900460ff1681565b60185481565b601354601454601554601654601754601854909192939495565b6001546001600160a01b031633146121ef5760405162461bcd60e51b815260040180806020018281038252602481526020018061505a6024913960400191505060405180910390fd5b7310ed43c718714eb63d5aa57b78b54704e256024e6001600160a01b038216141561224b5760405162461bcd60e51b8152600401808060200182810382526022815260200180614f766022913960400191505060405180910390fd5b6001600160a01b03811660009081526007602052604090205460ff16156122b9576040805162461bcd60e51b815260206004820152601b60248201527f4163636f756e7420697320616c7265616479206578636c756465640000000000604482015290519081900360640190fd5b6001600160a01b03811660009081526002602052604090205415612313576001600160a01b0381166000908152600260205260409020546122f99061198c565b6001600160a01b0382166000908152600360205260409020555b6001600160a01b03166000818152600760205260408120805460ff191660019081179091556008805491820181559091527ff3f7a9fe364faab93b216da50a3214154f22a0a2b415b23a84c8169e8b636ee30180546001600160a01b0319169091179055565b6001600160a01b031660009081526006602052604090205460ff1690565b60115481565b6001546001600160a01b031690565b6001600160a01b039081166000908152602e60205260409020541690565b6123d43382613e8f565b50565b6001546001600160a01b031633146124205760405162461bcd60e51b815260040180806020018281038252602481526020018061505a6024913960400191505060405180910390fd5b604051339081904780156108fc02916000818181858888f19350505050158015611baf573d6000803e3d6000fd5b6000436013541115801561246457506014544311155b61246d57600080fd5b34600061247b82600a6135ba565b90506000670de0b6b3a764000083601854028161249457fe5b0490506015546124af8260165461350790919063ffffffff16565b10806124bb5750601554155b612500576040805162461bcd60e51b8152602060048201526011602482015270526561636865642053616c65204361702160781b604482015290519081900360640190fd5b60165461250d9082613507565b601655336001600160a01b03861614801590612530575061252d8561259c565b15155b801561254457506001600160a01b03851615155b801561255957506001600160a01b0385163014155b15612568576125688583613f24565b6125733033836135fc565b506001949350505050565b601c5481565b60306020526000908152604090205463ffffffff1681565b6001600160a01b03811660009081526007602052604081205460ff16156125dc57506001600160a01b03811660009081526003602052604090205461157c565b6001600160a01b03821660009081526002602052604090205461162f9061198c565b6001546001600160a01b031633146126475760405162461bcd60e51b815260040180806020018281038252602481526020018061505a6024913960400191505060405180910390fd5b6107d08161ffff161061268b5760405162461bcd60e51b8152600401808060200182810382526037815260200180614ea06037913960400191505060405180910390fd5b600c546040805161ffff84811682526101009093049092166020830152805133927fa2e0ba132350f2f32125ca98239bd0402f71b8f484349c6cc2b4e19bc3da65ec92908290030190a2600c805461ffff9092166101000262ffff0019909216919091179055565b6126fb613720565b6000546001600160a01b0390811691161461274b576040805162461bcd60e51b81526020600482018190526024820152600080516020614e26833981519152604482015290519081900360640190fd5b600080546040516001600160a01b03909116907f8be0079c531659141344cd1fd0a4f28419497f9722a3daafe3b4186f6b6457e0908390a3600080546001600160a01b0319169055565b6001546001600160a01b031633146127de5760405162461bcd60e51b815260040180806020018281038252602481526020018061505a6024913960400191505060405180910390fd5b601e55565b60095481565b6021546001600160a01b031681565b612800613720565b6000546001600160a01b03908116911614612850576040805162461bcd60e51b81526020600482018190526024820152600080516020614e26833981519152604482015290519081900360640190fd5b600e93909355600f919091556012556010556000601155565b60004382106128a95760405162461bcd60e51b8152600401808060200182810382526027815260200180614d446027913960400191505060405180910390fd5b6001600160a01b03831660009081526030602052604090205463ffffffff16806128d757600091505061162f565b6001600160a01b0384166000908152602f6020908152604080832063ffffffff600019860181168552925290912054168310612946576001600160a01b0384166000908152602f602090815260408083206000199490940163ffffffff1683529290522060010154905061162f565b6001600160a01b0384166000908152602f6020908152604080832083805290915290205463ffffffff1683101561298157600091505061162f565b600060001982015b8163ffffffff168163ffffffff161115612a3a57600282820363ffffffff160481036129b3614ce3565b506001600160a01b0387166000908152602f6020908152604080832063ffffffff808616855290835292819020815180830190925280549093168082526001909301549181019190915290871415612a155760200151945061162f9350505050565b805163ffffffff16871115612a2c57819350612a33565b6001820392505b5050612989565b506001600160a01b0385166000908152602f6020908152604080832063ffffffff9094168352929052206001015491505092915050565b6001546001600160a01b03163314612aba5760405162461bcd60e51b815260040180806020018281038252602481526020018061505a6024913960400191505060405180910390fd5b6028805460ff60a01b19908116600160a01b17169055604080516000815290517f53726dfcaf90650aa7eb35524f4d3220f07413c8d6cb404cc8c18bf5591bc1599181900360200190a1565b60165481565b60316020526000908152604090205481565b6001600160a01b031660009081526007602052604090205460ff1690565b6000612b46612b4b565b905090565b6000546001600160a01b031690565b6001546001600160a01b03163314612ba35760405162461bcd60e51b815260040180806020018281038252602481526020018061505a6024913960400191505060405180910390fd5b601c546040805191825260208201839052805133927f75c5c6f8645bd83a84800488ed473b9cb4b64c98691f274e048d3c32d96318dc92908290030190a2601c55565b60135481565b600b8054604080516020601f600260001961010060018816150201909516949094049384018190048102820181019092528281526060939092909183018282801561160d5780601f106115e25761010080835404028352916020019161160d565b60175481565b60095490565b600061162b612c66613720565b8461186a8560405180606001604052806025815260200161507e6025913960056000612c90613720565b6001600160a01b03908116825260208083019390935260409182016000908120918d16815292529020549190613810565b600f5481565b600061162b612cd4613720565b84846138a7565b600c54600090612b469061271090612d0490610100900461ffff16612cfe6116dd565b90613561565b906135ba565b60155481565b6001600160a01b03811660009081526030602052604081205463ffffffff1680612d3b5760006119e5565b6001600160a01b0383166000908152602f6020908152604080832063ffffffff6000198601168452909152902060010154915050919050565b6001546001600160a01b03163314612dbd5760405162461bcd60e51b815260040180806020018281038252602481526020018061505a6024913960400191505060405180910390fd5b601a546040805191825260208201839052805133927f463d5aee307a3a9f54688b4f3a6ae3291e4d42f1d79b983535abd5fd492b4c7892908290030190a2601a55565b6028546001600160a01b031681565b601e5481565b6027546001600160a01b031681565b60007f8cad95687ba82c2ce50e74f7b754645e5117c3a5bec8151c0726d5857980a866612e4f611581565b80519060200120612e5e613fa9565b60408051602080820195909552808201939093526060830191909152306080808401919091528151808403909101815260a0830182528051908401207fe48329057bfd03d55e49b547132e39cffd9c1820ad7b9d4c5307691425d15adf60c08401526001600160a01b038b1660e084015261010083018a90526101208084018a9052825180850390910181526101408401835280519085012061190160f01b6101608501526101628401829052610182808501829052835180860390910181526101a285018085528151918701919091206000918290526101c2860180865281905260ff8b166101e287015261020286018a90526102228601899052935192965090949293909260019261024280840193601f198301929081900390910190855afa158015612f91573d6000803e3d6000fd5b5050604051601f1901519150506001600160a01b038116612fe35760405162461bcd60e51b81526004018080602001828103825260268152602001806150346026913960400191505060405180910390fd5b6001600160a01b038116600090815260316020526040902080546001810190915589146130415760405162461bcd60e51b8152600401808060200182810382526022815260200180614ed76022913960400191505060405180910390fd5b874211156130805760405162461bcd60e51b8152600401808060200182810382526026815260200180614d1e6026913960400191505060405180910390fd5b61308a818b613e8f565b505050505b505050505050565b60105481565b6001546001600160a01b031633146130e65760405162461bcd60e51b815260040180806020018281038252602481526020018061505a6024913960400191505060405180910390fd5b60288054821515600160a81b810260ff60a81b199092169190911790915560408051918252517f53726dfcaf90650aa7eb35524f4d3220f07413c8d6cb404cc8c18bf5591bc1599181900360200190a150565b6001546001600160a01b031633146131825760405162461bcd60e51b815260040180806020018281038252602481526020018061505a6024913960400191505060405180910390fd5b6001600160a01b03919091166000908152600d60205260409020805460ff1916911515919091179055565b60145481565b6001546001600160a01b031633146131fc5760405162461bcd60e51b815260040180806020018281038252602481526020018061505a6024913960400191505060405180910390fd5b6020805460408051918252918101839052815133927ffd725896746d8b2858a23ae515818a205a3971ec661621bb38b2fefa421c9cd8928290030190a2602055565b6c02459c82a05e9a2ad32000000090565b600e54600f546010546011546012549091929394565b6001600160a01b03918216600090815260056020908152604080832093909416825291909152205490565b7fe48329057bfd03d55e49b547132e39cffd9c1820ad7b9d4c5307691425d15adf81565b6132bc613720565b6000546001600160a01b0390811691161461330c576040805162461bcd60e51b81526020600482018190526024820152600080516020614e26833981519152604482015290519081900360640190fd5b6001600160a01b03166000908152600660205260409020805460ff19169055565b602f6020908152600092835260408084209091529082529020805460019091015463ffffffff9091169082565b6001546001600160a01b031633146133a35760405162461bcd60e51b815260040180806020018281038252602481526020018061505a6024913960400191505060405180910390fd5b6001546040516000916001600160a01b0316907f74da04524d50c64947f5dd5381ef1a4dca5cba8ed1d816243f9e48aa0b5617ed908390a3600180546001600160a01b0319169055565b6133f5613720565b6000546001600160a01b03908116911614613445576040805162461bcd60e51b81526020600482018190526024820152600080516020614e26833981519152604482015290519081900360640190fd5b6123d481613fad565b60165490565b60115490565b60125481565b61dead81565b6001546001600160a01b031633146134af5760405162461bcd60e51b815260040180806020018281038252602481526020018061505a6024913960400191505060405180910390fd5b60c8601a8190556000601c556064601e55602055565b60006119e583836040518060400160405280601e81526020017f536166654d6174683a207375627472616374696f6e206f766572666c6f770000815250613810565b6000828201838110156119e5576040805162461bcd60e51b815260206004820152601b60248201527f536166654d6174683a206164646974696f6e206f766572666c6f770000000000604482015290519081900360640190fd5b6000826135705750600061162f565b8282028284828161357d57fe5b04146119e55760405162461bcd60e51b8152600401808060200182810382526021815260200180614ddd6021913960400191505060405180910390fd5b60006119e583836040518060400160405280601a81526020017f536166654d6174683a206469766973696f6e206279207a65726f00000000000081525061404d565b60008060008060008061360e87613a13565b6001600160a01b038f16600090815260036020526040902054959b5093995091975095509350915061364090886134c5565b6001600160a01b038a1660009081526003602090815260408083209390935560029052205461366f90876134c5565b6001600160a01b03808b1660009081526002602052604080822093909355908a168152205461369e9086613507565b6001600160a01b0389166000908152600260205260409020556136c0816140b2565b6136ca848361413a565b876001600160a01b0316896001600160a01b03167fddf252ad1be2c89b69c2b068fc378daa952ba7f163c4a11628f55a4df523b3ef856040518082815260200191505060405180910390a3505050505050505050565b3390565b6001600160a01b0383166137695760405162461bcd60e51b8152600401808060200182810382526024815260200180614f1e6024913960400191505060405180910390fd5b6001600160a01b0382166137ae5760405162461bcd60e51b8152600401808060200182810382526022815260200180614dbb6022913960400191505060405180910390fd5b6001600160a01b03808416600081815260056020908152604080832094871680845294825291829020859055815185815291517f8c5be1e5ebec7d5bd14f71427d1e84f3dd0314c0f7b2291e5b200ac8c7c3b9259281900390910190a3505050565b6000818484111561389f5760405162461bcd60e51b81526004018080602001828103825283818151815260200191508051906020019080838360005b8381101561386457818101518382015260200161384c565b50505050905090810190601f1680156138915780820380516001836020036101000a031916815260200191505b509250505060405180910390fd5b505050900390565b6001600160a01b0383166138ec5760405162461bcd60e51b8152600401808060200182810382526025815260200180614ef96025913960400191505060405180910390fd5b6001600160a01b0382166139315760405162461bcd60e51b8152600401808060200182810382526023815260200180614cfb6023913960400191505060405180910390fd5b600081116139705760405162461bcd60e51b8152600401808060200182810382526029815260200180614e466029913960400191505060405180910390fd5b600061397b3061259c565b6029549091508110801590819061399c5750602854600160a01b900460ff16155b80156139b657506028546001600160a01b03868116911614155b80156139cb5750602854600160a81b900460ff165b156139de5760295491506139de8261415e565b6139e9858585614204565b5050505050565b60008060006139fd6145b7565b9092509050613a0c82826135ba565b9250505090565b6000806000806000806000806000613a2a8a61471a565b9250925092506000806000613a488d8686613a436139f0565b614756565b919f909e50909c50959a5093985091965092945050505050565b6001600160a01b038216613abd576040805162461bcd60e51b815260206004820152601f60248201527f42455032303a206d696e7420746f20746865207a65726f206164647265737300604482015290519081900360640190fd5b600954600090613acd9083613507565b9050602a548110613aea57600954602a54613ae7916134c5565b91505b602a546009541115613b43576040805162461bcd60e51b815260206004820181905260248201527f42455032303a204d617820416d6f756e74206d696e7465642072656163686564604482015290519081900360640190fd5b602b546c02459c82a05e9a2ad32000000090613b5f9084613507565b1115613bb2576040805162461bcd60e51b815260206004820152601960248201527f416d6f756e742045786365656473204d617820537570706c7900000000000000604482015290519081900360640190fd5b602b54613bbf9083613507565b602b55600954613bcf9083613507565b600955613bdb83612b1e565b15613c21576001600160a01b038316600090815260036020526040902054613c039083613507565b6001600160a01b038416600090815260036020526040902055613c5e565b6001600160a01b038316600090815260026020526040902054613c449083613507565b6001600160a01b0384166000908152600260205260409020555b6040805183815290516001600160a01b038516916000917fddf252ad1be2c89b69c2b068fc378daa952ba7f163c4a11628f55a4df523b3ef9181900360200190a3505050565b816001600160a01b0316836001600160a01b031614158015613cc65750600081115b15613de1576001600160a01b03831615613d58576001600160a01b03831660009081526030602052604081205463ffffffff169081613d06576000613d38565b6001600160a01b0385166000908152602f6020908152604080832063ffffffff60001987011684529091529020600101545b90506000613d4682856134c5565b9050613d54868484846147a6565b5050505b6001600160a01b03821615613de1576001600160a01b03821660009081526030602052604081205463ffffffff169081613d93576000613dc5565b6001600160a01b0384166000908152602f6020908152604080832063ffffffff60001987011684529091529020600101545b90506000613dd38285613507565b905061308f858484846147a6565b505050565b600080600080600080613df887613a13565b6001600160a01b038f16600090815260026020526040902054959b50939950919750955093509150613e2a90876134c5565b6001600160a01b03808b16600090815260026020908152604080832094909455918b16815260039091522054613e609084613507565b6001600160a01b03891660009081526003602090815260408083209390935560029052205461369e9086613507565b6001600160a01b038083166000908152602e602052604081205490911690613eb68461259c565b6001600160a01b038581166000818152602e602052604080822080546001600160a01b031916898616908117909155905194955093928616927f3134e8a2e6d97e929a7e54011ea5485d7d196dd5f0ba4d4ef95803e8e3fc257f9190a4613f1e828483613ca4565b50505050565b804711613f71576040805162461bcd60e51b815260206004820152601660248201527531b7b73a3930b1ba103732b2b21036b7b9329021272160511b604482015290519081900360640190fd5b6040516001600160a01b03831690819083156108fc029084906000818181858888f19350505050158015613f1e573d6000803e3d6000fd5b4690565b6001600160a01b038116613ff25760405162461bcd60e51b8152600401808060200182810382526026815260200180614d956026913960400191505060405180910390fd5b600080546040516001600160a01b03808516939216917f8be0079c531659141344cd1fd0a4f28419497f9722a3daafe3b4186f6b6457e091a3600080546001600160a01b0319166001600160a01b0392909216919091179055565b6000818361409c5760405162461bcd60e51b815260206004820181815283516024840152835190928392604490910191908501908083836000831561386457818101518382015260200161384c565b5060008385816140a857fe5b0495945050505050565b60006140bc6139f0565b905060006140ca8383613561565b306000908152600260205260409020549091506140e79082613507565b3060009081526002602090815260408083209390935560079052205460ff1615613de157306000908152600360205260409020546141259084613507565b30600090815260036020526040902055505050565b602c5461414790836134c5565b602c55602d546141579082613507565b602d555050565b6028805460ff60a01b1916600160a01b179055600061417e8260026135ba565b9050600061418c83836134c5565b9050476141988361490b565b60006141a447836134c5565b90506141b08382614ab1565b604080518581526020810183905280820185905290517f17bbfb9a6069321b6ded73bd96327c9e6b7212a5cd51ff219cd61370acafb5619181900360600190a150506028805460ff60a01b19169055505050565b8282826000614211612cdb565b11156142a4576001600160a01b0383166000908152600d602052604090205460ff1615801561425957506001600160a01b0382166000908152600d602052604090205460ff16155b156142a457614266612cdb565b8111156142a45760405162461bcd60e51b815260040180806020018281038252603e815260200180614ff6603e913960400191505060405180910390fd5b6001600160a01b03861660009081526006602052604090205460ff16806142e357506001600160a01b03851660009081526006602052604090205460ff165b156142f0576142f0614b7e565b600061430d612710612d04601e548861356190919063ffffffff16565b9050600061432c612710612d046020548961356190919063ffffffff16565b6001600160a01b03891660009081526007602052604090205490915060ff16801561437057506001600160a01b03871660009081526007602052604090205460ff16155b1561439857614393888861438e846143888b886134c5565b906134c5565b6135fc565b6144c5565b6001600160a01b03881660009081526007602052604090205460ff161580156143d957506001600160a01b03871660009081526007602052604090205460ff165b156143f65761439388886143f1846143888b886134c5565b613de6565b6001600160a01b03881660009081526007602052604090205460ff1615801561443857506001600160a01b03871660009081526007602052604090205460ff16155b15614455576143938888614450846143888b886134c5565b614b94565b6001600160a01b03881660009081526007602052604090205460ff16801561449557506001600160a01b03871660009081526007602052604090205460ff165b156144b25761439388886144ad846143888b886134c5565b614bd8565b6144c58888614450846143888b886134c5565b6000601a819055601c8190556001600160a01b03891681526007602052604090205460ff1615614519576144fc8861dead84614bd8565b6021546145149089906001600160a01b0316836135fc565b61453e565b6145268861dead84613de6565b60215461453e9089906001600160a01b031683614b94565b811561455557602b5461455190836134c5565b602b555b601b54601a55601d54601c556001600160a01b03881660009081526006602052604090205460ff16806145a057506001600160a01b03871660009081526006602052604090205460ff165b156145ad576145ad6134af565b5050505050505050565b602c54602b546000918291825b6008548110156146e8578260026000600884815481106145e057fe5b60009182526020808320909101546001600160a01b031683528201929092526040019020541180614645575081600360006008848154811061461e57fe5b60009182526020808320909101546001600160a01b03168352820192909252604001902054115b1561465c57602c54602b5494509450505050614716565b61469c600260006008848154811061467057fe5b60009182526020808320909101546001600160a01b0316835282019290925260400190205484906134c5565b92506146de60036000600884815481106146b257fe5b60009182526020808320909101546001600160a01b0316835282019290925260400190205483906134c5565b91506001016145c4565b50602b54602c546146f8916135ba565b82101561471057602c54602b54935093505050614716565b90925090505b9091565b60008060008061472985614c4b565b9050600061473686614c68565b905060006147488261438889866134c5565b979296509094509092505050565b60008080806147658886613561565b905060006147738887613561565b905060006147818888613561565b905060006147938261438886866134c5565b939b939a50919850919650505050505050565b60006147ca43604051806060016040528060348152602001614f4260349139614c85565b905060008463ffffffff1611801561481357506001600160a01b0385166000908152602f6020908152604080832063ffffffff6000198901811685529252909120548282169116145b15614850576001600160a01b0385166000908152602f6020908152604080832063ffffffff600019890116845290915290206001018290556148c1565b60408051808201825263ffffffff808416825260208083018681526001600160a01b038a166000818152602f84528681208b8616825284528681209551865490861663ffffffff19918216178755925160019687015590815260309092529390208054928801909116919092161790555b604080518481526020810184905281516001600160a01b038816927fdec2bacdd2f05b59de34da9b523dff8be42e5e38e818c82fdb0bae774387a724928290030190a25050505050565b6040805160028082526060808301845292602083019080368337019050509050308160008151811061493957fe5b6001600160a01b03928316602091820292909201810191909152602754604080516315ab88c960e31b81529051919093169263ad5c4648926004808301939192829003018186803b15801561498d57600080fd5b505afa1580156149a1573d6000803e3d6000fd5b505050506040513d60208110156149b757600080fd5b50518151829060019081106149c857fe5b6001600160a01b0392831660209182029290920101526027546149ee9130911684613724565b60275460405163791ac94760e01b8152600481018481526000602483018190523060648401819052426084850181905260a060448601908152875160a487015287516001600160a01b039097169663791ac947968a968a9594939092909160c40190602080880191028083838b5b83811015614a74578181015183820152602001614a5c565b505050509050019650505050505050600060405180830381600087803b158015614a9d57600080fd5b505af115801561308f573d6000803e3d6000fd5b602754614ac99030906001600160a01b031684613724565b6027546001600160a01b031663f305d719823085600080614ae8612b4b565b426040518863ffffffff1660e01b815260040180876001600160a01b03168152602001868152602001858152602001848152602001836001600160a01b0316815260200182815260200196505050505050506060604051808303818588803b158015614b5357600080fd5b505af1158015614b67573d6000803e3d6000fd5b50505050506040513d6060811015613f1e57600080fd5b6000601a819055601c819055601e819055602055565b600080600080600080614ba687613a13565b6001600160a01b038f16600090815260026020526040902054959b5093995091975095509350915061366f90876134c5565b600080600080600080614bea87613a13565b6001600160a01b038f16600090815260036020526040902054959b50939950919750955093509150614c1c90886134c5565b6001600160a01b038a16600090815260036020908152604080832093909355600290522054613e2a90876134c5565b600061162f612710612d04601a548561356190919063ffffffff16565b600061162f612710612d04601c548561356190919063ffffffff16565b6000816401000000008410614cdb5760405162461bcd60e51b815260206004820181815283516024840152835190928392604490910191908501908083836000831561386457818101518382015260200161384c565b509192915050565b60408051808201909152600080825260208201529056fe45524332303a207472616e7366657220746f20746865207a65726f20616464726573735a4149463a3a64656c656761746542795369673a207369676e617475726520657870697265645a4149463a3a6765745072696f72566f7465733a206e6f74207965742064657465726d696e6564416d6f756e74206d757374206265206c657373207468616e20746f74616c207265666c656374696f6e734f776e61626c653a206e6577206f776e657220697320746865207a65726f206164647265737345524332303a20617070726f766520746f20746865207a65726f2061646472657373536166654d6174683a206d756c7469706c69636174696f6e206f766572666c6f7745524332303a207472616e7366657220616d6f756e74206578636565647320616c6c6f77616e63654f776e61626c653a2063616c6c6572206973206e6f7420746865206f776e65725472616e7366657220616d6f756e74206d7573742062652067726561746572207468616e207a65726f4275726e696e67206d6f7265207468616e207468652063757272656e7420746f6b656e73206f6e20636f6e74726163742143616e6e6f7420736574206d6178207472616e73616374696f6e20616d6f756e74206d6f7265207468616e2032302070657263656e74215a4149463a3a64656c656761746542795369673a20696e76616c6964206e6f6e636545524332303a207472616e736665722066726f6d20746865207a65726f206164647265737345524332303a20617070726f76652066726f6d20746865207a65726f20616464726573735a4149463a3a5f7772697465436865636b706f696e743a20626c6f636b206e756d6265722065786365656473203332206269747357652063616e206e6f74206578636c7564652050616e63616b6520726f757465722e5472616e736665724f70657261746f723a206e6577206f70657261746f7220697320746865207a65726f20616464726573734578636c75646564206164647265737365732063616e6e6f742063616c6c20746869732066756e6374696f6e5a4149463a3a616e74695768616c653a205472616e7366657220616d6f756e74206578636565647320746865206d61785472616e73666572416d6f756e745a4149463a3a64656c656761746542795369673a20696e76616c6964207369676e61747572654f70657261746f723a2063616c6c6572206973206e6f7420746865206f70657261746f7245524332303a2064656372656173656420616c6c6f77616e63652062656c6f77207a65726fa26469706673582212205a68f5a5bca2bc0878923d8e16221e2a3cc00aeb89a8f96e7365cf2361857df664736f6c634300060c0033536166654d6174683a206d756c7469706c69636174696f6e206f766572666c6f774f776e61626c653a2063616c6c6572206973206e6f7420746865206f776e6572ddf252ad1be2c89b69c2b068fc378daa952ba7f163c4a11628f55a4df523b3ef",
  "immutableReferences": {},
  "source": "// SPDX-License-Identifier: MIT\npragma solidity >=0.6.12;\n\n/*\n * Zaigar Finance \n */\n \nimport './libs/RGBEP20.sol';\n\n\n// ZAIF token with Governance and reflect fees.\ncontract ZaifToken is RGBEP20('Zaigar Finance', 'ZAIF') {\n\n    /// @notice Creates `_amount` token to `_to`. Must only be called by the owner (MasterChef).\n    function mint(address _to, uint256 _amount) public onlyOwner {\n        _mint(_to, _amount);\n        _moveDelegates(address(0), _delegates[_to], _amount);\n    }\n\n    // Copied and modified from YAM code:\n    // https://github.com/yam-finance/yam-protocol/blob/master/contracts/token/YAMGovernanceStorage.sol\n    // https://github.com/yam-finance/yam-protocol/blob/master/contracts/token/YAMGovernance.sol\n    // Which is copied and modified from COMPOUND:\n    // https://github.com/compound-finance/compound-protocol/blob/master/contracts/Governance/Comp.sol\n\n    /// @notice A record of each accounts delegate\n    mapping (address => address) internal _delegates;\n\n    /// @notice A checkpoint for marking number of votes from a given block\n    struct Checkpoint {\n        uint32 fromBlock;\n        uint256 votes;\n    }\n\n    /// @notice A record of votes checkpoints for each account, by index\n    mapping (address => mapping (uint32 => Checkpoint)) public checkpoints;\n\n    /// @notice The number of checkpoints for each account\n    mapping (address => uint32) public numCheckpoints;\n\n    /// @notice The EIP-712 typehash for the contract's domain\n    bytes32 public constant DOMAIN_TYPEHASH = keccak256(\"EIP712Domain(string name,uint256 chainId,address verifyingContract)\");\n\n    /// @notice The EIP-712 typehash for the delegation struct used by the contract\n    bytes32 public constant DELEGATION_TYPEHASH = keccak256(\"Delegation(address delegatee,uint256 nonce,uint256 expiry)\");\n\n    /// @notice A record of states for signing / validating signatures\n    mapping (address => uint) public nonces;\n\n      /// @notice An event thats emitted when an account changes its delegate\n    event DelegateChanged(address indexed delegator, address indexed fromDelegate, address indexed toDelegate);\n\n    /// @notice An event thats emitted when a delegate account's vote balance changes\n    event DelegateVotesChanged(address indexed delegate, uint previousBalance, uint newBalance);\n\n    /**\n     * @notice Delegate votes from `msg.sender` to `delegatee`\n     * @param delegator The address to get delegatee for\n     */\n    function delegates(address delegator)\n        external\n        view\n        returns (address)\n    {\n        return _delegates[delegator];\n    }\n\n   /**\n    * @notice Delegate votes from `msg.sender` to `delegatee`\n    * @param delegatee The address to delegate votes to\n    */\n    function delegate(address delegatee) external {\n        return _delegate(msg.sender, delegatee);\n    }\n\n    /**\n     * @notice Delegates votes from signatory to `delegatee`\n     * @param delegatee The address to delegate votes to\n     * @param nonce The contract state required to match the signature\n     * @param expiry The time at which to expire the signature\n     * @param v The recovery byte of the signature\n     * @param r Half of the ECDSA signature pair\n     * @param s Half of the ECDSA signature pair\n     */\n    function delegateBySig(\n        address delegatee,\n        uint nonce,\n        uint expiry,\n        uint8 v,\n        bytes32 r,\n        bytes32 s\n    )\n        external\n    {\n        bytes32 domainSeparator = keccak256(\n            abi.encode(\n                DOMAIN_TYPEHASH,\n                keccak256(bytes(name())),\n                getChainId(),\n                address(this)\n            )\n        );\n\n        bytes32 structHash = keccak256(\n            abi.encode(\n                DELEGATION_TYPEHASH,\n                delegatee,\n                nonce,\n                expiry\n            )\n        );\n\n        bytes32 digest = keccak256(\n            abi.encodePacked(\n                \"\\x19\\x01\",\n                domainSeparator,\n                structHash\n            )\n        );\n\n        address signatory = ecrecover(digest, v, r, s);\n        require(signatory != address(0), \"ZAIF::delegateBySig: invalid signature\");\n        require(nonce == nonces[signatory]++, \"ZAIF::delegateBySig: invalid nonce\");\n        require(now <= expiry, \"ZAIF::delegateBySig: signature expired\");\n        return _delegate(signatory, delegatee);\n    }\n\n    /**\n     * @notice Gets the current votes balance for `account`\n     * @param account The address to get votes balance\n     * @return The number of current votes for `account`\n     */\n    function getCurrentVotes(address account)\n        external\n        view\n        returns (uint256)\n    {\n        uint32 nCheckpoints = numCheckpoints[account];\n        return nCheckpoints > 0 ? checkpoints[account][nCheckpoints - 1].votes : 0;\n    }\n\n    /**\n     * @notice Determine the prior number of votes for an account as of a block number\n     * @dev Block number must be a finalized block or else this function will revert to prevent misinformation.\n     * @param account The address of the account to check\n     * @param blockNumber The block number to get the vote balance at\n     * @return The number of votes the account had as of the given block\n     */\n    function getPriorVotes(address account, uint blockNumber)\n        external\n        view\n        returns (uint256)\n    {\n        require(blockNumber < block.number, \"ZAIF::getPriorVotes: not yet determined\");\n\n        uint32 nCheckpoints = numCheckpoints[account];\n        if (nCheckpoints == 0) {\n            return 0;\n        }\n\n        // First check most recent balance\n        if (checkpoints[account][nCheckpoints - 1].fromBlock <= blockNumber) {\n            return checkpoints[account][nCheckpoints - 1].votes;\n        }\n\n        // Next check implicit zero balance\n        if (checkpoints[account][0].fromBlock > blockNumber) {\n            return 0;\n        }\n\n        uint32 lower = 0;\n        uint32 upper = nCheckpoints - 1;\n        while (upper > lower) {\n            uint32 center = upper - (upper - lower) / 2; // ceil, avoiding overflow\n            Checkpoint memory cp = checkpoints[account][center];\n            if (cp.fromBlock == blockNumber) {\n                return cp.votes;\n            } else if (cp.fromBlock < blockNumber) {\n                lower = center;\n            } else {\n                upper = center - 1;\n            }\n        }\n        return checkpoints[account][lower].votes;\n    }\n\n    function _delegate(address delegator, address delegatee)\n        internal\n    {\n        address currentDelegate = _delegates[delegator];\n        uint256 delegatorBalance = balanceOf(delegator); // balance of underlying ZAIFs (not scaled);\n        _delegates[delegator] = delegatee;\n\n        emit DelegateChanged(delegator, currentDelegate, delegatee);\n\n        _moveDelegates(currentDelegate, delegatee, delegatorBalance);\n    }\n\n    function _moveDelegates(address srcRep, address dstRep, uint256 amount) internal {\n        if (srcRep != dstRep && amount > 0) {\n            if (srcRep != address(0)) {\n                // decrease old representative\n                uint32 srcRepNum = numCheckpoints[srcRep];\n                uint256 srcRepOld = srcRepNum > 0 ? checkpoints[srcRep][srcRepNum - 1].votes : 0;\n                uint256 srcRepNew = srcRepOld.sub(amount);\n                _writeCheckpoint(srcRep, srcRepNum, srcRepOld, srcRepNew);\n            }\n\n            if (dstRep != address(0)) {\n                // increase new representative\n                uint32 dstRepNum = numCheckpoints[dstRep];\n                uint256 dstRepOld = dstRepNum > 0 ? checkpoints[dstRep][dstRepNum - 1].votes : 0;\n                uint256 dstRepNew = dstRepOld.add(amount);\n                _writeCheckpoint(dstRep, dstRepNum, dstRepOld, dstRepNew);\n            }\n        }\n    }\n\n    function _writeCheckpoint(\n        address delegatee,\n        uint32 nCheckpoints,\n        uint256 oldVotes,\n        uint256 newVotes\n    )\n        internal\n    {\n        uint32 blockNumber = safe32(block.number, \"ZAIF::_writeCheckpoint: block number exceeds 32 bits\");\n\n        if (nCheckpoints > 0 && checkpoints[delegatee][nCheckpoints - 1].fromBlock == blockNumber) {\n            checkpoints[delegatee][nCheckpoints - 1].votes = newVotes;\n        } else {\n            checkpoints[delegatee][nCheckpoints] = Checkpoint(blockNumber, newVotes);\n            numCheckpoints[delegatee] = nCheckpoints + 1;\n        }\n\n        emit DelegateVotesChanged(delegatee, oldVotes, newVotes);\n    }\n\n    function safe32(uint n, string memory errorMessage) internal pure returns (uint32) {\n        require(n < 2**32, errorMessage);\n        return uint32(n);\n    }\n\n    function getChainId() internal pure returns (uint) {\n        uint256 chainId;\n        assembly { chainId := chainid() }\n        return chainId;\n    }\n}",
  "sourcePath": "/mnt/c/Users/AMD Ryzen/Downloads/blockchain projects/pancakeFork/Zaigar Project/definitive files/zai-finance-farm-master/contracts/ZaifToken.sol",
  "compiler": {
    "name": "solc",
    "version": "0.6.12+commit.27d51765.Emscripten.clang"
  },
  "schemaVersion": "3.4.1",
  "updatedAt": "2021-07-11T22:27:51.298Z",
  "networkType": "ethereum",
  "devdoc": {
    "kind": "dev",
    "methods": {
      "approve(address,uint256)": {
        "details": "Sets `amount` as the allowance of `spender` over the caller's tokens. Returns a boolean value indicating whether the operation succeeded. IMPORTANT: Beware that changing an allowance with this method brings the risk that someone may use both the old and the new allowance by unfortunate transaction ordering. One possible solution to mitigate this race condition is to first reduce the spender's allowance to 0 and set the desired value afterwards: https://github.com/ethereum/EIPs/issues/20#issuecomment-263524729 Emits an {Approval} event."
      },
      "balanceOf(address)": {
        "details": "Returns the amount of tokens owned by `account`."
      },
      "decimals()": {
        "details": "Returns the token decimals."
      },
      "delegate(address)": {
        "params": {
          "delegatee": "The address to delegate votes to"
        }
      },
      "delegateBySig(address,uint256,uint256,uint8,bytes32,bytes32)": {
        "params": {
          "delegatee": "The address to delegate votes to",
          "expiry": "The time at which to expire the signature",
          "nonce": "The contract state required to match the signature",
          "r": "Half of the ECDSA signature pair",
          "s": "Half of the ECDSA signature pair",
          "v": "The recovery byte of the signature"
        }
      },
      "delegates(address)": {
        "params": {
          "delegator": "The address to get delegatee for"
        }
      },
      "getCurrentVotes(address)": {
        "params": {
          "account": "The address to get votes balance"
        },
        "returns": {
          "_0": "The number of current votes for `account`"
        }
      },
      "getOwner()": {
        "details": "Returns the bep token owner."
      },
      "getPriorVotes(address,uint256)": {
        "details": "Block number must be a finalized block or else this function will revert to prevent misinformation.",
        "params": {
          "account": "The address of the account to check",
          "blockNumber": "The block number to get the vote balance at"
        },
        "returns": {
          "_0": "The number of votes the account had as of the given block"
        }
      },
      "isExcludedFromAntiWhale(address)": {
        "details": "Returns the address is excluded from antiWhale or not."
      },
      "maxTransferAmount()": {
        "details": "Returns the max transfer amount."
      },
      "name()": {
        "details": "Returns the token name."
      },
      "owner()": {
        "details": "Returns the address of the current owner."
      },
      "renounceOwnership()": {
        "details": "Leaves the contract without owner. It will not be possible to call `onlyOwner` functions anymore. Can only be called by the current owner. NOTE: Renouncing ownership will leave the contract without an owner, thereby removing any functionality that is only available to the owner."
      },
      "setExcludedFromAntiWhale(address,bool)": {
        "details": "Exclude or include an address from antiWhale. Can only be called by the current operator/owner."
      },
      "symbol()": {
        "details": "Returns the token symbol."
      },
      "totalSupply()": {
        "details": "Returns the amount of tokens in existence."
      },
      "transfer(address,uint256)": {
        "details": "Moves `amount` tokens from the caller's account to `recipient`. Returns a boolean value indicating whether the operation succeeded. Emits a {Transfer} event."
      },
      "transferFrom(address,address,uint256)": {
        "details": "Moves `amount` tokens from `sender` to `recipient` using the allowance mechanism. `amount` is then deducted from the caller's allowance. Returns a boolean value indicating whether the operation succeeded. Emits a {Transfer} event."
      },
      "transferOwnership(address)": {
        "details": "Transfers ownership of the contract to a new account (`newOwner`). Can only be called by the current owner."
      }
    },
    "version": 1
  },
  "userdoc": {
    "events": {
      "DelegateChanged(address,address,address)": {
        "notice": "An event thats emitted when an account changes its delegate"
      },
      "DelegateVotesChanged(address,uint256,uint256)": {
        "notice": "An event thats emitted when a delegate account's vote balance changes"
      }
    },
    "kind": "user",
    "methods": {
      "DELEGATION_TYPEHASH()": {
        "notice": "The EIP-712 typehash for the delegation struct used by the contract"
      },
      "DOMAIN_TYPEHASH()": {
        "notice": "The EIP-712 typehash for the contract's domain"
      },
      "checkpoints(address,uint32)": {
        "notice": "A record of votes checkpoints for each account, by index"
      },
      "delegate(address)": {
        "notice": "Delegate votes from `msg.sender` to `delegatee`"
      },
      "delegateBySig(address,uint256,uint256,uint8,bytes32,bytes32)": {
        "notice": "Delegates votes from signatory to `delegatee`"
      },
      "delegates(address)": {
        "notice": "Delegate votes from `msg.sender` to `delegatee`"
      },
      "getCurrentVotes(address)": {
        "notice": "Gets the current votes balance for `account`"
      },
      "getPriorVotes(address,uint256)": {
        "notice": "Determine the prior number of votes for an account as of a block number"
      },
      "mint(address,uint256)": {
        "notice": "Creates `_amount` token to `_to`. Must only be called by the owner (MasterChef)."
      },
      "nonces(address)": {
        "notice": "A record of states for signing / validating signatures"
      },
      "numCheckpoints(address)": {
        "notice": "The number of checkpoints for each account"
      }
    },
    "version": 1
  }
}